{
  "transactions": [
    {
      "hash": "0x92d281ef5766469c83bc60c679be5bc1aeb7ebcf979c4e93e993c0d4ccebf148",
      "transactionType": "CALL",
      "contractName": "MockUSDC",
      "contractAddress": "0xac9898769c79a6ef4aec0c3717b07a612c29f4ba",
      "function": "mint(address,uint256)",
      "arguments": [
        "0x6F9D1a63Cd0233D4a6E816342ccd094f7D265f2a",
        "250000000000"
      ],
      "transaction": {
        "from": "0x6f9d1a63cd0233d4a6e816342ccd094f7d265f2a",
        "to": "0xac9898769c79a6ef4aec0c3717b07a612c29f4ba",
        "gas": "0x17100",
        "value": "0x0",
        "input": "0x40c10f190000000000000000000000006f9d1a63cd0233d4a6e816342ccd094f7d265f2a0000000000000000000000000000000000000000000000000000003a35294400",
        "nonce": "0x2f",
        "chainId": "0xaa36a7"
      },
      "additionalContracts": [],
      "isFixedGasLimit": false
    },
    {
      "hash": "0xf66bbdba62ea169c1212bcd7395a2f7df2acf66f56b52c966aaf13de1731f6da",
      "transactionType": "CALL",
      "contractName": "MockUSDC",
      "contractAddress": "0xac9898769c79a6ef4aec0c3717b07a612c29f4ba",
      "function": "mint(address,uint256)",
      "arguments": [
        "0x6F9D1a63Cd0233D4a6E816342ccd094f7D265f2a",
        "100000000000"
      ],
      "transaction": {
        "from": "0x6f9d1a63cd0233d4a6e816342ccd094f7d265f2a",
        "to": "0xac9898769c79a6ef4aec0c3717b07a612c29f4ba",
        "gas": "0xb879",
        "value": "0x0",
        "input": "0x40c10f190000000000000000000000006f9d1a63cd0233d4a6e816342ccd094f7d265f2a000000000000000000000000000000000000000000000000000000174876e800",
        "nonce": "0x30",
        "chainId": "0xaa36a7"
      },
      "additionalContracts": [],
      "isFixedGasLimit": false
    },
    {
      "hash": "0x6a8b521f5c0c04e0ff24f4a348f774b5792c72a878765f102ec8fb4fbab3eb6b",
      "transactionType": "CALL",
      "contractName": null,
      "contractAddress": "0x77cf7effa15fc7f27cc9b02bd6efa40ae0f3ff0b",
      "function": "mint(address,uint256)",
      "arguments": [
        "0x6F9D1a63Cd0233D4a6E816342ccd094f7D265f2a",
        "2000000000000000000000"
      ],
      "transaction": {
        "from": "0x6f9d1a63cd0233d4a6e816342ccd094f7d265f2a",
        "to": "0x77cf7effa15fc7f27cc9b02bd6efa40ae0f3ff0b",
        "gas": "0x194aa",
        "value": "0x0",
        "input": "0x40c10f190000000000000000000000006f9d1a63cd0233d4a6e816342ccd094f7d265f2a00000000000000000000000000000000000000000000006c6b935b8bbd400000",
        "nonce": "0x31",
        "chainId": "0xaa36a7"
      },
      "additionalContracts": [],
      "isFixedGasLimit": false
    },
    {
      "hash": "0x5a93557b91e60f926d916c373dfb6534dbf19e74e5e576a3713032393c662e2a",
      "transactionType": "CALL",
      "contractName": null,
      "contractAddress": "0x847b4f0bafc294dfd120d1dd226b5cbb7611f4a3",
      "function": "approveBorrower(address,uint256,uint256,uint256)",
      "arguments": [
        "0x6F9D1a63Cd0233D4a6E816342ccd094f7D265f2a",
        "200000000000",
        "1500",
        "6000"
      ],
      "transaction": {
        "from": "0x6f9d1a63cd0233d4a6e816342ccd094f7d265f2a",
        "to": "0x847b4f0bafc294dfd120d1dd226b5cbb7611f4a3",
        "gas": "0x393fb",
        "value": "0x0",
        "input": "0x5ecf46680000000000000000000000006f9d1a63cd0233d4a6e816342ccd094f7d265f2a0000000000000000000000000000000000000000000000000000002e90edd00000000000000000000000000000000000000000000000000000000000000005dc0000000000000000000000000000000000000000000000000000000000001770",
        "nonce": "0x32",
        "chainId": "0xaa36a7"
      },
      "additionalContracts": [],
      "isFixedGasLimit": false
    },
    {
      "hash": "0xc83883d59dc4258c7192f6b41c618679af5fd0c6637aa3aa841a824eccb2df1a",
      "transactionType": "CALL",
      "contractName": "MockUSDC",
      "contractAddress": "0xac9898769c79a6ef4aec0c3717b07a612c29f4ba",
      "function": "approve(address,uint256)",
      "arguments": [
        "0x5a501F2E0E5d4A48d7ca4BB79ADa018022540a21",
        "200000000000"
      ],
      "transaction": {
        "from": "0x6f9d1a63cd0233d4a6e816342ccd094f7d265f2a",
        "to": "0xac9898769c79a6ef4aec0c3717b07a612c29f4ba",
        "gas": "0xfa09",
        "value": "0x0",
        "input": "0x095ea7b30000000000000000000000005a501f2e0e5d4a48d7ca4bb79ada018022540a210000000000000000000000000000000000000000000000000000002e90edd000",
        "nonce": "0x33",
        "chainId": "0xaa36a7"
      },
      "additionalContracts": [],
      "isFixedGasLimit": false
    },
    {
      "hash": "0xb2daaee8de20432fbace7f63d7d4764a48e4eb72735a67b6fdc38c9f81d30cc4",
      "transactionType": "CALL",
      "contractName": "LiquidityPool",
      "contractAddress": "0x5a501f2e0e5d4a48d7ca4bb79ada018022540a21",
      "function": "deposit(uint256,address)",
      "arguments": [
        "200000000000",
        "0x6F9D1a63Cd0233D4a6E816342ccd094f7D265f2a"
      ],
      "transaction": {
        "from": "0x6f9d1a63cd0233d4a6e816342ccd094f7d265f2a",
        "to": "0x5a501f2e0e5d4a48d7ca4bb79ada018022540a21",
        "gas": "0x299d0",
        "value": "0x0",
        "input": "0x6e553f650000000000000000000000000000000000000000000000000000002e90edd0000000000000000000000000006f9d1a63cd0233d4a6e816342ccd094f7d265f2a",
        "nonce": "0x34",
        "chainId": "0xaa36a7"
      },
      "additionalContracts": [],
      "isFixedGasLimit": false
    },
    {
      "hash": "0xc4d8edcb543bfc541bccbde68d7a907edbaf7e1820d040b6afb9374db39d5596",
      "transactionType": "CALL",
      "contractName": "MockUSDC",
      "contractAddress": "0xac9898769c79a6ef4aec0c3717b07a612c29f4ba",
      "function": "approve(address,uint256)",
      "arguments": [
        "0x267F408CF6e0FE2e3F15F4AC8933eb82dEeE1b03",
        "115792089237316195423570985008687907853269984665640564039457584007913129639935"
      ],
      "transaction": {
        "from": "0x6f9d1a63cd0233d4a6e816342ccd094f7d265f2a",
        "to": "0xac9898769c79a6ef4aec0c3717b07a612c29f4ba",
        "gas": "0xfbd9",
        "value": "0x0",
        "input": "0x095ea7b3000000000000000000000000267f408cf6e0fe2e3f15f4ac8933eb82deee1b03ffffffffffffffffffffffffffffffffffffffffffffffffffffffffffffffff",
        "nonce": "0x35",
        "chainId": "0xaa36a7"
      },
      "additionalContracts": [],
      "isFixedGasLimit": false
    },
    {
      "hash": "0x865ac0eb219f8c841e9fbfcbdb56e9de869c63aa57e814162e929cd202a71e4d",
      "transactionType": "CALL",
      "contractName": "ReceivableNFT",
      "contractAddress": "0x7eab304a4575fad6b073ad1a06726c371408ec90",
      "function": "mint(address,uint256,uint256,string)",
      "arguments": [
        "0x000000000000000000000000000000000000bEEF",
        "100000000000",
        "1783319400",
        "SEED-ACTIVE-001"
      ],
      "transaction": {
        "from": "0x6f9d1a63cd0233d4a6e816342ccd094f7d265f2a",
        "to": "0x7eab304a4575fad6b073ad1a06726c371408ec90",
        "gas": "0x4f544",
        "value": "0x0",
        "input": "0xbb7fde71000000000000000000000000000000000000000000000000000000000000beef000000000000000000000000000000000000000000000000000000174876e800000000000000000000000000000000000000000000000000000000006a4b4b680000000000000000000000000000000000000000000000000000000000000080000000000000000000000000000000000000000000000000000000000000000f534545442d4143544956452d3030310000000000000000000000000000000000",
        "nonce": "0x36",
        "chainId": "0xaa36a7"
      },
      "additionalContracts": [],
      "isFixedGasLimit": false
    },
    {
      "hash": "0x051a87ef37818b5af7c3541dc416c4e2621bda8037ae1e92251768ef9d2c4401",
      "transactionType": "CALL",
      "contractName": "ReceivableNFT",
      "contractAddress": "0x7eab304a4575fad6b073ad1a06726c371408ec90",
      "function": "mint(address,uint256,uint256,string)",
      "arguments": [
        "0x000000000000000000000000000000000000bEEF",
        "80000000000",
        "1784615400",
        "SEED-APPROVED-001"
      ],
      "transaction": {
        "from": "0x6f9d1a63cd0233d4a6e816342ccd094f7d265f2a",
        "to": "0x7eab304a4575fad6b073ad1a06726c371408ec90",
        "gas": "0x43cde",
        "value": "0x0",
        "input": "0xbb7fde71000000000000000000000000000000000000000000000000000000000000beef00000000000000000000000000000000000000000000000000000012a05f2000000000000000000000000000000000000000000000000000000000006a5f11e800000000000000000000000000000000000000000000000000000000000000800000000000000000000000000000000000000000000000000000000000000011534545442d415050524f5645442d303031000000000000000000000000000000",
        "nonce": "0x37",
        "chainId": "0xaa36a7"
      },
      "additionalContracts": [],
      "isFixedGasLimit": false
    },
    {
      "hash": "0x1e45440ff138ef8e7a1e11da1038ebcd636ac2b8a15d1a9c5195a53c88461782",
      "transactionType": "CALL",
      "contractName": "ReceivableNFT",
      "contractAddress": "0x7eab304a4575fad6b073ad1a06726c371408ec90",
      "function": "mint(address,uint256,uint256,string)",
      "arguments": [
        "0x000000000000000000000000000000000000bEEF",
        "40000000000",
        "1780727400",
        "SEED-REPAID-001"
      ],
      "transaction": {
        "from": "0x6f9d1a63cd0233d4a6e816342ccd094f7d265f2a",
        "to": "0x7eab304a4575fad6b073ad1a06726c371408ec90",
        "gas": "0x43cbe",
        "value": "0x0",
        "input": "0xbb7fde71000000000000000000000000000000000000000000000000000000000000beef00000000000000000000000000000000000000000000000000000009502f9000000000000000000000000000000000000000000000000000000000006a23be680000000000000000000000000000000000000000000000000000000000000080000000000000000000000000000000000000000000000000000000000000000f534545442d5245504149442d3030310000000000000000000000000000000000",
        "nonce": "0x38",
        "chainId": "0xaa36a7"
      },
      "additionalContracts": [],
      "isFixedGasLimit": false
    },
    {
      "hash": "0x289bbceca4d77f4eaf07b3d42433bd48e85b6b2d11a0ba9f48a98e231ef8c90f",
      "transactionType": "CALL",
      "contractName": null,
      "contractAddress": "0x847b4f0bafc294dfd120d1dd226b5cbb7611f4a3",
      "function": "approveReceivable(uint256)",
      "arguments": [
        "0"
      ],
      "transaction": {
        "from": "0x6f9d1a63cd0233d4a6e816342ccd094f7d265f2a",
        "to": "0x847b4f0bafc294dfd120d1dd226b5cbb7611f4a3",
        "gas": "0x12e31",
        "value": "0x0",
        "input": "0x6ae51aad0000000000000000000000000000000000000000000000000000000000000000",
        "nonce": "0x39",
        "chainId": "0xaa36a7"
      },
      "additionalContracts": [],
      "isFixedGasLimit": false
    },
    {
      "hash": "0x6e4dbb4712c448062654017e2c802775d2094dde6192879dc63b7319111f4178",
      "transactionType": "CALL",
      "contractName": null,
      "contractAddress": "0x847b4f0bafc294dfd120d1dd226b5cbb7611f4a3",
      "function": "approveReceivable(uint256)",
      "arguments": [
        "1"
      ],
      "transaction": {
        "from": "0x6f9d1a63cd0233d4a6e816342ccd094f7d265f2a",
        "to": "0x847b4f0bafc294dfd120d1dd226b5cbb7611f4a3",
        "gas": "0x11d77",
        "value": "0x0",
        "input": "0x6ae51aad0000000000000000000000000000000000000000000000000000000000000001",
        "nonce": "0x3a",
        "chainId": "0xaa36a7"
      },
      "additionalContracts": [],
      "isFixedGasLimit": false
    },
    {
      "hash": "0xcefca168464d624bc256b64031735e82058ce5e01aeaefe538962b5a877b606b",
      "transactionType": "CALL",
      "contractName": null,
      "contractAddress": "0x847b4f0bafc294dfd120d1dd226b5cbb7611f4a3",
      "function": "approveReceivable(uint256)",
      "arguments": [
        "2"
      ],
      "transaction": {
        "from": "0x6f9d1a63cd0233d4a6e816342ccd094f7d265f2a",
        "to": "0x847b4f0bafc294dfd120d1dd226b5cbb7611f4a3",
        "gas": "0x11d77",
        "value": "0x0",
        "input": "0x6ae51aad0000000000000000000000000000000000000000000000000000000000000002",
        "nonce": "0x3b",
        "chainId": "0xaa36a7"
      },
      "additionalContracts": [],
      "isFixedGasLimit": false
    },
    {
      "hash": "0x1a1bfb2277cf7113816de54de253cecb6b54b341fddece9756bb75a30d762962",
      "transactionType": "CALL",
      "contractName": "CreditFacility",
      "contractAddress": "0x267f408cf6e0fe2e3f15f4ac8933eb82deee1b03",
      "function": "applyForCredit(uint256)",
      "arguments": [
        "0"
      ],
      "transaction": {
        "from": "0x6f9d1a63cd0233d4a6e816342ccd094f7d265f2a",
        "to": "0x267f408cf6e0fe2e3f15f4ac8933eb82deee1b03",
        "gas": "0x5b708",
        "value": "0x0",
        "input": "0xd03604cf0000000000000000000000000000000000000000000000000000000000000000",
        "nonce": "0x3c",
        "chainId": "0xaa36a7"
      },
      "additionalContracts": [],
      "isFixedGasLimit": false
    },
    {
      "hash": "0xa446f924067c4c919af5808a8a3da417dbdde460a1ee76454b0714573e32e93e",
      "transactionType": "CALL",
      "contractName": "CreditFacility",
      "contractAddress": "0x267f408cf6e0fe2e3f15f4ac8933eb82deee1b03",
      "function": "applyForCredit(uint256)",
      "arguments": [
        "1"
      ],
      "transaction": {
        "from": "0x6f9d1a63cd0233d4a6e816342ccd094f7d265f2a",
        "to": "0x267f408cf6e0fe2e3f15f4ac8933eb82deee1b03",
        "gas": "0x61d28",
        "value": "0x0",
        "input": "0xd03604cf0000000000000000000000000000000000000000000000000000000000000001",
        "nonce": "0x3d",
        "chainId": "0xaa36a7"
      },
      "additionalContracts": [],
      "isFixedGasLimit": false
    },
    {
      "hash": "0x7d96c3088669bc89f5458ba512f7e8a4514667626116398165ac3e974a82dd50",
      "transactionType": "CALL",
      "contractName": "CreditFacility",
      "contractAddress": "0x267f408cf6e0fe2e3f15f4ac8933eb82deee1b03",
      "function": "applyForCredit(uint256)",
      "arguments": [
        "2"
      ],
      "transaction": {
        "from": "0x6f9d1a63cd0233d4a6e816342ccd094f7d265f2a",
        "to": "0x267f408cf6e0fe2e3f15f4ac8933eb82deee1b03",
        "gas": "0x61d28",
        "value": "0x0",
        "input": "0xd03604cf0000000000000000000000000000000000000000000000000000000000000002",
        "nonce": "0x3e",
        "chainId": "0xaa36a7"
      },
      "additionalContracts": [],
      "isFixedGasLimit": false
    },
    {
      "hash": "0x0b54bf9e0be32d9c6f07c3ec95d595c0fd48da7f7e042aa56f597fd304a07102",
      "transactionType": "CALL",
      "contractName": "CreditFacility",
      "contractAddress": "0x267f408cf6e0fe2e3f15f4ac8933eb82deee1b03",
      "function": "drawdown(uint256,uint256)",
      "arguments": [
        "0",
        "60000000000"
      ],
      "transaction": {
        "from": "0x6f9d1a63cd0233d4a6e816342ccd094f7d265f2a",
        "to": "0x267f408cf6e0fe2e3f15f4ac8933eb82deee1b03",
        "gas": "0x44857",
        "value": "0x0",
        "input": "0x5d7621c700000000000000000000000000000000000000000000000000000000000000000000000000000000000000000000000000000000000000000000000df8475800",
        "nonce": "0x3f",
        "chainId": "0xaa36a7"
      },
      "additionalContracts": [],
      "isFixedGasLimit": false
    },
    {
      "hash": "0x9f60a4d1c9dcdb0ba921289de26686332597593251ea569a1980d162b6ac108b",
      "transactionType": "CALL",
      "contractName": "CreditFacility",
      "contractAddress": "0x267f408cf6e0fe2e3f15f4ac8933eb82deee1b03",
      "function": "drawdown(uint256,uint256)",
      "arguments": [
        "2",
        "20000000000"
      ],
      "transaction": {
        "from": "0x6f9d1a63cd0233d4a6e816342ccd094f7d265f2a",
        "to": "0x267f408cf6e0fe2e3f15f4ac8933eb82deee1b03",
        "gas": "0x38fe2",
        "value": "0x0",
        "input": "0x5d7621c7000000000000000000000000000000000000000000000000000000000000000200000000000000000000000000000000000000000000000000000004a817c800",
        "nonce": "0x40",
        "chainId": "0xaa36a7"
      },
      "additionalContracts": [],
      "isFixedGasLimit": false
    },
    {
      "hash": "0xaf1ddbd3344512eecf54833654a8baffa97f8816b0f97ef348d9cca6cceed721",
      "transactionType": "CALL",
      "contractName": "CreditFacility",
      "contractAddress": "0x267f408cf6e0fe2e3f15f4ac8933eb82deee1b03",
      "function": "repay(uint256,uint256)",
      "arguments": [
        "2",
        "20000000000"
      ],
      "transaction": {
        "from": "0x6f9d1a63cd0233d4a6e816342ccd094f7d265f2a",
        "to": "0x267f408cf6e0fe2e3f15f4ac8933eb82deee1b03",
        "gas": "0x40f3e",
        "value": "0x0",
        "input": "0xd8aed145000000000000000000000000000000000000000000000000000000000000000200000000000000000000000000000000000000000000000000000004a817c800",
        "nonce": "0x41",
        "chainId": "0xaa36a7"
      },
      "additionalContracts": [],
      "isFixedGasLimit": false
    }
  ],
  "receipts": [
    {
      "status": "0x1",
      "cumulativeGasUsed": "0x1a528d6",
      "logs": [
        {
          "address": "0xac9898769c79a6ef4aec0c3717b07a612c29f4ba",
          "topics": [
            "0xddf252ad1be2c89b69c2b068fc378daa952ba7f163c4a11628f55a4df523b3ef",
            "0x0000000000000000000000000000000000000000000000000000000000000000",
            "0x0000000000000000000000006f9d1a63cd0233d4a6e816342ccd094f7d265f2a"
          ],
          "data": "0x0000000000000000000000000000000000000000000000000000003a35294400",
          "blockHash": "0xbc2c795310b927d94483937a2b8bf2453c0fb925601d712ededbe68dd6e33e56",
          "blockNumber": "0xa4e377",
          "blockTimestamp": "0x69fc318c",
          "transactionHash": "0x92d281ef5766469c83bc60c679be5bc1aeb7ebcf979c4e93e993c0d4ccebf148",
          "transactionIndex": "0xb1",
          "logIndex": "0x39a",
          "removed": false
        }
      ],
      "logsBloom": "0x00000000000000000000000000000000000000000000000000000000000002000000000000000000000000000000000000000000000000000000000000000000000000000000000000000008000000000000000000000000000000000000000000000000020000000000400001000800000000020000000000000010000000000000000000000000000000000000000000000000000000000000000000000000000000000000000000000000000000000000000000000000002000000000000000000002000000000000000000000000000000000004000000000000000020000000000000000000000000000000000000000000000000000000000000000000",
      "type": "0x2",
      "transactionHash": "0x92d281ef5766469c83bc60c679be5bc1aeb7ebcf979c4e93e993c0d4ccebf148",
      "transactionIndex": "0xb1",
      "blockHash": "0xbc2c795310b927d94483937a2b8bf2453c0fb925601d712ededbe68dd6e33e56",
      "blockNumber": "0xa4e377",
      "gasUsed": "0x10b27",
      "effectiveGasPrice": "0xb8585",
      "from": "0x6f9d1a63cd0233d4a6e816342ccd094f7d265f2a",
      "to": "0xac9898769c79a6ef4aec0c3717b07a612c29f4ba",
      "contractAddress": null
    },
    {
      "status": "0x1",
      "cumulativeGasUsed": "0x1a5ae65",
      "logs": [
        {
          "address": "0xac9898769c79a6ef4aec0c3717b07a612c29f4ba",
          "topics": [
            "0xddf252ad1be2c89b69c2b068fc378daa952ba7f163c4a11628f55a4df523b3ef",
            "0x0000000000000000000000000000000000000000000000000000000000000000",
            "0x0000000000000000000000006f9d1a63cd0233d4a6e816342ccd094f7d265f2a"
          ],
          "data": "0x000000000000000000000000000000000000000000000000000000174876e800",
          "blockHash": "0xbc2c795310b927d94483937a2b8bf2453c0fb925601d712ededbe68dd6e33e56",
          "blockNumber": "0xa4e377",
          "blockTimestamp": "0x69fc318c",
          "transactionHash": "0xcefca168464d624bc256b64031735e82058ce5e01aeaefe538962b5a877b606b",
          "transactionIndex": "0xb2",
          "logIndex": "0x39b",
          "removed": false
        }
      ],
      "logsBloom": "0x00000000000000000000000000000000000000000000000000000000000002000000000000000000000000000000000000000000000000000000000000000000000000000000000000000008000000000000000000000000000000000000000000000000020000000000400001000800000000020000000000000010000000000000000000000000000000000000000000000000000000000000000000000000000000000000000000000000000000000000000000000000002000000000000000000002000000000000000000000000000000000004000000000000000020000000000000000000000000000000000000000000000000000000000000000000",
      "type": "0x2",
      "transactionHash": "0xcefca168464d624bc256b64031735e82058ce5e01aeaefe538962b5a877b606b",
      "transactionIndex": "0xb2",
      "blockHash": "0xbc2c795310b927d94483937a2b8bf2453c0fb925601d712ededbe68dd6e33e56",
      "blockNumber": "0xa4e377",
      "gasUsed": "0x858f",
      "effectiveGasPrice": "0xb8585",
      "from": "0x6f9d1a63cd0233d4a6e816342ccd094f7d265f2a",
      "to": "0xac9898769c79a6ef4aec0c3717b07a612c29f4ba",
      "contractAddress": null
    },
    {
      "status": "0x1",
      "cumulativeGasUsed": "0x1a6c317",
      "logs": [
        {
          "address": "0x77cf7effa15fc7f27cc9b02bd6efa40ae0f3ff0b",
          "topics": [
            "0xddf252ad1be2c89b69c2b068fc378daa952ba7f163c4a11628f55a4df523b3ef",
            "0x0000000000000000000000000000000000000000000000000000000000000000",
            "0x0000000000000000000000006f9d1a63cd0233d4a6e816342ccd094f7d265f2a"
          ],
          "data": "0x00000000000000000000000000000000000000000000006c6b935b8bbd400000",
          "blockHash": "0xbc2c795310b927d94483937a2b8bf2453c0fb925601d712ededbe68dd6e33e56",
          "blockNumber": "0xa4e377",
          "blockTimestamp": "0x69fc318c",
          "transactionHash": "0xf66bbdba62ea169c1212bcd7395a2f7df2acf66f56b52c966aaf13de1731f6da",
          "transactionIndex": "0xb3",
          "logIndex": "0x39c",
          "removed": false
        }
      ],
      "logsBloom": "0x00000000000000000000100000000000000000000000000000000000000002000000000000000000000000000000000000000000000000000000000000000000000000000000000000000008000000000000000000000000000000000000000000000000020000000000000001000800000000000000000000000010000000000000000000000000000000000000000000000000000000000000000000000000000000000000000000000000000000000000000000000000002000000000000000000002000000000000000000000000000000000000000000000000002020000001000000000000000000000000000000000000000000000000000000000000",
      "type": "0x2",
      "transactionHash": "0xf66bbdba62ea169c1212bcd7395a2f7df2acf66f56b52c966aaf13de1731f6da",
      "transactionIndex": "0xb3",
      "blockHash": "0xbc2c795310b927d94483937a2b8bf2453c0fb925601d712ededbe68dd6e33e56",
      "blockNumber": "0xa4e377",
      "gasUsed": "0x114b2",
      "effectiveGasPrice": "0xb8585",
      "from": "0x6f9d1a63cd0233d4a6e816342ccd094f7d265f2a",
      "to": "0x77cf7effa15fc7f27cc9b02bd6efa40ae0f3ff0b",
      "contractAddress": null
    },
    {
      "status": "0x1",
      "cumulativeGasUsed": "0x1a95a3f",
      "logs": [
        {
          "address": "0x847b4f0bafc294dfd120d1dd226b5cbb7611f4a3",
          "topics": [
            "0x436b2c1d7aab524ba2bbafa3b3a8f36f8e66f22db6d06d62ce288787ce0c3262",
            "0x0000000000000000000000006f9d1a63cd0233d4a6e816342ccd094f7d265f2a"
          ],
          "data": "0x0000000000000000000000000000000000000000000000000000002e90edd00000000000000000000000000000000000000000000000000000000000000005dc0000000000000000000000000000000000000000000000000000000000001770",
          "blockHash": "0xbc2c795310b927d94483937a2b8bf2453c0fb925601d712ededbe68dd6e33e56",
          "blockNumber": "0xa4e377",
          "blockTimestamp": "0x69fc318c",
          "transactionHash": "0xc83883d59dc4258c7192f6b41c618679af5fd0c6637aa3aa841a824eccb2df1a",
          "transactionIndex": "0xb4",
          "logIndex": "0x39d",
          "removed": false
        }
      ],
      "logsBloom": "0x00000000000000000000000000000000000000000000000000000000000002000000000000000000000400000004000000000000000000000000000000000000000000000000000000000000000000000000000000000000000000000000000008000000000000000000002001000000000000000000000000000000000000000000000000000000000000000000000000000000000000000000000000000000000000000100000000000000000000000000000000000000002000000000000000000000000000000000000000000000000000000000000000000002000000000000000000000000000000000000000000000000000000000000000000000000",
      "type": "0x2",
      "transactionHash": "0xc83883d59dc4258c7192f6b41c618679af5fd0c6637aa3aa841a824eccb2df1a",
      "transactionIndex": "0xb4",
      "blockHash": "0xbc2c795310b927d94483937a2b8bf2453c0fb925601d712ededbe68dd6e33e56",
      "blockNumber": "0xa4e377",
      "gasUsed": "0x29728",
      "effectiveGasPrice": "0xb8585",
      "from": "0x6f9d1a63cd0233d4a6e816342ccd094f7d265f2a",
      "to": "0x847b4f0bafc294dfd120d1dd226b5cbb7611f4a3",
      "contractAddress": null
    },
    {
      "status": "0x1",
      "cumulativeGasUsed": "0x1aa0f45",
      "logs": [
        {
          "address": "0xac9898769c79a6ef4aec0c3717b07a612c29f4ba",
          "topics": [
            "0x8c5be1e5ebec7d5bd14f71427d1e84f3dd0314c0f7b2291e5b200ac8c7c3b925",
            "0x0000000000000000000000006f9d1a63cd0233d4a6e816342ccd094f7d265f2a",
            "0x0000000000000000000000005a501f2e0e5d4a48d7ca4bb79ada018022540a21"
          ],
          "data": "0x0000000000000000000000000000000000000000000000000000002e90edd000",
          "blockHash": "0xbc2c795310b927d94483937a2b8bf2453c0fb925601d712ededbe68dd6e33e56",
          "blockNumber": "0xa4e377",
          "blockTimestamp": "0x69fc318c",
          "transactionHash": "0xc4d8edcb543bfc541bccbde68d7a907edbaf7e1820d040b6afb9374db39d5596",
          "transactionIndex": "0xb5",
          "logIndex": "0x39e",
          "removed": false
        }
      ],
      "logsBloom": "0x00000000000000000000000000000000000000000000000000000000000002000000000000000000000000000000000000000000000000000000000000200000000000000000000000000000000000000000000000000000000000000000000000000000000000000000400001000000000000020000000000000000000000000080000000000000000000000000000000000000000000000000000000080000020000000000000000000000000000000000000000000000002000004000000000000000000000000000000000000000000000000004000000000000000000000010000000000000000000000000000000000000000000000000000000000000",
      "type": "0x2",
      "transactionHash": "0xc4d8edcb543bfc541bccbde68d7a907edbaf7e1820d040b6afb9374db39d5596",
      "transactionIndex": "0xb5",
      "blockHash": "0xbc2c795310b927d94483937a2b8bf2453c0fb925601d712ededbe68dd6e33e56",
      "blockNumber": "0xa4e377",
      "gasUsed": "0xb506",
      "effectiveGasPrice": "0xb8585",
      "from": "0x6f9d1a63cd0233d4a6e816342ccd094f7d265f2a",
      "to": "0xac9898769c79a6ef4aec0c3717b07a612c29f4ba",
      "contractAddress": null
    },
    {
      "status": "0x1",
      "cumulativeGasUsed": "0x138d18c",
      "logs": [
        {
          "address": "0xac9898769c79a6ef4aec0c3717b07a612c29f4ba",
          "topics": [
            "0xddf252ad1be2c89b69c2b068fc378daa952ba7f163c4a11628f55a4df523b3ef",
            "0x0000000000000000000000006f9d1a63cd0233d4a6e816342ccd094f7d265f2a",
            "0x0000000000000000000000005a501f2e0e5d4a48d7ca4bb79ada018022540a21"
          ],
          "data": "0x0000000000000000000000000000000000000000000000000000002e90edd000",
          "blockHash": "0x66a50c07050cd54305198d5d5c39182d3f6edc9bcfed0c17b874d603cc15fc39",
          "blockNumber": "0xa4e378",
          "blockTimestamp": "0x69fc3198",
          "transactionHash": "0xb2daaee8de20432fbace7f63d7d4764a48e4eb72735a67b6fdc38c9f81d30cc4",
          "transactionIndex": "0x8f",
          "logIndex": "0x2ed",
          "removed": false
        },
        {
          "address": "0x5a501f2e0e5d4a48d7ca4bb79ada018022540a21",
          "topics": [
            "0xddf252ad1be2c89b69c2b068fc378daa952ba7f163c4a11628f55a4df523b3ef",
            "0x0000000000000000000000000000000000000000000000000000000000000000",
            "0x0000000000000000000000006f9d1a63cd0233d4a6e816342ccd094f7d265f2a"
          ],
          "data": "0x0000000000000000000000000000000000000000000000000000002e90edd000",
          "blockHash": "0x66a50c07050cd54305198d5d5c39182d3f6edc9bcfed0c17b874d603cc15fc39",
          "blockNumber": "0xa4e378",
          "blockTimestamp": "0x69fc3198",
          "transactionHash": "0xb2daaee8de20432fbace7f63d7d4764a48e4eb72735a67b6fdc38c9f81d30cc4",
          "transactionIndex": "0x8f",
          "logIndex": "0x2ee",
          "removed": false
        },
        {
          "address": "0x5a501f2e0e5d4a48d7ca4bb79ada018022540a21",
          "topics": [
            "0xdcbc1c05240f31ff3ad067ef1ee35ce4997762752e3a095284754544f4c709d7",
            "0x0000000000000000000000006f9d1a63cd0233d4a6e816342ccd094f7d265f2a",
            "0x0000000000000000000000006f9d1a63cd0233d4a6e816342ccd094f7d265f2a"
          ],
          "data": "0x0000000000000000000000000000000000000000000000000000002e90edd0000000000000000000000000000000000000000000000000000000002e90edd000",
          "blockHash": "0x66a50c07050cd54305198d5d5c39182d3f6edc9bcfed0c17b874d603cc15fc39",
          "blockNumber": "0xa4e378",
          "blockTimestamp": "0x69fc3198",
          "transactionHash": "0xb2daaee8de20432fbace7f63d7d4764a48e4eb72735a67b6fdc38c9f81d30cc4",
          "transactionIndex": "0x8f",
          "logIndex": "0x2ef",
          "removed": false
        }
      ],
      "logsBloom": "0x0000000000000000000000000000000000000000000000000000000000000200000000000000000400000020000000000000000000000000000000000000000000000040000000000000000800000000000000000000000000000000000000000000000002000000000040000100080000000002000400000000001000000000008000000000000000000000000000000000000800000000000000000008000000000000000000000000000000000000000000000000000000200000400000000000000200000000000000000000000000000000000c000000000000000020000000000000000000000000000000000000000000000000000000000000000000",
      "type": "0x2",
      "transactionHash": "0xb2daaee8de20432fbace7f63d7d4764a48e4eb72735a67b6fdc38c9f81d30cc4",
      "transactionIndex": "0x8f",
      "blockHash": "0x66a50c07050cd54305198d5d5c39182d3f6edc9bcfed0c17b874d603cc15fc39",
      "blockNumber": "0xa4e378",
      "gasUsed": "0x1c742",
      "effectiveGasPrice": "0xb8791",
      "from": "0x6f9d1a63cd0233d4a6e816342ccd094f7d265f2a",
      "to": "0x5a501f2e0e5d4a48d7ca4bb79ada018022540a21",
      "contractAddress": null
    },
    {
      "status": "0x1",
      "cumulativeGasUsed": "0x14fd214",
      "logs": [
        {
          "address": "0xac9898769c79a6ef4aec0c3717b07a612c29f4ba",
          "topics": [
            "0x8c5be1e5ebec7d5bd14f71427d1e84f3dd0314c0f7b2291e5b200ac8c7c3b925",
            "0x0000000000000000000000006f9d1a63cd0233d4a6e816342ccd094f7d265f2a",
            "0x000000000000000000000000267f408cf6e0fe2e3f15f4ac8933eb82deee1b03"
          ],
          "data": "0xffffffffffffffffffffffffffffffffffffffffffffffffffffffffffffffff",
          "blockHash": "0x66a50c07050cd54305198d5d5c39182d3f6edc9bcfed0c17b874d603cc15fc39",
          "blockNumber": "0xa4e378",
          "blockTimestamp": "0x69fc3198",
          "transactionHash": "0x865ac0eb219f8c841e9fbfcbdb56e9de869c63aa57e814162e929cd202a71e4d",
          "transactionIndex": "0x93",
          "logIndex": "0x30b",
          "removed": false
        }
      ],
      "logsBloom": "0x00000000000000000000000000000008000000000000000000000000000002000000000000000000000000000000000000000000000000000000000100200000000010000000000000000000000000000000000000000000000000000000000000000000000000000000400001000000000000020000000000000000000000000000000000000000000000000000000000000000000000000000000000000000020000000000000000000000000000000000000000000000002000000000000000000000000000000000000000000000000000000004000000000000000000000010000000000000000000000000000000000000000000000000000000000000",
      "type": "0x2",
      "transactionHash": "0x865ac0eb219f8c841e9fbfcbdb56e9de869c63aa57e814162e929cd202a71e4d",
      "transactionIndex": "0x93",
      "blockHash": "0x66a50c07050cd54305198d5d5c39182d3f6edc9bcfed0c17b874d603cc15fc39",
      "blockNumber": "0xa4e378",
      "gasUsed": "0xb656",
      "effectiveGasPrice": "0xb8791",
      "from": "0x6f9d1a63cd0233d4a6e816342ccd094f7d265f2a",
      "to": "0xac9898769c79a6ef4aec0c3717b07a612c29f4ba",
      "contractAddress": null
    },
    {
      "status": "0x1",
      "cumulativeGasUsed": "0x1536902",
      "logs": [
        {
          "address": "0x7eab304a4575fad6b073ad1a06726c371408ec90",
          "topics": [
            "0xddf252ad1be2c89b69c2b068fc378daa952ba7f163c4a11628f55a4df523b3ef",
            "0x0000000000000000000000000000000000000000000000000000000000000000",
            "0x0000000000000000000000006f9d1a63cd0233d4a6e816342ccd094f7d265f2a",
            "0x0000000000000000000000000000000000000000000000000000000000000000"
          ],
          "data": "0x",
          "blockHash": "0x66a50c07050cd54305198d5d5c39182d3f6edc9bcfed0c17b874d603cc15fc39",
          "blockNumber": "0xa4e378",
          "blockTimestamp": "0x69fc3198",
          "transactionHash": "0x5a93557b91e60f926d916c373dfb6534dbf19e74e5e576a3713032393c662e2a",
          "transactionIndex": "0x94",
          "logIndex": "0x30c",
          "removed": false
        },
        {
          "address": "0x7eab304a4575fad6b073ad1a06726c371408ec90",
          "topics": [
            "0x73eb342d920a61f8fc4f548092bde8a326851e9de56f113fa026460a82493404",
            "0x0000000000000000000000000000000000000000000000000000000000000000",
            "0x0000000000000000000000006f9d1a63cd0233d4a6e816342ccd094f7d265f2a"
          ],
          "data": "0x000000000000000000000000000000000000000000000000000000174876e800000000000000000000000000000000000000000000000000000000006a4b4b68",
          "blockHash": "0x66a50c07050cd54305198d5d5c39182d3f6edc9bcfed0c17b874d603cc15fc39",
          "blockNumber": "0xa4e378",
          "blockTimestamp": "0x69fc3198",
          "transactionHash": "0x5a93557b91e60f926d916c373dfb6534dbf19e74e5e576a3713032393c662e2a",
          "transactionIndex": "0x94",
          "logIndex": "0x30d",
          "removed": false
        }
      ],
      "logsBloom": "0x0000000000000000000000000000000000000000000000000000000000000200000000000000000000000000000000000000000000000000000000000000000000000000000000000000000800000000000000000000000000000000000000000000002002000000000000000100080000000000000000000000001000000000000000000000000000000000000000000000000000000000000000000000000000000000800000000000000008000000000000000000000000201000000000000000000a000000000000000000000000000000000000000000000000000020080000000000000000000000000000000000000000000000000000000000000000",
      "type": "0x2",
      "transactionHash": "0x5a93557b91e60f926d916c373dfb6534dbf19e74e5e576a3713032393c662e2a",
      "transactionIndex": "0x94",
      "blockHash": "0x66a50c07050cd54305198d5d5c39182d3f6edc9bcfed0c17b874d603cc15fc39",
      "blockNumber": "0xa4e378",
      "gasUsed": "0x396ee",
      "effectiveGasPrice": "0xb8791",
      "from": "0x6f9d1a63cd0233d4a6e816342ccd094f7d265f2a",
      "to": "0x7eab304a4575fad6b073ad1a06726c371408ec90",
      "contractAddress": null
    },
    {
      "status": "0x1",
      "cumulativeGasUsed": "0x1567a70",
      "logs": [
        {
          "address": "0x7eab304a4575fad6b073ad1a06726c371408ec90",
          "topics": [
            "0xddf252ad1be2c89b69c2b068fc378daa952ba7f163c4a11628f55a4df523b3ef",
            "0x0000000000000000000000000000000000000000000000000000000000000000",
            "0x0000000000000000000000006f9d1a63cd0233d4a6e816342ccd094f7d265f2a",
            "0x0000000000000000000000000000000000000000000000000000000000000001"
          ],
          "data": "0x",
          "blockHash": "0x66a50c07050cd54305198d5d5c39182d3f6edc9bcfed0c17b874d603cc15fc39",
          "blockNumber": "0xa4e378",
          "blockTimestamp": "0x69fc3198",
          "transactionHash": "0x6a8b521f5c0c04e0ff24f4a348f774b5792c72a878765f102ec8fb4fbab3eb6b",
          "transactionIndex": "0x95",
          "logIndex": "0x30e",
          "removed": false
        },
        {
          "address": "0x7eab304a4575fad6b073ad1a06726c371408ec90",
          "topics": [
            "0x73eb342d920a61f8fc4f548092bde8a326851e9de56f113fa026460a82493404",
            "0x0000000000000000000000000000000000000000000000000000000000000001",
            "0x0000000000000000000000006f9d1a63cd0233d4a6e816342ccd094f7d265f2a"
          ],
          "data": "0x00000000000000000000000000000000000000000000000000000012a05f2000000000000000000000000000000000000000000000000000000000006a5f11e8",
          "blockHash": "0x66a50c07050cd54305198d5d5c39182d3f6edc9bcfed0c17b874d603cc15fc39",
          "blockNumber": "0xa4e378",
          "blockTimestamp": "0x69fc3198",
          "transactionHash": "0x6a8b521f5c0c04e0ff24f4a348f774b5792c72a878765f102ec8fb4fbab3eb6b",
          "transactionIndex": "0x95",
          "logIndex": "0x30f",
          "removed": false
        }
      ],
      "logsBloom": "0x0000000000000000000000000000000000000000000000000000000000000200000000000000000000000000000000000000000000000000000000000004000000000000000000000000000800000000000000000004000000000000000000000000002002000000000000000100080000000000000000000000001000000000000000000000000000000000000000000000000000000000000000000000000000000000800000000000000008000000000000000000000000201000000000000000000a000000000000000000000000000000000000000000000000000060080000000000000000000000000000000000000000000000000000000000000000",
      "type": "0x2",
      "transactionHash": "0x6a8b521f5c0c04e0ff24f4a348f774b5792c72a878765f102ec8fb4fbab3eb6b",
      "transactionIndex": "0x95",
      "blockHash": "0x66a50c07050cd54305198d5d5c39182d3f6edc9bcfed0c17b874d603cc15fc39",
      "blockNumber": "0xa4e378",
      "gasUsed": "0x3116e",
      "effectiveGasPrice": "0xb8791",
      "from": "0x6f9d1a63cd0233d4a6e816342ccd094f7d265f2a",
      "to": "0x7eab304a4575fad6b073ad1a06726c371408ec90",
      "contractAddress": null
    },
    {
      "status": "0x1",
      "cumulativeGasUsed": "0x1598bc6",
      "logs": [
        {
          "address": "0x7eab304a4575fad6b073ad1a06726c371408ec90",
          "topics": [
            "0xddf252ad1be2c89b69c2b068fc378daa952ba7f163c4a11628f55a4df523b3ef",
            "0x0000000000000000000000000000000000000000000000000000000000000000",
            "0x0000000000000000000000006f9d1a63cd0233d4a6e816342ccd094f7d265f2a",
            "0x0000000000000000000000000000000000000000000000000000000000000002"
          ],
          "data": "0x",
          "blockHash": "0x66a50c07050cd54305198d5d5c39182d3f6edc9bcfed0c17b874d603cc15fc39",
          "blockNumber": "0xa4e378",
          "blockTimestamp": "0x69fc3198",
          "transactionHash": "0x051a87ef37818b5af7c3541dc416c4e2621bda8037ae1e92251768ef9d2c4401",
          "transactionIndex": "0x96",
          "logIndex": "0x310",
          "removed": false
        },
        {
          "address": "0x7eab304a4575fad6b073ad1a06726c371408ec90",
          "topics": [
            "0x73eb342d920a61f8fc4f548092bde8a326851e9de56f113fa026460a82493404",
            "0x0000000000000000000000000000000000000000000000000000000000000002",
            "0x0000000000000000000000006f9d1a63cd0233d4a6e816342ccd094f7d265f2a"
          ],
          "data": "0x00000000000000000000000000000000000000000000000000000009502f9000000000000000000000000000000000000000000000000000000000006a23be68",
          "blockHash": "0x66a50c07050cd54305198d5d5c39182d3f6edc9bcfed0c17b874d603cc15fc39",
          "blockNumber": "0xa4e378",
          "blockTimestamp": "0x69fc3198",
          "transactionHash": "0x051a87ef37818b5af7c3541dc416c4e2621bda8037ae1e92251768ef9d2c4401",
          "transactionIndex": "0x96",
          "logIndex": "0x311",
          "removed": false
        }
      ],
      "logsBloom": "0x0400000000000000000000000000000000000000000000000000000000000200000000000000000000000000000000000000000000000000000000000000000000000000000000000000000800000000000000000000000000000000000000000000002002000000000000000100080000000000000000000000001000000000000000000000000000000000000000000000000000000000000000000000000000000000800000000000010008000000000000000000000000201000000000000000000a000000000000000000000000000000000000000000000000000020080000000000000000000000000000000000000000008000000000000000000000",
      "type": "0x2",
      "transactionHash": "0x051a87ef37818b5af7c3541dc416c4e2621bda8037ae1e92251768ef9d2c4401",
      "transactionIndex": "0x96",
      "blockHash": "0x66a50c07050cd54305198d5d5c39182d3f6edc9bcfed0c17b874d603cc15fc39",
      "blockNumber": "0xa4e378",
      "gasUsed": "0x31156",
      "effectiveGasPrice": "0xb8791",
      "from": "0x6f9d1a63cd0233d4a6e816342ccd094f7d265f2a",
      "to": "0x7eab304a4575fad6b073ad1a06726c371408ec90",
      "contractAddress": null
    },
    {
      "status": "0x1",
      "cumulativeGasUsed": "0x15a5a67",
      "logs": [
        {
          "address": "0x7eab304a4575fad6b073ad1a06726c371408ec90",
          "topics": [
            "0x9e95a55e57a81124d2879b79962dae944ee917f98ca302ea9dfe572f12436d14",
            "0x0000000000000000000000000000000000000000000000000000000000000000"
          ],
          "data": "0x",
          "blockHash": "0x66a50c07050cd54305198d5d5c39182d3f6edc9bcfed0c17b874d603cc15fc39",
          "blockNumber": "0xa4e378",
          "blockTimestamp": "0x69fc3198",
          "transactionHash": "0x1e45440ff138ef8e7a1e11da1038ebcd636ac2b8a15d1a9c5195a53c88461782",
          "transactionIndex": "0x97",
          "logIndex": "0x312",
          "removed": false
        }
      ],
      "logsBloom": "0x00000000000000000000000000000000000000000000000004000000000000000000000000000000000000000000000000000000000000000000000000000000000000000000000000000000000000000000000000000000000000000000000000000020020000000000000000000800000000000000000000000000000000000000000000000000000000000000000000000000000000000000000000000000000000000000000000000000080000000000000000000000000000000000000000000000800000000000000000000000000000000000000002000000000020080000000000000000000000000000000000000000000000000000000000000000",
      "type": "0x2",
      "transactionHash": "0x1e45440ff138ef8e7a1e11da1038ebcd636ac2b8a15d1a9c5195a53c88461782",
      "transactionIndex": "0x97",
      "blockHash": "0x66a50c07050cd54305198d5d5c39182d3f6edc9bcfed0c17b874d603cc15fc39",
      "blockNumber": "0xa4e378",
      "gasUsed": "0xcea1",
      "effectiveGasPrice": "0xb8791",
      "from": "0x6f9d1a63cd0233d4a6e816342ccd094f7d265f2a",
      "to": "0x847b4f0bafc294dfd120d1dd226b5cbb7611f4a3",
      "contractAddress": null
    },
    {
      "status": "0x1",
      "cumulativeGasUsed": "0x15b2914",
      "logs": [
        {
          "address": "0x7eab304a4575fad6b073ad1a06726c371408ec90",
          "topics": [
            "0x9e95a55e57a81124d2879b79962dae944ee917f98ca302ea9dfe572f12436d14",
            "0x0000000000000000000000000000000000000000000000000000000000000001"
          ],
          "data": "0x",
          "blockHash": "0x66a50c07050cd54305198d5d5c39182d3f6edc9bcfed0c17b874d603cc15fc39",
          "blockNumber": "0xa4e378",
          "blockTimestamp": "0x69fc3198",
          "transactionHash": "0x6e4dbb4712c448062654017e2c802775d2094dde6192879dc63b7319111f4178",
          "transactionIndex": "0x98",
          "logIndex": "0x313",
          "removed": false
        }
      ],
      "logsBloom": "0x00000000000000000000000000000000000000000000000004000000000000000000000000000000000000000000000000000000000000000000000000040000000000000000000000000000000000000000000000040000000000000000000000000020000000000000000000000000000000000000000000000000000000000000000000000000000000000000000000000000000000000000000000000000000000000000000000000000080000000000000000000000000000000000000000000000800000000000000000000000000000000000000002000000000040080000000000000000000000000000000000000000000000000000000000000000",
      "type": "0x2",
      "transactionHash": "0x6e4dbb4712c448062654017e2c802775d2094dde6192879dc63b7319111f4178",
      "transactionIndex": "0x98",
      "blockHash": "0x66a50c07050cd54305198d5d5c39182d3f6edc9bcfed0c17b874d603cc15fc39",
      "blockNumber": "0xa4e378",
      "gasUsed": "0xcead",
      "effectiveGasPrice": "0xb8791",
      "from": "0x6f9d1a63cd0233d4a6e816342ccd094f7d265f2a",
      "to": "0x847b4f0bafc294dfd120d1dd226b5cbb7611f4a3",
      "contractAddress": null
    },
    {
      "status": "0x1",
      "cumulativeGasUsed": "0x15bf7c1",
      "logs": [
        {
          "address": "0x7eab304a4575fad6b073ad1a06726c371408ec90",
          "topics": [
            "0x9e95a55e57a81124d2879b79962dae944ee917f98ca302ea9dfe572f12436d14",
            "0x0000000000000000000000000000000000000000000000000000000000000002"
          ],
          "data": "0x",
          "blockHash": "0x66a50c07050cd54305198d5d5c39182d3f6edc9bcfed0c17b874d603cc15fc39",
          "blockNumber": "0xa4e378",
          "blockTimestamp": "0x69fc3198",
          "transactionHash": "0x289bbceca4d77f4eaf07b3d42433bd48e85b6b2d11a0ba9f48a98e231ef8c90f",
          "transactionIndex": "0x99",
          "logIndex": "0x314",
          "removed": false
        }
      ],
      "logsBloom": "0x04000000000000000000000000000000000000000000000004000000000000000000000000000000000000000000000000000000000000000000000000000000000000000000000000000000000000000000000000000000000000000000000000000020000000000000000000000000000000000000000000000000000000000000000000000000000000000000000000000000000000000000000000000000000000000000000000000100080000000000000000000000000000000000000000000000800000000000000000000000000000000000000002000000000000080000000000000000000000000000000000000000008000000000000000000000",
      "type": "0x2",
      "transactionHash": "0x289bbceca4d77f4eaf07b3d42433bd48e85b6b2d11a0ba9f48a98e231ef8c90f",
      "transactionIndex": "0x99",
      "blockHash": "0x66a50c07050cd54305198d5d5c39182d3f6edc9bcfed0c17b874d603cc15fc39",
      "blockNumber": "0xa4e378",
      "gasUsed": "0xcead",
      "effectiveGasPrice": "0xb8791",
      "from": "0x6f9d1a63cd0233d4a6e816342ccd094f7d265f2a",
      "to": "0x847b4f0bafc294dfd120d1dd226b5cbb7611f4a3",
      "contractAddress": null
    },
    {
      "status": "0x1",
      "cumulativeGasUsed": "0x1601af7",
      "logs": [
        {
          "address": "0x267f408cf6e0fe2e3f15f4ac8933eb82deee1b03",
          "topics": [
            "0xdb4798dd12ae49eda0c23c3086aabb22fb4cfdf25ece86881769b768d3efd32f",
            "0x0000000000000000000000000000000000000000000000000000000000000000",
            "0x0000000000000000000000006f9d1a63cd0233d4a6e816342ccd094f7d265f2a"
          ],
          "data": "0x00000000000000000000000000000000000000000000000000000000000000000000000000000000000000000000000000000000000000000000000df8475800",
          "blockHash": "0x66a50c07050cd54305198d5d5c39182d3f6edc9bcfed0c17b874d603cc15fc39",
          "blockNumber": "0xa4e378",
          "blockTimestamp": "0x69fc3198",
          "transactionHash": "0xa446f924067c4c919af5808a8a3da417dbdde460a1ee76454b0714573e32e93e",
          "transactionIndex": "0x9a",
          "logIndex": "0x315",
          "removed": false
        },
        {
          "address": "0x267f408cf6e0fe2e3f15f4ac8933eb82deee1b03",
          "topics": [
            "0x0b2ef56770d1730a9de1e5ea6fc5844147fcbf76ffe97aff81e6bd889ec280a7",
            "0x0000000000000000000000000000000000000000000000000000000000000000"
          ],
          "data": "0x",
          "blockHash": "0x66a50c07050cd54305198d5d5c39182d3f6edc9bcfed0c17b874d603cc15fc39",
          "blockNumber": "0xa4e378",
          "blockTimestamp": "0x69fc3198",
          "transactionHash": "0xa446f924067c4c919af5808a8a3da417dbdde460a1ee76454b0714573e32e93e",
          "transactionIndex": "0x9a",
          "logIndex": "0x316",
          "removed": false
        }
      ],
      "logsBloom": "0x00000000000000000000000000000000000000000000000200000000100002000000000000000400000000000000000000000100000000000000000000000000000000000000000000000000000000000000000080000000000000000000000000000000020000000000000001000800000000000000000000000000000000000000000008000000000000000000000000000000000000000000000000000000000000000000000000000000000000000000000000000800002000000000000000000000000000000000000000000000000000000000000000000000000020000000000080000000000000000000001000000000000000000000000000000000",
      "type": "0x2",
      "transactionHash": "0xa446f924067c4c919af5808a8a3da417dbdde460a1ee76454b0714573e32e93e",
      "transactionIndex": "0x9a",
      "blockHash": "0x66a50c07050cd54305198d5d5c39182d3f6edc9bcfed0c17b874d603cc15fc39",
      "blockNumber": "0xa4e378",
      "gasUsed": "0x42336",
      "effectiveGasPrice": "0xb8791",
      "from": "0x6f9d1a63cd0233d4a6e816342ccd094f7d265f2a",
      "to": "0x267f408cf6e0fe2e3f15f4ac8933eb82deee1b03",
      "contractAddress": null
    },
    {
      "status": "0x1",
      "cumulativeGasUsed": "0x1644929",
      "logs": [
        {
          "address": "0x267f408cf6e0fe2e3f15f4ac8933eb82deee1b03",
          "topics": [
            "0xdb4798dd12ae49eda0c23c3086aabb22fb4cfdf25ece86881769b768d3efd32f",
            "0x0000000000000000000000000000000000000000000000000000000000000001",
            "0x0000000000000000000000006f9d1a63cd0233d4a6e816342ccd094f7d265f2a"
          ],
          "data": "0x00000000000000000000000000000000000000000000000000000000000000010000000000000000000000000000000000000000000000000000000b2d05e000",
          "blockHash": "0x66a50c07050cd54305198d5d5c39182d3f6edc9bcfed0c17b874d603cc15fc39",
          "blockNumber": "0xa4e378",
          "blockTimestamp": "0x69fc3198",
          "transactionHash": "0x1a1bfb2277cf7113816de54de253cecb6b54b341fddece9756bb75a30d762962",
          "transactionIndex": "0x9b",
          "logIndex": "0x317",
          "removed": false
        },
        {
          "address": "0x267f408cf6e0fe2e3f15f4ac8933eb82deee1b03",
          "topics": [
            "0x0b2ef56770d1730a9de1e5ea6fc5844147fcbf76ffe97aff81e6bd889ec280a7",
            "0x0000000000000000000000000000000000000000000000000000000000000001"
          ],
          "data": "0x",
          "blockHash": "0x66a50c07050cd54305198d5d5c39182d3f6edc9bcfed0c17b874d603cc15fc39",
          "blockNumber": "0xa4e378",
          "blockTimestamp": "0x69fc3198",
          "transactionHash": "0x1a1bfb2277cf7113816de54de253cecb6b54b341fddece9756bb75a30d762962",
          "transactionIndex": "0x9b",
          "logIndex": "0x318",
          "removed": false
        }
      ],
      "logsBloom": "0x00000000000000000000000000000000000000000000000200000000100002000000000000000400000000000000000000000100000000000000000000040000000000000000000000000000000000000000000080040000000000000000000000000000000000000000000001000000000000000000000000000000000000000000000008000000000000000000000000000000000000000000000000000000000000000000000000000000000000000000000000000800002000000000000000000000000000000000000000000000000000000000000000000000000040000000000080000000000000000000001000000000000000000000000000000000",
      "type": "0x2",
      "transactionHash": "0x1a1bfb2277cf7113816de54de253cecb6b54b341fddece9756bb75a30d762962",
      "transactionIndex": "0x9b",
      "blockHash": "0x66a50c07050cd54305198d5d5c39182d3f6edc9bcfed0c17b874d603cc15fc39",
      "blockNumber": "0xa4e378",
      "gasUsed": "0x42e32",
      "effectiveGasPrice": "0xb8791",
      "from": "0x6f9d1a63cd0233d4a6e816342ccd094f7d265f2a",
      "to": "0x267f408cf6e0fe2e3f15f4ac8933eb82deee1b03",
      "contractAddress": null
    },
    {
      "status": "0x1",
      "cumulativeGasUsed": "0x168775b",
      "logs": [
        {
          "address": "0x267f408cf6e0fe2e3f15f4ac8933eb82deee1b03",
          "topics": [
            "0xdb4798dd12ae49eda0c23c3086aabb22fb4cfdf25ece86881769b768d3efd32f",
            "0x0000000000000000000000000000000000000000000000000000000000000002",
            "0x0000000000000000000000006f9d1a63cd0233d4a6e816342ccd094f7d265f2a"
          ],
          "data": "0x0000000000000000000000000000000000000000000000000000000000000002000000000000000000000000000000000000000000000000000000059682f000",
          "blockHash": "0x66a50c07050cd54305198d5d5c39182d3f6edc9bcfed0c17b874d603cc15fc39",
          "blockNumber": "0xa4e378",
          "blockTimestamp": "0x69fc3198",
          "transactionHash": "0xaf1ddbd3344512eecf54833654a8baffa97f8816b0f97ef348d9cca6cceed721",
          "transactionIndex": "0x9c",
          "logIndex": "0x319",
          "removed": false
        },
        {
          "address": "0x267f408cf6e0fe2e3f15f4ac8933eb82deee1b03",
          "topics": [
            "0x0b2ef56770d1730a9de1e5ea6fc5844147fcbf76ffe97aff81e6bd889ec280a7",
            "0x0000000000000000000000000000000000000000000000000000000000000002"
          ],
          "data": "0x",
          "blockHash": "0x66a50c07050cd54305198d5d5c39182d3f6edc9bcfed0c17b874d603cc15fc39",
          "blockNumber": "0xa4e378",
          "blockTimestamp": "0x69fc3198",
          "transactionHash": "0xaf1ddbd3344512eecf54833654a8baffa97f8816b0f97ef348d9cca6cceed721",
          "transactionIndex": "0x9c",
          "logIndex": "0x31a",
          "removed": false
        }
      ],
      "logsBloom": "0x04000000000000000000000000000000000000000000000200000000100002000000000000000400000000000000000000000100000000000000000000000000000000000000000000000000000000000000000080000000000000000000000000000000000000000000000001000000000000000000000000000000000000000000000008000000000000000000000000000000000000000000000000000000000000000000000000000100000000000000000000000800002000000000000000000000000000000000000000000000000000000000000000000000000000000000000080000000000000000000001000000000008000000000000000000000",
      "type": "0x2",
      "transactionHash": "0xaf1ddbd3344512eecf54833654a8baffa97f8816b0f97ef348d9cca6cceed721",
      "transactionIndex": "0x9c",
      "blockHash": "0x66a50c07050cd54305198d5d5c39182d3f6edc9bcfed0c17b874d603cc15fc39",
      "blockNumber": "0xa4e378",
      "gasUsed": "0x42e32",
      "effectiveGasPrice": "0xb8791",
      "from": "0x6f9d1a63cd0233d4a6e816342ccd094f7d265f2a",
      "to": "0x267f408cf6e0fe2e3f15f4ac8933eb82deee1b03",
      "contractAddress": null
    },
    {
      "status": "0x1",
      "cumulativeGasUsed": "0x23743d5",
      "logs": [
        {
          "address": "0x267f408cf6e0fe2e3f15f4ac8933eb82deee1b03",
          "topics": [
            "0xe30bd6dd5caf46905d03db87e64fcb79980cf5f0bac328ac1aa8edc66a02411a",
            "0x0000000000000000000000000000000000000000000000000000000000000000",
            "0x0000000000000000000000006f9d1a63cd0233d4a6e816342ccd094f7d265f2a"
          ],
          "data": "0x00000000000000000000000000000000000000000000000000000000000005dc00000000000000000000000000000000000000000000000000000000000004b0",
          "blockHash": "0xb12d176a95a60a0b6a5da5a659c56a928bd243208ca2b66c779c2bc0809055dc",
          "blockNumber": "0xa4e37a",
          "blockTimestamp": "0x69fc31b0",
          "transactionHash": "0x7d96c3088669bc89f5458ba512f7e8a4514667626116398165ac3e974a82dd50",
          "transactionIndex": "0xc9",
          "logIndex": "0x3a6",
          "removed": false
        },
        {
          "address": "0x7eab304a4575fad6b073ad1a06726c371408ec90",
          "topics": [
            "0xf2c7af4e27ab183637f98860df4cdd0b40c78470109111288c0cd05f1894fd66",
            "0x0000000000000000000000000000000000000000000000000000000000000000"
          ],
          "data": "0x",
          "blockHash": "0xb12d176a95a60a0b6a5da5a659c56a928bd243208ca2b66c779c2bc0809055dc",
          "blockNumber": "0xa4e37a",
          "blockTimestamp": "0x69fc31b0",
          "transactionHash": "0x7d96c3088669bc89f5458ba512f7e8a4514667626116398165ac3e974a82dd50",
          "transactionIndex": "0xc9",
          "logIndex": "0x3a7",
          "removed": false
        },
        {
          "address": "0xac9898769c79a6ef4aec0c3717b07a612c29f4ba",
          "topics": [
            "0xddf252ad1be2c89b69c2b068fc378daa952ba7f163c4a11628f55a4df523b3ef",
            "0x0000000000000000000000006f9d1a63cd0233d4a6e816342ccd094f7d265f2a",
            "0x000000000000000000000000267f408cf6e0fe2e3f15f4ac8933eb82deee1b03"
          ],
          "data": "0x00000000000000000000000000000000000000000000000000000004a817c800",
          "blockHash": "0xb12d176a95a60a0b6a5da5a659c56a928bd243208ca2b66c779c2bc0809055dc",
          "blockNumber": "0xa4e37a",
          "blockTimestamp": "0x69fc31b0",
          "transactionHash": "0x7d96c3088669bc89f5458ba512f7e8a4514667626116398165ac3e974a82dd50",
          "transactionIndex": "0xc9",
          "logIndex": "0x3a8",
          "removed": false
        },
        {
          "address": "0x267f408cf6e0fe2e3f15f4ac8933eb82deee1b03",
          "topics": [
            "0x4297eb34ce0f5cba5434e9e5bc90ff09dc76e8c53521965282b3b31bc2dcc4bc",
            "0x0000000000000000000000000000000000000000000000000000000000000000",
            "0x0000000000000000000000006f9d1a63cd0233d4a6e816342ccd094f7d265f2a"
          ],
          "data": "0x00000000000000000000000000000000000000000000000000000004a817c800",
          "blockHash": "0xb12d176a95a60a0b6a5da5a659c56a928bd243208ca2b66c779c2bc0809055dc",
          "blockNumber": "0xa4e37a",
          "blockTimestamp": "0x69fc31b0",
          "transactionHash": "0x7d96c3088669bc89f5458ba512f7e8a4514667626116398165ac3e974a82dd50",
          "transactionIndex": "0xc9",
          "logIndex": "0x3a9",
          "removed": false
        },
        {
          "address": "0xac9898769c79a6ef4aec0c3717b07a612c29f4ba",
          "topics": [
            "0xddf252ad1be2c89b69c2b068fc378daa952ba7f163c4a11628f55a4df523b3ef",
            "0x0000000000000000000000005a501f2e0e5d4a48d7ca4bb79ada018022540a21",
            "0x0000000000000000000000006f9d1a63cd0233d4a6e816342ccd094f7d265f2a"
          ],
          "data": "0x0000000000000000000000000000000000000000000000000000000df8475800",
          "blockHash": "0xb12d176a95a60a0b6a5da5a659c56a928bd243208ca2b66c779c2bc0809055dc",
          "blockNumber": "0xa4e37a",
          "blockTimestamp": "0x69fc31b0",
          "transactionHash": "0x7d96c3088669bc89f5458ba512f7e8a4514667626116398165ac3e974a82dd50",
          "transactionIndex": "0xc9",
          "logIndex": "0x3aa",
          "removed": false
        },
        {
          "address": "0x5a501f2e0e5d4a48d7ca4bb79ada018022540a21",
          "topics": [
            "0xc4c84823a324d0b8981b8d101133d3a6c8016438b9de23219733db972f5ca90e",
            "0x0000000000000000000000006f9d1a63cd0233d4a6e816342ccd094f7d265f2a"
          ],
          "data": "0x0000000000000000000000000000000000000000000000000000000df8475800",
          "blockHash": "0xb12d176a95a60a0b6a5da5a659c56a928bd243208ca2b66c779c2bc0809055dc",
          "blockNumber": "0xa4e37a",
          "blockTimestamp": "0x69fc31b0",
          "transactionHash": "0x7d96c3088669bc89f5458ba512f7e8a4514667626116398165ac3e974a82dd50",
          "transactionIndex": "0xc9",
          "logIndex": "0x3ab",
          "removed": false
        },
        {
          "address": "0x267f408cf6e0fe2e3f15f4ac8933eb82deee1b03",
          "topics": [
            "0xc3dcf8c44c73d275429bc69c4609ff1700936a2ea70bf11a98335c4e470b412c",
            "0x0000000000000000000000000000000000000000000000000000000000000000"
          ],
          "data": "0x0000000000000000000000000000000000000000000000000000000df8475800",
          "blockHash": "0xb12d176a95a60a0b6a5da5a659c56a928bd243208ca2b66c779c2bc0809055dc",
          "blockNumber": "0xa4e37a",
          "blockTimestamp": "0x69fc31b0",
          "transactionHash": "0x7d96c3088669bc89f5458ba512f7e8a4514667626116398165ac3e974a82dd50",
          "transactionIndex": "0xc9",
          "logIndex": "0x3ac",
          "removed": false
        }
      ],
      "logsBloom": "0x00000000000000000000000000000008000000000000000200000000100002000000000000000004000000200000000000000000000000000000000100000000000210010000000000000008100000000040080000000000000400000000000000080020020000000000400011000800000000820000000000000010000000000080000000000000000000000000000000000008000000000000000000080000000000000000000000000000080000000000000000000808002000004010000000000002000000000000000000000000000001000004000000020000000020080000000000000000000200000000008000000000000000000000000000000000",
      "type": "0x2",
      "transactionHash": "0x7d96c3088669bc89f5458ba512f7e8a4514667626116398165ac3e974a82dd50",
      "transactionIndex": "0xc9",
      "blockHash": "0xb12d176a95a60a0b6a5da5a659c56a928bd243208ca2b66c779c2bc0809055dc",
      "blockNumber": "0xa4e37a",
      "gasUsed": "0x319bc",
      "effectiveGasPrice": "0xb8755",
      "from": "0x6f9d1a63cd0233d4a6e816342ccd094f7d265f2a",
      "to": "0x267f408cf6e0fe2e3f15f4ac8933eb82deee1b03",
      "contractAddress": null
    },
    {
      "status": "0x1",
      "cumulativeGasUsed": "0x239d805",
      "logs": [
        {
          "address": "0x267f408cf6e0fe2e3f15f4ac8933eb82deee1b03",
          "topics": [
            "0xe30bd6dd5caf46905d03db87e64fcb79980cf5f0bac328ac1aa8edc66a02411a",
            "0x0000000000000000000000000000000000000000000000000000000000000002",
            "0x0000000000000000000000006f9d1a63cd0233d4a6e816342ccd094f7d265f2a"
          ],
          "data": "0x00000000000000000000000000000000000000000000000000000000000005dc00000000000000000000000000000000000000000000000000000000000004b0",
          "blockHash": "0xb12d176a95a60a0b6a5da5a659c56a928bd243208ca2b66c779c2bc0809055dc",
          "blockNumber": "0xa4e37a",
          "blockTimestamp": "0x69fc31b0",
          "transactionHash": "0x0b54bf9e0be32d9c6f07c3ec95d595c0fd48da7f7e042aa56f597fd304a07102",
          "transactionIndex": "0xca",
          "logIndex": "0x3ad",
          "removed": false
        },
        {
          "address": "0x7eab304a4575fad6b073ad1a06726c371408ec90",
          "topics": [
            "0xf2c7af4e27ab183637f98860df4cdd0b40c78470109111288c0cd05f1894fd66",
            "0x0000000000000000000000000000000000000000000000000000000000000002"
          ],
          "data": "0x",
          "blockHash": "0xb12d176a95a60a0b6a5da5a659c56a928bd243208ca2b66c779c2bc0809055dc",
          "blockNumber": "0xa4e37a",
          "blockTimestamp": "0x69fc31b0",
          "transactionHash": "0x0b54bf9e0be32d9c6f07c3ec95d595c0fd48da7f7e042aa56f597fd304a07102",
          "transactionIndex": "0xca",
          "logIndex": "0x3ae",
          "removed": false
        },
        {
          "address": "0xac9898769c79a6ef4aec0c3717b07a612c29f4ba",
          "topics": [
            "0xddf252ad1be2c89b69c2b068fc378daa952ba7f163c4a11628f55a4df523b3ef",
            "0x0000000000000000000000006f9d1a63cd0233d4a6e816342ccd094f7d265f2a",
            "0x000000000000000000000000267f408cf6e0fe2e3f15f4ac8933eb82deee1b03"
          ],
          "data": "0x00000000000000000000000000000000000000000000000000000001dcd65000",
          "blockHash": "0xb12d176a95a60a0b6a5da5a659c56a928bd243208ca2b66c779c2bc0809055dc",
          "blockNumber": "0xa4e37a",
          "blockTimestamp": "0x69fc31b0",
          "transactionHash": "0x0b54bf9e0be32d9c6f07c3ec95d595c0fd48da7f7e042aa56f597fd304a07102",
          "transactionIndex": "0xca",
          "logIndex": "0x3af",
          "removed": false
        },
        {
          "address": "0x267f408cf6e0fe2e3f15f4ac8933eb82deee1b03",
          "topics": [
            "0x4297eb34ce0f5cba5434e9e5bc90ff09dc76e8c53521965282b3b31bc2dcc4bc",
            "0x0000000000000000000000000000000000000000000000000000000000000002",
            "0x0000000000000000000000006f9d1a63cd0233d4a6e816342ccd094f7d265f2a"
          ],
          "data": "0x00000000000000000000000000000000000000000000000000000001dcd65000",
          "blockHash": "0xb12d176a95a60a0b6a5da5a659c56a928bd243208ca2b66c779c2bc0809055dc",
          "blockNumber": "0xa4e37a",
          "blockTimestamp": "0x69fc31b0",
          "transactionHash": "0x0b54bf9e0be32d9c6f07c3ec95d595c0fd48da7f7e042aa56f597fd304a07102",
          "transactionIndex": "0xca",
          "logIndex": "0x3b0",
          "removed": false
        },
        {
          "address": "0xac9898769c79a6ef4aec0c3717b07a612c29f4ba",
          "topics": [
            "0xddf252ad1be2c89b69c2b068fc378daa952ba7f163c4a11628f55a4df523b3ef",
            "0x0000000000000000000000005a501f2e0e5d4a48d7ca4bb79ada018022540a21",
            "0x0000000000000000000000006f9d1a63cd0233d4a6e816342ccd094f7d265f2a"
          ],
          "data": "0x00000000000000000000000000000000000000000000000000000004a817c800",
          "blockHash": "0xb12d176a95a60a0b6a5da5a659c56a928bd243208ca2b66c779c2bc0809055dc",
          "blockNumber": "0xa4e37a",
          "blockTimestamp": "0x69fc31b0",
          "transactionHash": "0x0b54bf9e0be32d9c6f07c3ec95d595c0fd48da7f7e042aa56f597fd304a07102",
          "transactionIndex": "0xca",
          "logIndex": "0x3b1",
          "removed": false
        },
        {
          "address": "0x5a501f2e0e5d4a48d7ca4bb79ada018022540a21",
          "topics": [
            "0xc4c84823a324d0b8981b8d101133d3a6c8016438b9de23219733db972f5ca90e",
            "0x0000000000000000000000006f9d1a63cd0233d4a6e816342ccd094f7d265f2a"
          ],
          "data": "0x00000000000000000000000000000000000000000000000000000004a817c800",
          "blockHash": "0xb12d176a95a60a0b6a5da5a659c56a928bd243208ca2b66c779c2bc0809055dc",
          "blockNumber": "0xa4e37a",
          "blockTimestamp": "0x69fc31b0",
          "transactionHash": "0x0b54bf9e0be32d9c6f07c3ec95d595c0fd48da7f7e042aa56f597fd304a07102",
          "transactionIndex": "0xca",
          "logIndex": "0x3b2",
          "removed": false
        },
        {
          "address": "0x267f408cf6e0fe2e3f15f4ac8933eb82deee1b03",
          "topics": [
            "0xc3dcf8c44c73d275429bc69c4609ff1700936a2ea70bf11a98335c4e470b412c",
            "0x0000000000000000000000000000000000000000000000000000000000000002"
          ],
          "data": "0x00000000000000000000000000000000000000000000000000000004a817c800",
          "blockHash": "0xb12d176a95a60a0b6a5da5a659c56a928bd243208ca2b66c779c2bc0809055dc",
          "blockNumber": "0xa4e37a",
          "blockTimestamp": "0x69fc31b0",
          "transactionHash": "0x0b54bf9e0be32d9c6f07c3ec95d595c0fd48da7f7e042aa56f597fd304a07102",
          "transactionIndex": "0xca",
          "logIndex": "0x3b3",
          "removed": false
        }
      ],
      "logsBloom": "0x04000000000000000000000000000008000000000000000200000000100002000000000000000004000000200000000000000000000000000000000100000000000210010000000000000008100000000040080000000000000400000000000000080020000000000000400011000000000000820000000000000010000000000080000000000000000000000000000000000008000000000000000000080000000000000000000000000100080000000000000000000808002000004010000000000002000000000000000000000000000001000004000000020000000000080000000000000000000200000000008000000000008000000000000000000000",
      "type": "0x2",
      "transactionHash": "0x0b54bf9e0be32d9c6f07c3ec95d595c0fd48da7f7e042aa56f597fd304a07102",
      "transactionIndex": "0xca",
      "blockHash": "0xb12d176a95a60a0b6a5da5a659c56a928bd243208ca2b66c779c2bc0809055dc",
      "blockNumber": "0xa4e37a",
      "gasUsed": "0x29430",
      "effectiveGasPrice": "0xb8755",
      "from": "0x6f9d1a63cd0233d4a6e816342ccd094f7d265f2a",
      "to": "0x267f408cf6e0fe2e3f15f4ac8933eb82deee1b03",
      "contractAddress": null
    },
    {
      "status": "0x1",
      "cumulativeGasUsed": "0x23cc86a",
      "logs": [
        {
          "address": "0xac9898769c79a6ef4aec0c3717b07a612c29f4ba",
          "topics": [
            "0xddf252ad1be2c89b69c2b068fc378daa952ba7f163c4a11628f55a4df523b3ef",
            "0x0000000000000000000000006f9d1a63cd0233d4a6e816342ccd094f7d265f2a",
            "0x0000000000000000000000005a501f2e0e5d4a48d7ca4bb79ada018022540a21"
          ],
          "data": "0x00000000000000000000000000000000000000000000000000000004a817c800",
          "blockHash": "0xb12d176a95a60a0b6a5da5a659c56a928bd243208ca2b66c779c2bc0809055dc",
          "blockNumber": "0xa4e37a",
          "blockTimestamp": "0x69fc31b0",
          "transactionHash": "0x9f60a4d1c9dcdb0ba921289de26686332597593251ea569a1980d162b6ac108b",
          "transactionIndex": "0xcb",
          "logIndex": "0x3b4",
          "removed": false
        },
        {
          "address": "0x5a501f2e0e5d4a48d7ca4bb79ada018022540a21",
          "topics": [
            "0xaf28ef548a3e357577842b9bd2e33678ce378c87837d3df6cb9592975552624d"
          ],
          "data": "0x00000000000000000000000000000000000000000000000000000004a817c80000000000000000000000000000000000000000000000000000000000000000000000000000000000000000000000000000000000000000000000000000000000",
          "blockHash": "0xb12d176a95a60a0b6a5da5a659c56a928bd243208ca2b66c779c2bc0809055dc",
          "blockNumber": "0xa4e37a",
          "blockTimestamp": "0x69fc31b0",
          "transactionHash": "0x9f60a4d1c9dcdb0ba921289de26686332597593251ea569a1980d162b6ac108b",
          "transactionIndex": "0xcb",
          "logIndex": "0x3b5",
          "removed": false
        },
        {
          "address": "0x7eab304a4575fad6b073ad1a06726c371408ec90",
          "topics": [
            "0xda7faef8e1e5dd313a1ecf7db57c82633b52c42b3b3f333d9eb278fe2a42bb1e",
            "0x0000000000000000000000000000000000000000000000000000000000000002"
          ],
          "data": "0x",
          "blockHash": "0xb12d176a95a60a0b6a5da5a659c56a928bd243208ca2b66c779c2bc0809055dc",
          "blockNumber": "0xa4e37a",
          "blockTimestamp": "0x69fc31b0",
          "transactionHash": "0x9f60a4d1c9dcdb0ba921289de26686332597593251ea569a1980d162b6ac108b",
          "transactionIndex": "0xcb",
          "logIndex": "0x3b6",
          "removed": false
        },
        {
          "address": "0x847b4f0bafc294dfd120d1dd226b5cbb7611f4a3",
          "topics": [
            "0x79c012a0cfae660e09134956bc432c8497ec80e86a3a108d130e8b3fca52b3ad",
            "0x0000000000000000000000006f9d1a63cd0233d4a6e816342ccd094f7d265f2a"
          ],
          "data": "0x000000000000000000000000000000000000000000000000000000000000003c",
          "blockHash": "0xb12d176a95a60a0b6a5da5a659c56a928bd243208ca2b66c779c2bc0809055dc",
          "blockNumber": "0xa4e37a",
          "blockTimestamp": "0x69fc31b0",
          "transactionHash": "0x9f60a4d1c9dcdb0ba921289de26686332597593251ea569a1980d162b6ac108b",
          "transactionIndex": "0xcb",
          "logIndex": "0x3b7",
          "removed": false
        },
        {
          "address": "0x847b4f0bafc294dfd120d1dd226b5cbb7611f4a3",
          "topics": [
            "0xa311e991c0130cedecfd9e2b818f117fc1375711bc5e20c3a4eeed7a27952ff4",
            "0x0000000000000000000000006f9d1a63cd0233d4a6e816342ccd094f7d265f2a"
          ],
          "data": "0x0000000000000000000000000000000000000000000000000000000000000001",
          "blockHash": "0xb12d176a95a60a0b6a5da5a659c56a928bd243208ca2b66c779c2bc0809055dc",
          "blockNumber": "0xa4e37a",
          "blockTimestamp": "0x69fc31b0",
          "transactionHash": "0x9f60a4d1c9dcdb0ba921289de26686332597593251ea569a1980d162b6ac108b",
          "transactionIndex": "0xcb",
          "logIndex": "0x3b8",
          "removed": false
        },
        {
          "address": "0xac9898769c79a6ef4aec0c3717b07a612c29f4ba",
          "topics": [
            "0xddf252ad1be2c89b69c2b068fc378daa952ba7f163c4a11628f55a4df523b3ef",
            "0x000000000000000000000000267f408cf6e0fe2e3f15f4ac8933eb82deee1b03",
            "0x0000000000000000000000006f9d1a63cd0233d4a6e816342ccd094f7d265f2a"
          ],
          "data": "0x00000000000000000000000000000000000000000000000000000001dcd65000",
          "blockHash": "0xb12d176a95a60a0b6a5da5a659c56a928bd243208ca2b66c779c2bc0809055dc",
          "blockNumber": "0xa4e37a",
          "blockTimestamp": "0x69fc31b0",
          "transactionHash": "0x9f60a4d1c9dcdb0ba921289de26686332597593251ea569a1980d162b6ac108b",
          "transactionIndex": "0xcb",
          "logIndex": "0x3b9",
          "removed": false
        },
        {
          "address": "0x267f408cf6e0fe2e3f15f4ac8933eb82deee1b03",
          "topics": [
            "0x0d736493ece6b7d52e34dd028d3d9d0aa75de37339f3da6b3514e70e231ed2a5",
            "0x0000000000000000000000000000000000000000000000000000000000000002",
            "0x0000000000000000000000006f9d1a63cd0233d4a6e816342ccd094f7d265f2a"
          ],
          "data": "0x00000000000000000000000000000000000000000000000000000001dcd65000",
          "blockHash": "0xb12d176a95a60a0b6a5da5a659c56a928bd243208ca2b66c779c2bc0809055dc",
          "blockNumber": "0xa4e37a",
          "blockTimestamp": "0x69fc31b0",
          "transactionHash": "0x9f60a4d1c9dcdb0ba921289de26686332597593251ea569a1980d162b6ac108b",
          "transactionIndex": "0xcb",
          "logIndex": "0x3ba",
          "removed": false
        },
        {
          "address": "0x267f408cf6e0fe2e3f15f4ac8933eb82deee1b03",
          "topics": [
            "0xa5d45484ad1ca2d150048172b10271197e495527669e57411c837f51a47a7ff5",
            "0x0000000000000000000000000000000000000000000000000000000000000002"
          ],
          "data": "0x",
          "blockHash": "0xb12d176a95a60a0b6a5da5a659c56a928bd243208ca2b66c779c2bc0809055dc",
          "blockNumber": "0xa4e37a",
          "blockTimestamp": "0x69fc31b0",
          "transactionHash": "0x9f60a4d1c9dcdb0ba921289de26686332597593251ea569a1980d162b6ac108b",
          "transactionIndex": "0xcb",
          "logIndex": "0x3bb",
          "removed": false
        },
        {
          "address": "0x267f408cf6e0fe2e3f15f4ac8933eb82deee1b03",
          "topics": [
            "0x1ad611755e340443b2da9ad4b0ba6431ca00c2f6bbda5b5bdf5c7306f9ffb84a",
            "0x0000000000000000000000000000000000000000000000000000000000000002"
          ],
          "data": "0x00000000000000000000000000000000000000000000000000000004a817c8000000000000000000000000000000000000000000000000000000000000000000",
          "blockHash": "0xb12d176a95a60a0b6a5da5a659c56a928bd243208ca2b66c779c2bc0809055dc",
          "blockNumber": "0xa4e37a",
          "blockTimestamp": "0x69fc31b0",
          "transactionHash": "0x9f60a4d1c9dcdb0ba921289de26686332597593251ea569a1980d162b6ac108b",
          "transactionIndex": "0xcb",
          "logIndex": "0x3bc",
          "removed": false
        }
      ],
      "logsBloom": "0x04000010000000000000000000000008000000000000000200000000100002000000000000000004000400200000000000000000000000400000000100000000800810024000000000000008000000800000000020000000000000000000000008000820000000000800420001000000000000020000000000100010000000000080008000000000000000000000004000000008000000000100000000080000000000000000000000000100080000800000000002000800002000004000000000000002000000400000000000000000000000000004000000000002000000080000000000000000000000000000000000000000008400000000002000000000",
      "type": "0x2",
      "transactionHash": "0x9f60a4d1c9dcdb0ba921289de26686332597593251ea569a1980d162b6ac108b",
      "transactionIndex": "0xcb",
      "blockHash": "0xb12d176a95a60a0b6a5da5a659c56a928bd243208ca2b66c779c2bc0809055dc",
      "blockNumber": "0xa4e37a",
      "gasUsed": "0x2f065",
      "effectiveGasPrice": "0xb8755",
      "from": "0x6f9d1a63cd0233d4a6e816342ccd094f7d265f2a",
      "to": "0x267f408cf6e0fe2e3f15f4ac8933eb82deee1b03",
      "contractAddress": null
    }
  ],
  "libraries": [],
  "pending": [],
  "returns": {
    "result": {
      "internal_type": "struct SeedHKPayFi.SeedResult",
      "value": "(0x6F9D1a63Cd0233D4a6E816342ccd094f7D265f2a, 0x6F9D1a63Cd0233D4a6E816342ccd094f7D265f2a, 0x6F9D1a63Cd0233D4a6E816342ccd094f7D265f2a, 0x6F9D1a63Cd0233D4a6E816342ccd094f7D265f2a, 0x000000000000000000000000000000000000bEEF, 0, 1, 2, 0, 1, 2)"
    }
  },
  "timestamp": 1778135474875,
  "chain": 11155111,
  "commit": "8ccae0f"
}