{
  "transactions": [
    {
      "hash": "0x1cc592dbc1288f4fe2c5adb49ad6878db6d549e12b33e90190ea20e165295bbe",
      "transactionType": "CALL",
      "contractName": "MockUSDC",
      "contractAddress": "0x05485f6f04bf7819446b91b7c0007cf4c3c8af3c",
      "function": "mint(address,uint256)",
      "arguments": [
        "0x6F9D1a63Cd0233D4a6E816342ccd094f7D265f2a",
        "250000000000"
      ],
      "transaction": {
        "from": "0x6f9d1a63cd0233d4a6e816342ccd094f7d265f2a",
        "to": "0x05485f6f04bf7819446b91b7c0007cf4c3c8af3c",
        "gas": "0x17100",
        "value": "0x0",
        "input": "0x40c10f190000000000000000000000006f9d1a63cd0233d4a6e816342ccd094f7d265f2a0000000000000000000000000000000000000000000000000000003a35294400",
        "nonce": "0xf",
        "chainId": "0xaa36a7"
      },
      "additionalContracts": [],
      "isFixedGasLimit": false
    },
    {
      "hash": "0xe8226365376ebc6df9f4c52bf90752acd20561ca97e277aa53a0506fcada1bf8",
      "transactionType": "CALL",
      "contractName": "MockUSDC",
      "contractAddress": "0x05485f6f04bf7819446b91b7c0007cf4c3c8af3c",
      "function": "mint(address,uint256)",
      "arguments": [
        "0x6F9D1a63Cd0233D4a6E816342ccd094f7D265f2a",
        "100000000000"
      ],
      "transaction": {
        "from": "0x6f9d1a63cd0233d4a6e816342ccd094f7d265f2a",
        "to": "0x05485f6f04bf7819446b91b7c0007cf4c3c8af3c",
        "gas": "0xb879",
        "value": "0x0",
        "input": "0x40c10f190000000000000000000000006f9d1a63cd0233d4a6e816342ccd094f7d265f2a000000000000000000000000000000000000000000000000000000174876e800",
        "nonce": "0x10",
        "chainId": "0xaa36a7"
      },
      "additionalContracts": [],
      "isFixedGasLimit": false
    },
    {
      "hash": "0x7be35cf053de321b1d7770de949a8659bcf6cccfa317e12d97491b56ba823389",
      "transactionType": "CALL",
      "contractName": "HKPayToken",
      "contractAddress": "0x67cf40fe269f79ac7dc8edb23561e3ead171e3c9",
      "function": "mint(address,uint256)",
      "arguments": [
        "0x6F9D1a63Cd0233D4a6E816342ccd094f7D265f2a",
        "2000000000000000000000"
      ],
      "transaction": {
        "from": "0x6f9d1a63cd0233d4a6e816342ccd094f7d265f2a",
        "to": "0x67cf40fe269f79ac7dc8edb23561e3ead171e3c9",
        "gas": "0x194aa",
        "value": "0x0",
        "input": "0x40c10f190000000000000000000000006f9d1a63cd0233d4a6e816342ccd094f7d265f2a00000000000000000000000000000000000000000000006c6b935b8bbd400000",
        "nonce": "0x11",
        "chainId": "0xaa36a7"
      },
      "additionalContracts": [],
      "isFixedGasLimit": false
    },
    {
      "hash": "0xbf1b6122157a48863f702eeb2464f7f6e89f88809e13397e29c0c8b032d20613",
      "transactionType": "CALL",
      "contractName": null,
      "contractAddress": "0x442aba13fabddf4b7713c640a7260882fbf7c69e",
      "function": "approveBorrower(address,uint256,uint256,uint256)",
      "arguments": [
        "0x6F9D1a63Cd0233D4a6E816342ccd094f7D265f2a",
        "200000000000",
        "1500",
        "6000"
      ],
      "transaction": {
        "from": "0x6f9d1a63cd0233d4a6e816342ccd094f7d265f2a",
        "to": "0x442aba13fabddf4b7713c640a7260882fbf7c69e",
        "gas": "0x393fb",
        "value": "0x0",
        "input": "0x5ecf46680000000000000000000000006f9d1a63cd0233d4a6e816342ccd094f7d265f2a0000000000000000000000000000000000000000000000000000002e90edd00000000000000000000000000000000000000000000000000000000000000005dc0000000000000000000000000000000000000000000000000000000000001770",
        "nonce": "0x12",
        "chainId": "0xaa36a7"
      },
      "additionalContracts": [],
      "isFixedGasLimit": false
    },
    {
      "hash": "0x1978ed8542b9b16284818409b8d584c07d4777ad899c846d059010db93c83c8e",
      "transactionType": "CALL",
      "contractName": "MockUSDC",
      "contractAddress": "0x05485f6f04bf7819446b91b7c0007cf4c3c8af3c",
      "function": "approve(address,uint256)",
      "arguments": [
        "0xe47e16DfE8e3feff8674534E46838461C16BfBF7",
        "200000000000"
      ],
      "transaction": {
        "from": "0x6f9d1a63cd0233d4a6e816342ccd094f7d265f2a",
        "to": "0x05485f6f04bf7819446b91b7c0007cf4c3c8af3c",
        "gas": "0xfa09",
        "value": "0x0",
        "input": "0x095ea7b3000000000000000000000000e47e16dfe8e3feff8674534e46838461c16bfbf70000000000000000000000000000000000000000000000000000002e90edd000",
        "nonce": "0x13",
        "chainId": "0xaa36a7"
      },
      "additionalContracts": [],
      "isFixedGasLimit": false
    },
    {
      "hash": "0x552be1bf5252393d8227d28e566047c233d2eca805faf16277113dfff240ccc2",
      "transactionType": "CALL",
      "contractName": null,
      "contractAddress": "0xe47e16dfe8e3feff8674534e46838461c16bfbf7",
      "function": "deposit(uint256,address)",
      "arguments": [
        "200000000000",
        "0x6F9D1a63Cd0233D4a6E816342ccd094f7D265f2a"
      ],
      "transaction": {
        "from": "0x6f9d1a63cd0233d4a6e816342ccd094f7d265f2a",
        "to": "0xe47e16dfe8e3feff8674534e46838461c16bfbf7",
        "gas": "0x299d0",
        "value": "0x0",
        "input": "0x6e553f650000000000000000000000000000000000000000000000000000002e90edd0000000000000000000000000006f9d1a63cd0233d4a6e816342ccd094f7d265f2a",
        "nonce": "0x14",
        "chainId": "0xaa36a7"
      },
      "additionalContracts": [],
      "isFixedGasLimit": false
    },
    {
      "hash": "0x1f6fc1a4ee450ef3b474dcb8090451dd694e37ebbbb9c56b58d78dc72d98ce11",
      "transactionType": "CALL",
      "contractName": "MockUSDC",
      "contractAddress": "0x05485f6f04bf7819446b91b7c0007cf4c3c8af3c",
      "function": "approve(address,uint256)",
      "arguments": [
        "0x115bBeb80311945B96315BaB65dab16c9D52141f",
        "115792089237316195423570985008687907853269984665640564039457584007913129639935"
      ],
      "transaction": {
        "from": "0x6f9d1a63cd0233d4a6e816342ccd094f7d265f2a",
        "to": "0x05485f6f04bf7819446b91b7c0007cf4c3c8af3c",
        "gas": "0xfbd9",
        "value": "0x0",
        "input": "0x095ea7b3000000000000000000000000115bbeb80311945b96315bab65dab16c9d52141fffffffffffffffffffffffffffffffffffffffffffffffffffffffffffffffff",
        "nonce": "0x15",
        "chainId": "0xaa36a7"
      },
      "additionalContracts": [],
      "isFixedGasLimit": false
    },
    {
      "hash": "0x5e56986f550c26a8cdef018c16d7e5e8d88a21b776923d5beeb5b5a93bdbf941",
      "transactionType": "CALL",
      "contractName": "ReceivableNFT",
      "contractAddress": "0x8cc4882e0217da00ae27952699e6a07d0db59c99",
      "function": "mint(address,uint256,uint256,string)",
      "arguments": [
        "0x000000000000000000000000000000000000bEEF",
        "100000000000",
        "1782612876",
        "SEED-ACTIVE-001"
      ],
      "transaction": {
        "from": "0x6f9d1a63cd0233d4a6e816342ccd094f7d265f2a",
        "to": "0x8cc4882e0217da00ae27952699e6a07d0db59c99",
        "gas": "0x4f544",
        "value": "0x0",
        "input": "0xbb7fde71000000000000000000000000000000000000000000000000000000000000beef000000000000000000000000000000000000000000000000000000174876e800000000000000000000000000000000000000000000000000000000006a40838c0000000000000000000000000000000000000000000000000000000000000080000000000000000000000000000000000000000000000000000000000000000f534545442d4143544956452d3030310000000000000000000000000000000000",
        "nonce": "0x16",
        "chainId": "0xaa36a7"
      },
      "additionalContracts": [],
      "isFixedGasLimit": false
    },
    {
      "hash": "0x95e424fbe38ede565f7676a0b70cb5a23907226f44a414c8a77a9aadc74a51a8",
      "transactionType": "CALL",
      "contractName": "ReceivableNFT",
      "contractAddress": "0x8cc4882e0217da00ae27952699e6a07d0db59c99",
      "function": "mint(address,uint256,uint256,string)",
      "arguments": [
        "0x000000000000000000000000000000000000bEEF",
        "80000000000",
        "1783908876",
        "SEED-APPROVED-001"
      ],
      "transaction": {
        "from": "0x6f9d1a63cd0233d4a6e816342ccd094f7d265f2a",
        "to": "0x8cc4882e0217da00ae27952699e6a07d0db59c99",
        "gas": "0x43cde",
        "value": "0x0",
        "input": "0xbb7fde71000000000000000000000000000000000000000000000000000000000000beef00000000000000000000000000000000000000000000000000000012a05f2000000000000000000000000000000000000000000000000000000000006a544a0c00000000000000000000000000000000000000000000000000000000000000800000000000000000000000000000000000000000000000000000000000000011534545442d415050524f5645442d303031000000000000000000000000000000",
        "nonce": "0x17",
        "chainId": "0xaa36a7"
      },
      "additionalContracts": [],
      "isFixedGasLimit": false
    },
    {
      "hash": "0xea1fd5150d43ab19f5e953f90bbfb349505beba1690399eb88f607c7a37597d5",
      "transactionType": "CALL",
      "contractName": "ReceivableNFT",
      "contractAddress": "0x8cc4882e0217da00ae27952699e6a07d0db59c99",
      "function": "mint(address,uint256,uint256,string)",
      "arguments": [
        "0x000000000000000000000000000000000000bEEF",
        "40000000000",
        "1780020876",
        "SEED-REPAID-001"
      ],
      "transaction": {
        "from": "0x6f9d1a63cd0233d4a6e816342ccd094f7d265f2a",
        "to": "0x8cc4882e0217da00ae27952699e6a07d0db59c99",
        "gas": "0x43cbe",
        "value": "0x0",
        "input": "0xbb7fde71000000000000000000000000000000000000000000000000000000000000beef00000000000000000000000000000000000000000000000000000009502f9000000000000000000000000000000000000000000000000000000000006a18f68c0000000000000000000000000000000000000000000000000000000000000080000000000000000000000000000000000000000000000000000000000000000f534545442d5245504149442d3030310000000000000000000000000000000000",
        "nonce": "0x18",
        "chainId": "0xaa36a7"
      },
      "additionalContracts": [],
      "isFixedGasLimit": false
    },
    {
      "hash": "0x9dd7b133e341dab50bcee7e1539c021c5262467e040fd6359e79005043fe1797",
      "transactionType": "CALL",
      "contractName": null,
      "contractAddress": "0x442aba13fabddf4b7713c640a7260882fbf7c69e",
      "function": "approveReceivable(uint256)",
      "arguments": [
        "0"
      ],
      "transaction": {
        "from": "0x6f9d1a63cd0233d4a6e816342ccd094f7d265f2a",
        "to": "0x442aba13fabddf4b7713c640a7260882fbf7c69e",
        "gas": "0x12e31",
        "value": "0x0",
        "input": "0x6ae51aad0000000000000000000000000000000000000000000000000000000000000000",
        "nonce": "0x19",
        "chainId": "0xaa36a7"
      },
      "additionalContracts": [],
      "isFixedGasLimit": false
    },
    {
      "hash": "0x9f0205ab18db44df8ca00db503dd4f3083193dea22aad452b5f2a6c405e34979",
      "transactionType": "CALL",
      "contractName": null,
      "contractAddress": "0x442aba13fabddf4b7713c640a7260882fbf7c69e",
      "function": "approveReceivable(uint256)",
      "arguments": [
        "1"
      ],
      "transaction": {
        "from": "0x6f9d1a63cd0233d4a6e816342ccd094f7d265f2a",
        "to": "0x442aba13fabddf4b7713c640a7260882fbf7c69e",
        "gas": "0x11d77",
        "value": "0x0",
        "input": "0x6ae51aad0000000000000000000000000000000000000000000000000000000000000001",
        "nonce": "0x1a",
        "chainId": "0xaa36a7"
      },
      "additionalContracts": [],
      "isFixedGasLimit": false
    },
    {
      "hash": "0x84008ae3cf0ac48a5fcb9b48bd4b437b73b5c8842ff07e7cab619e5d5bc51c88",
      "transactionType": "CALL",
      "contractName": null,
      "contractAddress": "0x442aba13fabddf4b7713c640a7260882fbf7c69e",
      "function": "approveReceivable(uint256)",
      "arguments": [
        "2"
      ],
      "transaction": {
        "from": "0x6f9d1a63cd0233d4a6e816342ccd094f7d265f2a",
        "to": "0x442aba13fabddf4b7713c640a7260882fbf7c69e",
        "gas": "0x11d77",
        "value": "0x0",
        "input": "0x6ae51aad0000000000000000000000000000000000000000000000000000000000000002",
        "nonce": "0x1b",
        "chainId": "0xaa36a7"
      },
      "additionalContracts": [],
      "isFixedGasLimit": false
    },
    {
      "hash": "0xc9e50a42d8b244302db0b81b36ca9dc9d8f911413ee8eef966c47a6ca64426b2",
      "transactionType": "CALL",
      "contractName": "CreditFacility",
      "contractAddress": "0x115bbeb80311945b96315bab65dab16c9d52141f",
      "function": "applyForCredit(uint256)",
      "arguments": [
        "0"
      ],
      "transaction": {
        "from": "0x6f9d1a63cd0233d4a6e816342ccd094f7d265f2a",
        "to": "0x115bbeb80311945b96315bab65dab16c9d52141f",
        "gas": "0x5b6cf",
        "value": "0x0",
        "input": "0xd03604cf0000000000000000000000000000000000000000000000000000000000000000",
        "nonce": "0x1c",
        "chainId": "0xaa36a7"
      },
      "additionalContracts": [],
      "isFixedGasLimit": false
    },
    {
      "hash": "0x9f6971879e9b0f96435f3fb94c9e487f995473d93cf9da8bd2ddbf04d4bcd0b3",
      "transactionType": "CALL",
      "contractName": "CreditFacility",
      "contractAddress": "0x115bbeb80311945b96315bab65dab16c9d52141f",
      "function": "applyForCredit(uint256)",
      "arguments": [
        "1"
      ],
      "transaction": {
        "from": "0x6f9d1a63cd0233d4a6e816342ccd094f7d265f2a",
        "to": "0x115bbeb80311945b96315bab65dab16c9d52141f",
        "gas": "0x61ced",
        "value": "0x0",
        "input": "0xd03604cf0000000000000000000000000000000000000000000000000000000000000001",
        "nonce": "0x1d",
        "chainId": "0xaa36a7"
      },
      "additionalContracts": [],
      "isFixedGasLimit": false
    },
    {
      "hash": "0x428770dd96da2261c71465adc588ece64d80da2dd223622337e509f484e52a50",
      "transactionType": "CALL",
      "contractName": "CreditFacility",
      "contractAddress": "0x115bbeb80311945b96315bab65dab16c9d52141f",
      "function": "applyForCredit(uint256)",
      "arguments": [
        "2"
      ],
      "transaction": {
        "from": "0x6f9d1a63cd0233d4a6e816342ccd094f7d265f2a",
        "to": "0x115bbeb80311945b96315bab65dab16c9d52141f",
        "gas": "0x61ced",
        "value": "0x0",
        "input": "0xd03604cf0000000000000000000000000000000000000000000000000000000000000002",
        "nonce": "0x1e",
        "chainId": "0xaa36a7"
      },
      "additionalContracts": [],
      "isFixedGasLimit": false
    },
    {
      "hash": "0x0c88f1865d7e41cf6b90f3099e5d112291f6268432fb7921eefffe7dee7de0a1",
      "transactionType": "CALL",
      "contractName": "CreditFacility",
      "contractAddress": "0x115bbeb80311945b96315bab65dab16c9d52141f",
      "function": "drawdown(uint256,uint256)",
      "arguments": [
        "0",
        "60000000000"
      ],
      "transaction": {
        "from": "0x6f9d1a63cd0233d4a6e816342ccd094f7d265f2a",
        "to": "0x115bbeb80311945b96315bab65dab16c9d52141f",
        "gas": "0x44857",
        "value": "0x0",
        "input": "0x5d7621c700000000000000000000000000000000000000000000000000000000000000000000000000000000000000000000000000000000000000000000000df8475800",
        "nonce": "0x1f",
        "chainId": "0xaa36a7"
      },
      "additionalContracts": [],
      "isFixedGasLimit": false
    },
    {
      "hash": "0x8855ce0f9c1500858ed5d7de5b413ffebaa72dcd4847aa37ac1ac69a085506b7",
      "transactionType": "CALL",
      "contractName": "CreditFacility",
      "contractAddress": "0x115bbeb80311945b96315bab65dab16c9d52141f",
      "function": "drawdown(uint256,uint256)",
      "arguments": [
        "2",
        "20000000000"
      ],
      "transaction": {
        "from": "0x6f9d1a63cd0233d4a6e816342ccd094f7d265f2a",
        "to": "0x115bbeb80311945b96315bab65dab16c9d52141f",
        "gas": "0x38fe2",
        "value": "0x0",
        "input": "0x5d7621c7000000000000000000000000000000000000000000000000000000000000000200000000000000000000000000000000000000000000000000000004a817c800",
        "nonce": "0x20",
        "chainId": "0xaa36a7"
      },
      "additionalContracts": [],
      "isFixedGasLimit": false
    },
    {
      "hash": "0x44affce126e17c76c3fff5da3ec98655617fdbd01b65d1dbaa450f65fccdc1ba",
      "transactionType": "CALL",
      "contractName": "CreditFacility",
      "contractAddress": "0x115bbeb80311945b96315bab65dab16c9d52141f",
      "function": "repay(uint256,uint256)",
      "arguments": [
        "2",
        "20000000000"
      ],
      "transaction": {
        "from": "0x6f9d1a63cd0233d4a6e816342ccd094f7d265f2a",
        "to": "0x115bbeb80311945b96315bab65dab16c9d52141f",
        "gas": "0x40f3e",
        "value": "0x0",
        "input": "0xd8aed145000000000000000000000000000000000000000000000000000000000000000200000000000000000000000000000000000000000000000000000004a817c800",
        "nonce": "0x21",
        "chainId": "0xaa36a7"
      },
      "additionalContracts": [],
      "isFixedGasLimit": false
    }
  ],
  "receipts": [
    {
      "status": "0x1",
      "cumulativeGasUsed": "0x178629c",
      "logs": [
        {
          "address": "0x05485f6f04bf7819446b91b7c0007cf4c3c8af3c",
          "topics": [
            "0xddf252ad1be2c89b69c2b068fc378daa952ba7f163c4a11628f55a4df523b3ef",
            "0x0000000000000000000000000000000000000000000000000000000000000000",
            "0x0000000000000000000000006f9d1a63cd0233d4a6e816342ccd094f7d265f2a"
          ],
          "data": "0x0000000000000000000000000000000000000000000000000000003a35294400",
          "blockHash": "0xd49b60fb0135da0648bbf3ac8b51694c6c8375bf8e00e317cfd3ca4455dd471d",
          "blockNumber": "0xa41362",
          "blockTimestamp": "0x69f169bc",
          "transactionHash": "0x1cc592dbc1288f4fe2c5adb49ad6878db6d549e12b33e90190ea20e165295bbe",
          "transactionIndex": "0x70",
          "logIndex": "0x211",
          "removed": false
        }
      ],
      "logsBloom": "0x00000000000000000000000000000000000000000000000000000000000002000000000000000000000000000000000000000000000000000000000000000000000000000000000000000008000000000200000000000000000000000000000000000000020000000000000001000900000000000000000000000010000000000000000000000000000000000000000000000000000000000000000000000000000000000000000000000000000000000000000000000000002000000000000000000002000000000000000000000000000000000000000000000000000020000000000000000100000000000000000000000000000000000000000000000000",
      "type": "0x2",
      "transactionHash": "0x1cc592dbc1288f4fe2c5adb49ad6878db6d549e12b33e90190ea20e165295bbe",
      "transactionIndex": "0x70",
      "blockHash": "0xd49b60fb0135da0648bbf3ac8b51694c6c8375bf8e00e317cfd3ca4455dd471d",
      "blockNumber": "0xa41362",
      "gasUsed": "0x10b27",
      "effectiveGasPrice": "0x237fad9",
      "from": "0x6f9d1a63cd0233d4a6e816342ccd094f7d265f2a",
      "to": "0x05485f6f04bf7819446b91b7c0007cf4c3c8af3c",
      "contractAddress": null
    },
    {
      "status": "0x1",
      "cumulativeGasUsed": "0x178e82b",
      "logs": [
        {
          "address": "0x05485f6f04bf7819446b91b7c0007cf4c3c8af3c",
          "topics": [
            "0xddf252ad1be2c89b69c2b068fc378daa952ba7f163c4a11628f55a4df523b3ef",
            "0x0000000000000000000000000000000000000000000000000000000000000000",
            "0x0000000000000000000000006f9d1a63cd0233d4a6e816342ccd094f7d265f2a"
          ],
          "data": "0x000000000000000000000000000000000000000000000000000000174876e800",
          "blockHash": "0xd49b60fb0135da0648bbf3ac8b51694c6c8375bf8e00e317cfd3ca4455dd471d",
          "blockNumber": "0xa41362",
          "blockTimestamp": "0x69f169bc",
          "transactionHash": "0xea1fd5150d43ab19f5e953f90bbfb349505beba1690399eb88f607c7a37597d5",
          "transactionIndex": "0x71",
          "logIndex": "0x212",
          "removed": false
        }
      ],
      "logsBloom": "0x00000000000000000000000000000000000000000000000000000000000002000000000000000000000000000000000000000000000000000000000000000000000000000000000000000008000000000200000000000000000000000000000000000000020000000000000001000900000000000000000000000010000000000000000000000000000000000000000000000000000000000000000000000000000000000000000000000000000000000000000000000000002000000000000000000002000000000000000000000000000000000000000000000000000020000000000000000100000000000000000000000000000000000000000000000000",
      "type": "0x2",
      "transactionHash": "0xea1fd5150d43ab19f5e953f90bbfb349505beba1690399eb88f607c7a37597d5",
      "transactionIndex": "0x71",
      "blockHash": "0xd49b60fb0135da0648bbf3ac8b51694c6c8375bf8e00e317cfd3ca4455dd471d",
      "blockNumber": "0xa41362",
      "gasUsed": "0x858f",
      "effectiveGasPrice": "0x237fad9",
      "from": "0x6f9d1a63cd0233d4a6e816342ccd094f7d265f2a",
      "to": "0x05485f6f04bf7819446b91b7c0007cf4c3c8af3c",
      "contractAddress": null
    },
    {
      "status": "0x1",
      "cumulativeGasUsed": "0x179fcdd",
      "logs": [
        {
          "address": "0x67cf40fe269f79ac7dc8edb23561e3ead171e3c9",
          "topics": [
            "0xddf252ad1be2c89b69c2b068fc378daa952ba7f163c4a11628f55a4df523b3ef",
            "0x0000000000000000000000000000000000000000000000000000000000000000",
            "0x0000000000000000000000006f9d1a63cd0233d4a6e816342ccd094f7d265f2a"
          ],
          "data": "0x00000000000000000000000000000000000000000000006c6b935b8bbd400000",
          "blockHash": "0xd49b60fb0135da0648bbf3ac8b51694c6c8375bf8e00e317cfd3ca4455dd471d",
          "blockNumber": "0xa41362",
          "blockTimestamp": "0x69f169bc",
          "transactionHash": "0xe8226365376ebc6df9f4c52bf90752acd20561ca97e277aa53a0506fcada1bf8",
          "transactionIndex": "0x72",
          "logIndex": "0x213",
          "removed": false
        }
      ],
      "logsBloom": "0x00000000000000000002000000000000000000000000000000000000000002000000000000000000000000000000000000000000000000000000000000000000000000002000000000000008000000000000000000000000000000000000000000000000020000000000000001000800000000000000000000000010000000000000000000000000000000000000000000000000000000000000000000000000000000000000000000000000000000000000000000000000002000000000000000000002000000000000000000000000000000000000400000000000000020000000000000000000000000000000000000000000000000000000000000000000",
      "type": "0x2",
      "transactionHash": "0xe8226365376ebc6df9f4c52bf90752acd20561ca97e277aa53a0506fcada1bf8",
      "transactionIndex": "0x72",
      "blockHash": "0xd49b60fb0135da0648bbf3ac8b51694c6c8375bf8e00e317cfd3ca4455dd471d",
      "blockNumber": "0xa41362",
      "gasUsed": "0x114b2",
      "effectiveGasPrice": "0x237fad9",
      "from": "0x6f9d1a63cd0233d4a6e816342ccd094f7d265f2a",
      "to": "0x67cf40fe269f79ac7dc8edb23561e3ead171e3c9",
      "contractAddress": null
    },
    {
      "status": "0x1",
      "cumulativeGasUsed": "0x17c9405",
      "logs": [
        {
          "address": "0x442aba13fabddf4b7713c640a7260882fbf7c69e",
          "topics": [
            "0x436b2c1d7aab524ba2bbafa3b3a8f36f8e66f22db6d06d62ce288787ce0c3262",
            "0x0000000000000000000000006f9d1a63cd0233d4a6e816342ccd094f7d265f2a"
          ],
          "data": "0x0000000000000000000000000000000000000000000000000000002e90edd00000000000000000000000000000000000000000000000000000000000000005dc0000000000000000000000000000000000000000000000000000000000001770",
          "blockHash": "0xd49b60fb0135da0648bbf3ac8b51694c6c8375bf8e00e317cfd3ca4455dd471d",
          "blockNumber": "0xa41362",
          "blockTimestamp": "0x69f169bc",
          "transactionHash": "0x9dd7b133e341dab50bcee7e1539c021c5262467e040fd6359e79005043fe1797",
          "transactionIndex": "0x73",
          "logIndex": "0x214",
          "removed": false
        }
      ],
      "logsBloom": "0x00000000000000000000000000000000000000000000000000000000000002000000000000000000000000000004000000000000000000000000000000000000000000000000000000000000000000000000000000000000000000000000000000000000000000000100002001000000000000000000000000000000000000000000000000000000000000000000000000000000000000000000000000000000000000000100000000000000000000000000002000000000002000000000000000000000000000000000000000000000000000000000000000000000000000000000000000000000000000000000000000000000000200000000000000000000",
      "type": "0x2",
      "transactionHash": "0x9dd7b133e341dab50bcee7e1539c021c5262467e040fd6359e79005043fe1797",
      "transactionIndex": "0x73",
      "blockHash": "0xd49b60fb0135da0648bbf3ac8b51694c6c8375bf8e00e317cfd3ca4455dd471d",
      "blockNumber": "0xa41362",
      "gasUsed": "0x29728",
      "effectiveGasPrice": "0x237fad9",
      "from": "0x6f9d1a63cd0233d4a6e816342ccd094f7d265f2a",
      "to": "0x442aba13fabddf4b7713c640a7260882fbf7c69e",
      "contractAddress": null
    },
    {
      "status": "0x1",
      "cumulativeGasUsed": "0x17d490b",
      "logs": [
        {
          "address": "0x05485f6f04bf7819446b91b7c0007cf4c3c8af3c",
          "topics": [
            "0x8c5be1e5ebec7d5bd14f71427d1e84f3dd0314c0f7b2291e5b200ac8c7c3b925",
            "0x0000000000000000000000006f9d1a63cd0233d4a6e816342ccd094f7d265f2a",
            "0x000000000000000000000000e47e16dfe8e3feff8674534e46838461c16bfbf7"
          ],
          "data": "0x0000000000000000000000000000000000000000000000000000002e90edd000",
          "blockHash": "0xd49b60fb0135da0648bbf3ac8b51694c6c8375bf8e00e317cfd3ca4455dd471d",
          "blockNumber": "0xa41362",
          "blockTimestamp": "0x69f169bc",
          "transactionHash": "0x7be35cf053de321b1d7770de949a8659bcf6cccfa317e12d97491b56ba823389",
          "transactionIndex": "0x74",
          "logIndex": "0x215",
          "removed": false
        }
      ],
      "logsBloom": "0x00000000000000000000000000000000000000000000040000000000000002000000000000000000000000000000000000000000000000000000000000200000000000000000000000000000000000000200000000000000000000000000000000000000000000000000000001000100000000000000000000000000004000000000000000000000000000000000000000000000000000000000000000000000020000000000000000000000000000000000000000000000002000000000000000000000000000000000000000000000000000000000000000000000000000000010000000000100000000000000000000000000000000000000000000000000",
      "type": "0x2",
      "transactionHash": "0x7be35cf053de321b1d7770de949a8659bcf6cccfa317e12d97491b56ba823389",
      "transactionIndex": "0x74",
      "blockHash": "0xd49b60fb0135da0648bbf3ac8b51694c6c8375bf8e00e317cfd3ca4455dd471d",
      "blockNumber": "0xa41362",
      "gasUsed": "0xb506",
      "effectiveGasPrice": "0x237fad9",
      "from": "0x6f9d1a63cd0233d4a6e816342ccd094f7d265f2a",
      "to": "0x05485f6f04bf7819446b91b7c0007cf4c3c8af3c",
      "contractAddress": null
    },
    {
      "status": "0x1",
      "cumulativeGasUsed": "0x17f104d",
      "logs": [
        {
          "address": "0x05485f6f04bf7819446b91b7c0007cf4c3c8af3c",
          "topics": [
            "0xddf252ad1be2c89b69c2b068fc378daa952ba7f163c4a11628f55a4df523b3ef",
            "0x0000000000000000000000006f9d1a63cd0233d4a6e816342ccd094f7d265f2a",
            "0x000000000000000000000000e47e16dfe8e3feff8674534e46838461c16bfbf7"
          ],
          "data": "0x0000000000000000000000000000000000000000000000000000002e90edd000",
          "blockHash": "0xd49b60fb0135da0648bbf3ac8b51694c6c8375bf8e00e317cfd3ca4455dd471d",
          "blockNumber": "0xa41362",
          "blockTimestamp": "0x69f169bc",
          "transactionHash": "0x5e56986f550c26a8cdef018c16d7e5e8d88a21b776923d5beeb5b5a93bdbf941",
          "transactionIndex": "0x75",
          "logIndex": "0x216",
          "removed": false
        },
        {
          "address": "0xe47e16dfe8e3feff8674534e46838461c16bfbf7",
          "topics": [
            "0xddf252ad1be2c89b69c2b068fc378daa952ba7f163c4a11628f55a4df523b3ef",
            "0x0000000000000000000000000000000000000000000000000000000000000000",
            "0x0000000000000000000000006f9d1a63cd0233d4a6e816342ccd094f7d265f2a"
          ],
          "data": "0x0000000000000000000000000000000000000000000000000000002e90edd000",
          "blockHash": "0xd49b60fb0135da0648bbf3ac8b51694c6c8375bf8e00e317cfd3ca4455dd471d",
          "blockNumber": "0xa41362",
          "blockTimestamp": "0x69f169bc",
          "transactionHash": "0x5e56986f550c26a8cdef018c16d7e5e8d88a21b776923d5beeb5b5a93bdbf941",
          "transactionIndex": "0x75",
          "logIndex": "0x217",
          "removed": false
        },
        {
          "address": "0xe47e16dfe8e3feff8674534e46838461c16bfbf7",
          "topics": [
            "0xdcbc1c05240f31ff3ad067ef1ee35ce4997762752e3a095284754544f4c709d7",
            "0x0000000000000000000000006f9d1a63cd0233d4a6e816342ccd094f7d265f2a",
            "0x0000000000000000000000006f9d1a63cd0233d4a6e816342ccd094f7d265f2a"
          ],
          "data": "0x0000000000000000000000000000000000000000000000000000002e90edd0000000000000000000000000000000000000000000000000000000002e90edd000",
          "blockHash": "0xd49b60fb0135da0648bbf3ac8b51694c6c8375bf8e00e317cfd3ca4455dd471d",
          "blockNumber": "0xa41362",
          "blockTimestamp": "0x69f169bc",
          "transactionHash": "0x5e56986f550c26a8cdef018c16d7e5e8d88a21b776923d5beeb5b5a93bdbf941",
          "transactionIndex": "0x75",
          "logIndex": "0x218",
          "removed": false
        }
      ],
      "logsBloom": "0x00000000000000000000000000000000000000000000040000000000000002000000000000000000000000000000000000000000000000000000000000000000000000400000000000000008000000000200000000000080000000000000000000000000020000000000000001000900000000000004000000000010004000000000000000000000000000000000000000000000000000000200000000000000000000000000000000000000000000000002000000000000002000000000000000000002000000000000000000000000000000000008000000000000000020000000000000000100000000000000000000000000000000000000000000000000",
      "type": "0x2",
      "transactionHash": "0x5e56986f550c26a8cdef018c16d7e5e8d88a21b776923d5beeb5b5a93bdbf941",
      "transactionIndex": "0x75",
      "blockHash": "0xd49b60fb0135da0648bbf3ac8b51694c6c8375bf8e00e317cfd3ca4455dd471d",
      "blockNumber": "0xa41362",
      "gasUsed": "0x1c742",
      "effectiveGasPrice": "0x237fad9",
      "from": "0x6f9d1a63cd0233d4a6e816342ccd094f7d265f2a",
      "to": "0xe47e16dfe8e3feff8674534e46838461c16bfbf7",
      "contractAddress": null
    },
    {
      "status": "0x1",
      "cumulativeGasUsed": "0x17fc6a3",
      "logs": [
        {
          "address": "0x05485f6f04bf7819446b91b7c0007cf4c3c8af3c",
          "topics": [
            "0x8c5be1e5ebec7d5bd14f71427d1e84f3dd0314c0f7b2291e5b200ac8c7c3b925",
            "0x0000000000000000000000006f9d1a63cd0233d4a6e816342ccd094f7d265f2a",
            "0x000000000000000000000000115bbeb80311945b96315bab65dab16c9d52141f"
          ],
          "data": "0xffffffffffffffffffffffffffffffffffffffffffffffffffffffffffffffff",
          "blockHash": "0xd49b60fb0135da0648bbf3ac8b51694c6c8375bf8e00e317cfd3ca4455dd471d",
          "blockNumber": "0xa41362",
          "blockTimestamp": "0x69f169bc",
          "transactionHash": "0x84008ae3cf0ac48a5fcb9b48bd4b437b73b5c8842ff07e7cab619e5d5bc51c88",
          "transactionIndex": "0x76",
          "logIndex": "0x219",
          "removed": false
        }
      ],
      "logsBloom": "0x00000000000000000000000000000000000000000000000000000000000002000000000000000000000000000000000000000000000000000000000000200000000000000000000000020000000000000200000000000000000000000000000000000000000000000000000001000100000000000001000000000000000000000000000000000000000000000000000000000000000000000000000000000000020000000000000000000000008000000000000000000000002000000000000000000000000000000000000000000000000000000000000000000000000000000010000000000100000000000000000000000000000000000000000000000000",
      "type": "0x2",
      "transactionHash": "0x84008ae3cf0ac48a5fcb9b48bd4b437b73b5c8842ff07e7cab619e5d5bc51c88",
      "transactionIndex": "0x76",
      "blockHash": "0xd49b60fb0135da0648bbf3ac8b51694c6c8375bf8e00e317cfd3ca4455dd471d",
      "blockNumber": "0xa41362",
      "gasUsed": "0xb656",
      "effectiveGasPrice": "0x237fad9",
      "from": "0x6f9d1a63cd0233d4a6e816342ccd094f7d265f2a",
      "to": "0x05485f6f04bf7819446b91b7c0007cf4c3c8af3c",
      "contractAddress": null
    },
    {
      "status": "0x1",
      "cumulativeGasUsed": "0x1835d91",
      "logs": [
        {
          "address": "0x8cc4882e0217da00ae27952699e6a07d0db59c99",
          "topics": [
            "0xddf252ad1be2c89b69c2b068fc378daa952ba7f163c4a11628f55a4df523b3ef",
            "0x0000000000000000000000000000000000000000000000000000000000000000",
            "0x0000000000000000000000006f9d1a63cd0233d4a6e816342ccd094f7d265f2a",
            "0x0000000000000000000000000000000000000000000000000000000000000000"
          ],
          "data": "0x",
          "blockHash": "0xd49b60fb0135da0648bbf3ac8b51694c6c8375bf8e00e317cfd3ca4455dd471d",
          "blockNumber": "0xa41362",
          "blockTimestamp": "0x69f169bc",
          "transactionHash": "0x95e424fbe38ede565f7676a0b70cb5a23907226f44a414c8a77a9aadc74a51a8",
          "transactionIndex": "0x77",
          "logIndex": "0x21a",
          "removed": false
        },
        {
          "address": "0x8cc4882e0217da00ae27952699e6a07d0db59c99",
          "topics": [
            "0x73eb342d920a61f8fc4f548092bde8a326851e9de56f113fa026460a82493404",
            "0x0000000000000000000000000000000000000000000000000000000000000000",
            "0x0000000000000000000000006f9d1a63cd0233d4a6e816342ccd094f7d265f2a"
          ],
          "data": "0x000000000000000000000000000000000000000000000000000000174876e800000000000000000000000000000000000000000000000000000000006a40838c",
          "blockHash": "0xd49b60fb0135da0648bbf3ac8b51694c6c8375bf8e00e317cfd3ca4455dd471d",
          "blockNumber": "0xa41362",
          "blockTimestamp": "0x69f169bc",
          "transactionHash": "0x95e424fbe38ede565f7676a0b70cb5a23907226f44a414c8a77a9aadc74a51a8",
          "transactionIndex": "0x77",
          "logIndex": "0x21b",
          "removed": false
        }
      ],
      "logsBloom": "0x0000000000000000000000000000000000000000000000000000000000000200000000000000000000000000000000000000000000000000000000000000000000000000000000000000000800000000000000000000000000000000000000000000000002000000000000800100080000000000000000000000001000000000000000000000000000000200000000000000000000000000000000000000000000000000800000000000000000000000000000000000000000201000000000000000000a000000000000000000000000000000000000000000000000000020000000000000000000000000020000000000000000000000000000000000000000",
      "type": "0x2",
      "transactionHash": "0x95e424fbe38ede565f7676a0b70cb5a23907226f44a414c8a77a9aadc74a51a8",
      "transactionIndex": "0x77",
      "blockHash": "0xd49b60fb0135da0648bbf3ac8b51694c6c8375bf8e00e317cfd3ca4455dd471d",
      "blockNumber": "0xa41362",
      "gasUsed": "0x396ee",
      "effectiveGasPrice": "0x237fad9",
      "from": "0x6f9d1a63cd0233d4a6e816342ccd094f7d265f2a",
      "to": "0x8cc4882e0217da00ae27952699e6a07d0db59c99",
      "contractAddress": null
    },
    {
      "status": "0x1",
      "cumulativeGasUsed": "0x1866eff",
      "logs": [
        {
          "address": "0x8cc4882e0217da00ae27952699e6a07d0db59c99",
          "topics": [
            "0xddf252ad1be2c89b69c2b068fc378daa952ba7f163c4a11628f55a4df523b3ef",
            "0x0000000000000000000000000000000000000000000000000000000000000000",
            "0x0000000000000000000000006f9d1a63cd0233d4a6e816342ccd094f7d265f2a",
            "0x0000000000000000000000000000000000000000000000000000000000000001"
          ],
          "data": "0x",
          "blockHash": "0xd49b60fb0135da0648bbf3ac8b51694c6c8375bf8e00e317cfd3ca4455dd471d",
          "blockNumber": "0xa41362",
          "blockTimestamp": "0x69f169bc",
          "transactionHash": "0x1978ed8542b9b16284818409b8d584c07d4777ad899c846d059010db93c83c8e",
          "transactionIndex": "0x78",
          "logIndex": "0x21c",
          "removed": false
        },
        {
          "address": "0x8cc4882e0217da00ae27952699e6a07d0db59c99",
          "topics": [
            "0x73eb342d920a61f8fc4f548092bde8a326851e9de56f113fa026460a82493404",
            "0x0000000000000000000000000000000000000000000000000000000000000001",
            "0x0000000000000000000000006f9d1a63cd0233d4a6e816342ccd094f7d265f2a"
          ],
          "data": "0x00000000000000000000000000000000000000000000000000000012a05f2000000000000000000000000000000000000000000000000000000000006a544a0c",
          "blockHash": "0xd49b60fb0135da0648bbf3ac8b51694c6c8375bf8e00e317cfd3ca4455dd471d",
          "blockNumber": "0xa41362",
          "blockTimestamp": "0x69f169bc",
          "transactionHash": "0x1978ed8542b9b16284818409b8d584c07d4777ad899c846d059010db93c83c8e",
          "transactionIndex": "0x78",
          "logIndex": "0x21d",
          "removed": false
        }
      ],
      "logsBloom": "0x0000000000000000000000000000000000000000000000000000000000000200000000000000000000000000000000000000000000000000000000000004000000000000000000000000000800000000000000000004000000000000000000000000000002000000000000800100080000000000000000000000001000000000000000000000000000000200000000000000000000000000000000000000000000000000800000000000000000000000000000000000000000201000000000000000000a000000000000000000000000000000000000000000000000000060000000000000000000000000020000000000000000000000000000000000000000",
      "type": "0x2",
      "transactionHash": "0x1978ed8542b9b16284818409b8d584c07d4777ad899c846d059010db93c83c8e",
      "transactionIndex": "0x78",
      "blockHash": "0xd49b60fb0135da0648bbf3ac8b51694c6c8375bf8e00e317cfd3ca4455dd471d",
      "blockNumber": "0xa41362",
      "gasUsed": "0x3116e",
      "effectiveGasPrice": "0x237fad9",
      "from": "0x6f9d1a63cd0233d4a6e816342ccd094f7d265f2a",
      "to": "0x8cc4882e0217da00ae27952699e6a07d0db59c99",
      "contractAddress": null
    },
    {
      "status": "0x1",
      "cumulativeGasUsed": "0x1898055",
      "logs": [
        {
          "address": "0x8cc4882e0217da00ae27952699e6a07d0db59c99",
          "topics": [
            "0xddf252ad1be2c89b69c2b068fc378daa952ba7f163c4a11628f55a4df523b3ef",
            "0x0000000000000000000000000000000000000000000000000000000000000000",
            "0x0000000000000000000000006f9d1a63cd0233d4a6e816342ccd094f7d265f2a",
            "0x0000000000000000000000000000000000000000000000000000000000000002"
          ],
          "data": "0x",
          "blockHash": "0xd49b60fb0135da0648bbf3ac8b51694c6c8375bf8e00e317cfd3ca4455dd471d",
          "blockNumber": "0xa41362",
          "blockTimestamp": "0x69f169bc",
          "transactionHash": "0x1f6fc1a4ee450ef3b474dcb8090451dd694e37ebbbb9c56b58d78dc72d98ce11",
          "transactionIndex": "0x79",
          "logIndex": "0x21e",
          "removed": false
        },
        {
          "address": "0x8cc4882e0217da00ae27952699e6a07d0db59c99",
          "topics": [
            "0x73eb342d920a61f8fc4f548092bde8a326851e9de56f113fa026460a82493404",
            "0x0000000000000000000000000000000000000000000000000000000000000002",
            "0x0000000000000000000000006f9d1a63cd0233d4a6e816342ccd094f7d265f2a"
          ],
          "data": "0x00000000000000000000000000000000000000000000000000000009502f9000000000000000000000000000000000000000000000000000000000006a18f68c",
          "blockHash": "0xd49b60fb0135da0648bbf3ac8b51694c6c8375bf8e00e317cfd3ca4455dd471d",
          "blockNumber": "0xa41362",
          "blockTimestamp": "0x69f169bc",
          "transactionHash": "0x1f6fc1a4ee450ef3b474dcb8090451dd694e37ebbbb9c56b58d78dc72d98ce11",
          "transactionIndex": "0x79",
          "logIndex": "0x21f",
          "removed": false
        }
      ],
      "logsBloom": "0x0400000000000000000000000000000000000000000000000000000000000200000000000000000000000000000000000000000000000000000000000000000000000000000000000000000800000000000000000000000000000000000000000000000002000000000000800100080000000000000000000000001000000000000000000000000000000200000000000000000000000000000000000000000000000000800000000000010000000000000000000000000000201000000000000000000a000000000000000000000000000000000000000000000000000020000000000000000000000000020000000000000000008000000000000000000000",
      "type": "0x2",
      "transactionHash": "0x1f6fc1a4ee450ef3b474dcb8090451dd694e37ebbbb9c56b58d78dc72d98ce11",
      "transactionIndex": "0x79",
      "blockHash": "0xd49b60fb0135da0648bbf3ac8b51694c6c8375bf8e00e317cfd3ca4455dd471d",
      "blockNumber": "0xa41362",
      "gasUsed": "0x31156",
      "effectiveGasPrice": "0x237fad9",
      "from": "0x6f9d1a63cd0233d4a6e816342ccd094f7d265f2a",
      "to": "0x8cc4882e0217da00ae27952699e6a07d0db59c99",
      "contractAddress": null
    },
    {
      "status": "0x1",
      "cumulativeGasUsed": "0x18a4ef6",
      "logs": [
        {
          "address": "0x8cc4882e0217da00ae27952699e6a07d0db59c99",
          "topics": [
            "0x9e95a55e57a81124d2879b79962dae944ee917f98ca302ea9dfe572f12436d14",
            "0x0000000000000000000000000000000000000000000000000000000000000000"
          ],
          "data": "0x",
          "blockHash": "0xd49b60fb0135da0648bbf3ac8b51694c6c8375bf8e00e317cfd3ca4455dd471d",
          "blockNumber": "0xa41362",
          "blockTimestamp": "0x69f169bc",
          "transactionHash": "0x9f0205ab18db44df8ca00db503dd4f3083193dea22aad452b5f2a6c405e34979",
          "transactionIndex": "0x7a",
          "logIndex": "0x220",
          "removed": false
        }
      ],
      "logsBloom": "0x00000000000000000000000000000000000000000000000004000000000000000000000000000000000000000000000000000000000000000000000000000000000000000000000000000000000000000000000000000000000000000000000000000000020000000000008000000800000000000000000000000000000000000000000000000000000002000000000000000000000000000000000000000000000000000000000000000000000000000000000000000000000000000000000000000000800000000000000000000000000000000000000002000000000020000000000000000000000000020000000000000000000000000000000000000000",
      "type": "0x2",
      "transactionHash": "0x9f0205ab18db44df8ca00db503dd4f3083193dea22aad452b5f2a6c405e34979",
      "transactionIndex": "0x7a",
      "blockHash": "0xd49b60fb0135da0648bbf3ac8b51694c6c8375bf8e00e317cfd3ca4455dd471d",
      "blockNumber": "0xa41362",
      "gasUsed": "0xcea1",
      "effectiveGasPrice": "0x237fad9",
      "from": "0x6f9d1a63cd0233d4a6e816342ccd094f7d265f2a",
      "to": "0x442aba13fabddf4b7713c640a7260882fbf7c69e",
      "contractAddress": null
    },
    {
      "status": "0x1",
      "cumulativeGasUsed": "0x18b1da3",
      "logs": [
        {
          "address": "0x8cc4882e0217da00ae27952699e6a07d0db59c99",
          "topics": [
            "0x9e95a55e57a81124d2879b79962dae944ee917f98ca302ea9dfe572f12436d14",
            "0x0000000000000000000000000000000000000000000000000000000000000001"
          ],
          "data": "0x",
          "blockHash": "0xd49b60fb0135da0648bbf3ac8b51694c6c8375bf8e00e317cfd3ca4455dd471d",
          "blockNumber": "0xa41362",
          "blockTimestamp": "0x69f169bc",
          "transactionHash": "0xbf1b6122157a48863f702eeb2464f7f6e89f88809e13397e29c0c8b032d20613",
          "transactionIndex": "0x7b",
          "logIndex": "0x221",
          "removed": false
        }
      ],
      "logsBloom": "0x00000000000000000000000000000000000000000000000004000000000000000000000000000000000000000000000000000000000000000000000000040000000000000000000000000000000000000000000000040000000000000000000000000000000000000000008000000000000000000000000000000000000000000000000000000000000002000000000000000000000000000000000000000000000000000000000000000000000000000000000000000000000000000000000000000000800000000000000000000000000000000000000002000000000040000000000000000000000000020000000000000000000000000000000000000000",
      "type": "0x2",
      "transactionHash": "0xbf1b6122157a48863f702eeb2464f7f6e89f88809e13397e29c0c8b032d20613",
      "transactionIndex": "0x7b",
      "blockHash": "0xd49b60fb0135da0648bbf3ac8b51694c6c8375bf8e00e317cfd3ca4455dd471d",
      "blockNumber": "0xa41362",
      "gasUsed": "0xcead",
      "effectiveGasPrice": "0x237fad9",
      "from": "0x6f9d1a63cd0233d4a6e816342ccd094f7d265f2a",
      "to": "0x442aba13fabddf4b7713c640a7260882fbf7c69e",
      "contractAddress": null
    },
    {
      "status": "0x1",
      "cumulativeGasUsed": "0x18bec50",
      "logs": [
        {
          "address": "0x8cc4882e0217da00ae27952699e6a07d0db59c99",
          "topics": [
            "0x9e95a55e57a81124d2879b79962dae944ee917f98ca302ea9dfe572f12436d14",
            "0x0000000000000000000000000000000000000000000000000000000000000002"
          ],
          "data": "0x",
          "blockHash": "0xd49b60fb0135da0648bbf3ac8b51694c6c8375bf8e00e317cfd3ca4455dd471d",
          "blockNumber": "0xa41362",
          "blockTimestamp": "0x69f169bc",
          "transactionHash": "0x552be1bf5252393d8227d28e566047c233d2eca805faf16277113dfff240ccc2",
          "transactionIndex": "0x7c",
          "logIndex": "0x222",
          "removed": false
        }
      ],
      "logsBloom": "0x04000000000000000000000000000000000000000000000004000000000000000000000000000000000000000000000000000000000000000000000000000000000000000000000000000000000000000000000000000000000000000000000000000000000000000000008000000000000000000000000000000000000000000000000000000000000002000000000000000000000000000000000000000000000000000000000000000100000000000000000000000000000000000000000000000000800000000000000000000000000000000000000002000000000000000000000000000000000000020000000000000000008000000000000000000000",
      "type": "0x2",
      "transactionHash": "0x552be1bf5252393d8227d28e566047c233d2eca805faf16277113dfff240ccc2",
      "transactionIndex": "0x7c",
      "blockHash": "0xd49b60fb0135da0648bbf3ac8b51694c6c8375bf8e00e317cfd3ca4455dd471d",
      "blockNumber": "0xa41362",
      "gasUsed": "0xcead",
      "effectiveGasPrice": "0x237fad9",
      "from": "0x6f9d1a63cd0233d4a6e816342ccd094f7d265f2a",
      "to": "0x442aba13fabddf4b7713c640a7260882fbf7c69e",
      "contractAddress": null
    },
    {
      "status": "0x1",
      "cumulativeGasUsed": "0x1900f5d",
      "logs": [
        {
          "address": "0x115bbeb80311945b96315bab65dab16c9d52141f",
          "topics": [
            "0xdb4798dd12ae49eda0c23c3086aabb22fb4cfdf25ece86881769b768d3efd32f",
            "0x0000000000000000000000000000000000000000000000000000000000000000",
            "0x0000000000000000000000006f9d1a63cd0233d4a6e816342ccd094f7d265f2a"
          ],
          "data": "0x00000000000000000000000000000000000000000000000000000000000000000000000000000000000000000000000000000000000000000000000df8475800",
          "blockHash": "0xd49b60fb0135da0648bbf3ac8b51694c6c8375bf8e00e317cfd3ca4455dd471d",
          "blockNumber": "0xa41362",
          "blockTimestamp": "0x69f169bc",
          "transactionHash": "0x8855ce0f9c1500858ed5d7de5b413ffebaa72dcd4847aa37ac1ac69a085506b7",
          "transactionIndex": "0x7d",
          "logIndex": "0x223",
          "removed": false
        },
        {
          "address": "0x115bbeb80311945b96315bab65dab16c9d52141f",
          "topics": [
            "0x0b2ef56770d1730a9de1e5ea6fc5844147fcbf76ffe97aff81e6bd889ec280a7",
            "0x0000000000000000000000000000000000000000000000000000000000000000"
          ],
          "data": "0x",
          "blockHash": "0xd49b60fb0135da0648bbf3ac8b51694c6c8375bf8e00e317cfd3ca4455dd471d",
          "blockNumber": "0xa41362",
          "blockTimestamp": "0x69f169bc",
          "transactionHash": "0x8855ce0f9c1500858ed5d7de5b413ffebaa72dcd4847aa37ac1ac69a085506b7",
          "transactionIndex": "0x7d",
          "logIndex": "0x224",
          "removed": false
        }
      ],
      "logsBloom": "0x00000000000000000000000000000000000000000000000000000000000002000000000000000420000000000000000000000100000000000000000000000000000000000000000000000000000000000000000080000000000000000000000000000000020000000000000001000800000000000000000000000000000000000000000008000000000000000000000000000000000000000000000000000000000000000000000000000000000000000000000000000000002000000000000000000000000000000000000000000000000000000000000000000000000020000000000080000000002000001000001000000000000000000000000000000000",
      "type": "0x2",
      "transactionHash": "0x8855ce0f9c1500858ed5d7de5b413ffebaa72dcd4847aa37ac1ac69a085506b7",
      "transactionIndex": "0x7d",
      "blockHash": "0xd49b60fb0135da0648bbf3ac8b51694c6c8375bf8e00e317cfd3ca4455dd471d",
      "blockNumber": "0xa41362",
      "gasUsed": "0x4230d",
      "effectiveGasPrice": "0x237fad9",
      "from": "0x6f9d1a63cd0233d4a6e816342ccd094f7d265f2a",
      "to": "0x115bbeb80311945b96315bab65dab16c9d52141f",
      "contractAddress": null
    },
    {
      "status": "0x1",
      "cumulativeGasUsed": "0x1943d66",
      "logs": [
        {
          "address": "0x115bbeb80311945b96315bab65dab16c9d52141f",
          "topics": [
            "0xdb4798dd12ae49eda0c23c3086aabb22fb4cfdf25ece86881769b768d3efd32f",
            "0x0000000000000000000000000000000000000000000000000000000000000001",
            "0x0000000000000000000000006f9d1a63cd0233d4a6e816342ccd094f7d265f2a"
          ],
          "data": "0x00000000000000000000000000000000000000000000000000000000000000010000000000000000000000000000000000000000000000000000000b2d05e000",
          "blockHash": "0xd49b60fb0135da0648bbf3ac8b51694c6c8375bf8e00e317cfd3ca4455dd471d",
          "blockNumber": "0xa41362",
          "blockTimestamp": "0x69f169bc",
          "transactionHash": "0x9f6971879e9b0f96435f3fb94c9e487f995473d93cf9da8bd2ddbf04d4bcd0b3",
          "transactionIndex": "0x7e",
          "logIndex": "0x225",
          "removed": false
        },
        {
          "address": "0x115bbeb80311945b96315bab65dab16c9d52141f",
          "topics": [
            "0x0b2ef56770d1730a9de1e5ea6fc5844147fcbf76ffe97aff81e6bd889ec280a7",
            "0x0000000000000000000000000000000000000000000000000000000000000001"
          ],
          "data": "0x",
          "blockHash": "0xd49b60fb0135da0648bbf3ac8b51694c6c8375bf8e00e317cfd3ca4455dd471d",
          "blockNumber": "0xa41362",
          "blockTimestamp": "0x69f169bc",
          "transactionHash": "0x9f6971879e9b0f96435f3fb94c9e487f995473d93cf9da8bd2ddbf04d4bcd0b3",
          "transactionIndex": "0x7e",
          "logIndex": "0x226",
          "removed": false
        }
      ],
      "logsBloom": "0x00000000000000000000000000000000000000000000000000000000000002000000000000000420000000000000000000000100000000000000000000040000000000000000000000000000000000000000000080040000000000000000000000000000000000000000000001000000000000000000000000000000000000000000000008000000000000000000000000000000000000000000000000000000000000000000000000000000000000000000000000000000002000000000000000000000000000000000000000000000000000000000000000000000000040000000000080000000002000001000001000000000000000000000000000000000",
      "type": "0x2",
      "transactionHash": "0x9f6971879e9b0f96435f3fb94c9e487f995473d93cf9da8bd2ddbf04d4bcd0b3",
      "transactionIndex": "0x7e",
      "blockHash": "0xd49b60fb0135da0648bbf3ac8b51694c6c8375bf8e00e317cfd3ca4455dd471d",
      "blockNumber": "0xa41362",
      "gasUsed": "0x42e09",
      "effectiveGasPrice": "0x237fad9",
      "from": "0x6f9d1a63cd0233d4a6e816342ccd094f7d265f2a",
      "to": "0x115bbeb80311945b96315bab65dab16c9d52141f",
      "contractAddress": null
    },
    {
      "status": "0x1",
      "cumulativeGasUsed": "0x1986b6f",
      "logs": [
        {
          "address": "0x115bbeb80311945b96315bab65dab16c9d52141f",
          "topics": [
            "0xdb4798dd12ae49eda0c23c3086aabb22fb4cfdf25ece86881769b768d3efd32f",
            "0x0000000000000000000000000000000000000000000000000000000000000002",
            "0x0000000000000000000000006f9d1a63cd0233d4a6e816342ccd094f7d265f2a"
          ],
          "data": "0x0000000000000000000000000000000000000000000000000000000000000002000000000000000000000000000000000000000000000000000000059682f000",
          "blockHash": "0xd49b60fb0135da0648bbf3ac8b51694c6c8375bf8e00e317cfd3ca4455dd471d",
          "blockNumber": "0xa41362",
          "blockTimestamp": "0x69f169bc",
          "transactionHash": "0xc9e50a42d8b244302db0b81b36ca9dc9d8f911413ee8eef966c47a6ca64426b2",
          "transactionIndex": "0x7f",
          "logIndex": "0x227",
          "removed": false
        },
        {
          "address": "0x115bbeb80311945b96315bab65dab16c9d52141f",
          "topics": [
            "0x0b2ef56770d1730a9de1e5ea6fc5844147fcbf76ffe97aff81e6bd889ec280a7",
            "0x0000000000000000000000000000000000000000000000000000000000000002"
          ],
          "data": "0x",
          "blockHash": "0xd49b60fb0135da0648bbf3ac8b51694c6c8375bf8e00e317cfd3ca4455dd471d",
          "blockNumber": "0xa41362",
          "blockTimestamp": "0x69f169bc",
          "transactionHash": "0xc9e50a42d8b244302db0b81b36ca9dc9d8f911413ee8eef966c47a6ca64426b2",
          "transactionIndex": "0x7f",
          "logIndex": "0x228",
          "removed": false
        }
      ],
      "logsBloom": "0x04000000000000000000000000000000000000000000000000000000000002000000000000000420000000000000000000000100000000000000000000000000000000000000000000000000000000000000000080000000000000000000000000000000000000000000000001000000000000000000000000000000000000000000000008000000000000000000000000000000000000000000000000000000000000000000000000000100000000000000000000000000002000000000000000000000000000000000000000000000000000000000000000000000000000000000000080000000002000001000001000000000008000000000000000000000",
      "type": "0x2",
      "transactionHash": "0xc9e50a42d8b244302db0b81b36ca9dc9d8f911413ee8eef966c47a6ca64426b2",
      "transactionIndex": "0x7f",
      "blockHash": "0xd49b60fb0135da0648bbf3ac8b51694c6c8375bf8e00e317cfd3ca4455dd471d",
      "blockNumber": "0xa41362",
      "gasUsed": "0x42e09",
      "effectiveGasPrice": "0x237fad9",
      "from": "0x6f9d1a63cd0233d4a6e816342ccd094f7d265f2a",
      "to": "0x115bbeb80311945b96315bab65dab16c9d52141f",
      "contractAddress": null
    },
    {
      "status": "0x1",
      "cumulativeGasUsed": "0x19b852b",
      "logs": [
        {
          "address": "0x115bbeb80311945b96315bab65dab16c9d52141f",
          "topics": [
            "0xe30bd6dd5caf46905d03db87e64fcb79980cf5f0bac328ac1aa8edc66a02411a",
            "0x0000000000000000000000000000000000000000000000000000000000000000",
            "0x0000000000000000000000006f9d1a63cd0233d4a6e816342ccd094f7d265f2a"
          ],
          "data": "0x00000000000000000000000000000000000000000000000000000000000005dc00000000000000000000000000000000000000000000000000000000000004b0",
          "blockHash": "0xd49b60fb0135da0648bbf3ac8b51694c6c8375bf8e00e317cfd3ca4455dd471d",
          "blockNumber": "0xa41362",
          "blockTimestamp": "0x69f169bc",
          "transactionHash": "0x428770dd96da2261c71465adc588ece64d80da2dd223622337e509f484e52a50",
          "transactionIndex": "0x80",
          "logIndex": "0x229",
          "removed": false
        },
        {
          "address": "0x8cc4882e0217da00ae27952699e6a07d0db59c99",
          "topics": [
            "0xf2c7af4e27ab183637f98860df4cdd0b40c78470109111288c0cd05f1894fd66",
            "0x0000000000000000000000000000000000000000000000000000000000000000"
          ],
          "data": "0x",
          "blockHash": "0xd49b60fb0135da0648bbf3ac8b51694c6c8375bf8e00e317cfd3ca4455dd471d",
          "blockNumber": "0xa41362",
          "blockTimestamp": "0x69f169bc",
          "transactionHash": "0x428770dd96da2261c71465adc588ece64d80da2dd223622337e509f484e52a50",
          "transactionIndex": "0x80",
          "logIndex": "0x22a",
          "removed": false
        },
        {
          "address": "0x05485f6f04bf7819446b91b7c0007cf4c3c8af3c",
          "topics": [
            "0xddf252ad1be2c89b69c2b068fc378daa952ba7f163c4a11628f55a4df523b3ef",
            "0x0000000000000000000000006f9d1a63cd0233d4a6e816342ccd094f7d265f2a",
            "0x000000000000000000000000115bbeb80311945b96315bab65dab16c9d52141f"
          ],
          "data": "0x00000000000000000000000000000000000000000000000000000004a817c800",
          "blockHash": "0xd49b60fb0135da0648bbf3ac8b51694c6c8375bf8e00e317cfd3ca4455dd471d",
          "blockNumber": "0xa41362",
          "blockTimestamp": "0x69f169bc",
          "transactionHash": "0x428770dd96da2261c71465adc588ece64d80da2dd223622337e509f484e52a50",
          "transactionIndex": "0x80",
          "logIndex": "0x22b",
          "removed": false
        },
        {
          "address": "0x115bbeb80311945b96315bab65dab16c9d52141f",
          "topics": [
            "0x4297eb34ce0f5cba5434e9e5bc90ff09dc76e8c53521965282b3b31bc2dcc4bc",
            "0x0000000000000000000000000000000000000000000000000000000000000000",
            "0x0000000000000000000000006f9d1a63cd0233d4a6e816342ccd094f7d265f2a"
          ],
          "data": "0x00000000000000000000000000000000000000000000000000000004a817c800",
          "blockHash": "0xd49b60fb0135da0648bbf3ac8b51694c6c8375bf8e00e317cfd3ca4455dd471d",
          "blockNumber": "0xa41362",
          "blockTimestamp": "0x69f169bc",
          "transactionHash": "0x428770dd96da2261c71465adc588ece64d80da2dd223622337e509f484e52a50",
          "transactionIndex": "0x80",
          "logIndex": "0x22c",
          "removed": false
        },
        {
          "address": "0x05485f6f04bf7819446b91b7c0007cf4c3c8af3c",
          "topics": [
            "0xddf252ad1be2c89b69c2b068fc378daa952ba7f163c4a11628f55a4df523b3ef",
            "0x000000000000000000000000e47e16dfe8e3feff8674534e46838461c16bfbf7",
            "0x0000000000000000000000006f9d1a63cd0233d4a6e816342ccd094f7d265f2a"
          ],
          "data": "0x0000000000000000000000000000000000000000000000000000000df8475800",
          "blockHash": "0xd49b60fb0135da0648bbf3ac8b51694c6c8375bf8e00e317cfd3ca4455dd471d",
          "blockNumber": "0xa41362",
          "blockTimestamp": "0x69f169bc",
          "transactionHash": "0x428770dd96da2261c71465adc588ece64d80da2dd223622337e509f484e52a50",
          "transactionIndex": "0x80",
          "logIndex": "0x22d",
          "removed": false
        },
        {
          "address": "0xe47e16dfe8e3feff8674534e46838461c16bfbf7",
          "topics": [
            "0xc4c84823a324d0b8981b8d101133d3a6c8016438b9de23219733db972f5ca90e",
            "0x0000000000000000000000006f9d1a63cd0233d4a6e816342ccd094f7d265f2a"
          ],
          "data": "0x0000000000000000000000000000000000000000000000000000000df8475800",
          "blockHash": "0xd49b60fb0135da0648bbf3ac8b51694c6c8375bf8e00e317cfd3ca4455dd471d",
          "blockNumber": "0xa41362",
          "blockTimestamp": "0x69f169bc",
          "transactionHash": "0x428770dd96da2261c71465adc588ece64d80da2dd223622337e509f484e52a50",
          "transactionIndex": "0x80",
          "logIndex": "0x22e",
          "removed": false
        },
        {
          "address": "0x115bbeb80311945b96315bab65dab16c9d52141f",
          "topics": [
            "0xc3dcf8c44c73d275429bc69c4609ff1700936a2ea70bf11a98335c4e470b412c",
            "0x0000000000000000000000000000000000000000000000000000000000000000"
          ],
          "data": "0x0000000000000000000000000000000000000000000000000000000df8475800",
          "blockHash": "0xd49b60fb0135da0648bbf3ac8b51694c6c8375bf8e00e317cfd3ca4455dd471d",
          "blockNumber": "0xa41362",
          "blockTimestamp": "0x69f169bc",
          "transactionHash": "0x428770dd96da2261c71465adc588ece64d80da2dd223622337e509f484e52a50",
          "transactionIndex": "0x80",
          "logIndex": "0x22f",
          "removed": false
        }
      ],
      "logsBloom": "0x00000000000000000000000000000000000000000000040000000000000002000000000000000020000000000000000000000000000000000000000000000000000200010000000000020008100000000240080000000080000400000000000000080000020000000000008011000900000000800001000000000010004000000000000000000000000002000000000000000000000000000200000000000000000000000000000000000000008000000002000000000008002000000010000000000002000000000000000000000000000001000000000000020000000020000000000000000100002200021000008000000000000000000000000000000000",
      "type": "0x2",
      "transactionHash": "0x428770dd96da2261c71465adc588ece64d80da2dd223622337e509f484e52a50",
      "transactionIndex": "0x80",
      "blockHash": "0xd49b60fb0135da0648bbf3ac8b51694c6c8375bf8e00e317cfd3ca4455dd471d",
      "blockNumber": "0xa41362",
      "gasUsed": "0x319bc",
      "effectiveGasPrice": "0x237fad9",
      "from": "0x6f9d1a63cd0233d4a6e816342ccd094f7d265f2a",
      "to": "0x115bbeb80311945b96315bab65dab16c9d52141f",
      "contractAddress": null
    },
    {
      "status": "0x1",
      "cumulativeGasUsed": "0x10c9104",
      "logs": [
        {
          "address": "0x115bbeb80311945b96315bab65dab16c9d52141f",
          "topics": [
            "0xe30bd6dd5caf46905d03db87e64fcb79980cf5f0bac328ac1aa8edc66a02411a",
            "0x0000000000000000000000000000000000000000000000000000000000000002",
            "0x0000000000000000000000006f9d1a63cd0233d4a6e816342ccd094f7d265f2a"
          ],
          "data": "0x00000000000000000000000000000000000000000000000000000000000005dc00000000000000000000000000000000000000000000000000000000000004b0",
          "blockHash": "0x7e4aa90a85aefd12f8a66d17bea6bbe5bdc398d74d919f5382500d507d0f28d5",
          "blockNumber": "0xa41371",
          "blockTimestamp": "0x69f16a7c",
          "transactionHash": "0x44affce126e17c76c3fff5da3ec98655617fdbd01b65d1dbaa450f65fccdc1ba",
          "transactionIndex": "0x60",
          "logIndex": "0x1d6",
          "removed": false
        },
        {
          "address": "0x8cc4882e0217da00ae27952699e6a07d0db59c99",
          "topics": [
            "0xf2c7af4e27ab183637f98860df4cdd0b40c78470109111288c0cd05f1894fd66",
            "0x0000000000000000000000000000000000000000000000000000000000000002"
          ],
          "data": "0x",
          "blockHash": "0x7e4aa90a85aefd12f8a66d17bea6bbe5bdc398d74d919f5382500d507d0f28d5",
          "blockNumber": "0xa41371",
          "blockTimestamp": "0x69f16a7c",
          "transactionHash": "0x44affce126e17c76c3fff5da3ec98655617fdbd01b65d1dbaa450f65fccdc1ba",
          "transactionIndex": "0x60",
          "logIndex": "0x1d7",
          "removed": false
        },
        {
          "address": "0x05485f6f04bf7819446b91b7c0007cf4c3c8af3c",
          "topics": [
            "0xddf252ad1be2c89b69c2b068fc378daa952ba7f163c4a11628f55a4df523b3ef",
            "0x0000000000000000000000006f9d1a63cd0233d4a6e816342ccd094f7d265f2a",
            "0x000000000000000000000000115bbeb80311945b96315bab65dab16c9d52141f"
          ],
          "data": "0x00000000000000000000000000000000000000000000000000000001dcd65000",
          "blockHash": "0x7e4aa90a85aefd12f8a66d17bea6bbe5bdc398d74d919f5382500d507d0f28d5",
          "blockNumber": "0xa41371",
          "blockTimestamp": "0x69f16a7c",
          "transactionHash": "0x44affce126e17c76c3fff5da3ec98655617fdbd01b65d1dbaa450f65fccdc1ba",
          "transactionIndex": "0x60",
          "logIndex": "0x1d8",
          "removed": false
        },
        {
          "address": "0x115bbeb80311945b96315bab65dab16c9d52141f",
          "topics": [
            "0x4297eb34ce0f5cba5434e9e5bc90ff09dc76e8c53521965282b3b31bc2dcc4bc",
            "0x0000000000000000000000000000000000000000000000000000000000000002",
            "0x0000000000000000000000006f9d1a63cd0233d4a6e816342ccd094f7d265f2a"
          ],
          "data": "0x00000000000000000000000000000000000000000000000000000001dcd65000",
          "blockHash": "0x7e4aa90a85aefd12f8a66d17bea6bbe5bdc398d74d919f5382500d507d0f28d5",
          "blockNumber": "0xa41371",
          "blockTimestamp": "0x69f16a7c",
          "transactionHash": "0x44affce126e17c76c3fff5da3ec98655617fdbd01b65d1dbaa450f65fccdc1ba",
          "transactionIndex": "0x60",
          "logIndex": "0x1d9",
          "removed": false
        },
        {
          "address": "0x05485f6f04bf7819446b91b7c0007cf4c3c8af3c",
          "topics": [
            "0xddf252ad1be2c89b69c2b068fc378daa952ba7f163c4a11628f55a4df523b3ef",
            "0x000000000000000000000000e47e16dfe8e3feff8674534e46838461c16bfbf7",
            "0x0000000000000000000000006f9d1a63cd0233d4a6e816342ccd094f7d265f2a"
          ],
          "data": "0x00000000000000000000000000000000000000000000000000000004a817c800",
          "blockHash": "0x7e4aa90a85aefd12f8a66d17bea6bbe5bdc398d74d919f5382500d507d0f28d5",
          "blockNumber": "0xa41371",
          "blockTimestamp": "0x69f16a7c",
          "transactionHash": "0x44affce126e17c76c3fff5da3ec98655617fdbd01b65d1dbaa450f65fccdc1ba",
          "transactionIndex": "0x60",
          "logIndex": "0x1da",
          "removed": false
        },
        {
          "address": "0xe47e16dfe8e3feff8674534e46838461c16bfbf7",
          "topics": [
            "0xc4c84823a324d0b8981b8d101133d3a6c8016438b9de23219733db972f5ca90e",
            "0x0000000000000000000000006f9d1a63cd0233d4a6e816342ccd094f7d265f2a"
          ],
          "data": "0x00000000000000000000000000000000000000000000000000000004a817c800",
          "blockHash": "0x7e4aa90a85aefd12f8a66d17bea6bbe5bdc398d74d919f5382500d507d0f28d5",
          "blockNumber": "0xa41371",
          "blockTimestamp": "0x69f16a7c",
          "transactionHash": "0x44affce126e17c76c3fff5da3ec98655617fdbd01b65d1dbaa450f65fccdc1ba",
          "transactionIndex": "0x60",
          "logIndex": "0x1db",
          "removed": false
        },
        {
          "address": "0x115bbeb80311945b96315bab65dab16c9d52141f",
          "topics": [
            "0xc3dcf8c44c73d275429bc69c4609ff1700936a2ea70bf11a98335c4e470b412c",
            "0x0000000000000000000000000000000000000000000000000000000000000002"
          ],
          "data": "0x00000000000000000000000000000000000000000000000000000004a817c800",
          "blockHash": "0x7e4aa90a85aefd12f8a66d17bea6bbe5bdc398d74d919f5382500d507d0f28d5",
          "blockNumber": "0xa41371",
          "blockTimestamp": "0x69f16a7c",
          "transactionHash": "0x44affce126e17c76c3fff5da3ec98655617fdbd01b65d1dbaa450f65fccdc1ba",
          "transactionIndex": "0x60",
          "logIndex": "0x1dc",
          "removed": false
        }
      ],
      "logsBloom": "0x04000000000000000000000000000000000000000000040000000000000002000000000000000020000000000000000000000000000000000000000000000000000200010000000000020008100000000240080000000080000400000000000000080000000000000000008011000100000000800001000000000010004000000000000000000000000002000000000000000000000000000200000000000000000000000000000000000100008000000002000000000008002000000010000000000002000000000000000000000000000001000000000000020000000000000000000000000100002200021000008000000000008000000000000000000000",
      "type": "0x2",
      "transactionHash": "0x44affce126e17c76c3fff5da3ec98655617fdbd01b65d1dbaa450f65fccdc1ba",
      "transactionIndex": "0x60",
      "blockHash": "0x7e4aa90a85aefd12f8a66d17bea6bbe5bdc398d74d919f5382500d507d0f28d5",
      "blockNumber": "0xa41371",
      "gasUsed": "0x29430",
      "effectiveGasPrice": "0x2479f48",
      "from": "0x6f9d1a63cd0233d4a6e816342ccd094f7d265f2a",
      "to": "0x115bbeb80311945b96315bab65dab16c9d52141f",
      "contractAddress": null
    },
    {
      "status": "0x1",
      "cumulativeGasUsed": "0x886056",
      "logs": [
        {
          "address": "0x05485f6f04bf7819446b91b7c0007cf4c3c8af3c",
          "topics": [
            "0xddf252ad1be2c89b69c2b068fc378daa952ba7f163c4a11628f55a4df523b3ef",
            "0x0000000000000000000000006f9d1a63cd0233d4a6e816342ccd094f7d265f2a",
            "0x000000000000000000000000e47e16dfe8e3feff8674534e46838461c16bfbf7"
          ],
          "data": "0x00000000000000000000000000000000000000000000000000000004a817c800",
          "blockHash": "0x73d19acb8be26a62e9dbcb01f5752f7ad4a090eb21cbeb7947d07a13bbe227e6",
          "blockNumber": "0xa41372",
          "blockTimestamp": "0x69f16a88",
          "transactionHash": "0x0c88f1865d7e41cf6b90f3099e5d112291f6268432fb7921eefffe7dee7de0a1",
          "transactionIndex": "0x33",
          "logIndex": "0x140",
          "removed": false
        },
        {
          "address": "0x05485f6f04bf7819446b91b7c0007cf4c3c8af3c",
          "topics": [
            "0xddf252ad1be2c89b69c2b068fc378daa952ba7f163c4a11628f55a4df523b3ef",
            "0x000000000000000000000000e47e16dfe8e3feff8674534e46838461c16bfbf7",
            "0x0000000000000000000000006f9d1a63cd0233d4a6e816342ccd094f7d265f2a"
          ],
          "data": "0x000000000000000000000000000000000000000000000000000000000000005b",
          "blockHash": "0x73d19acb8be26a62e9dbcb01f5752f7ad4a090eb21cbeb7947d07a13bbe227e6",
          "blockNumber": "0xa41372",
          "blockTimestamp": "0x69f16a88",
          "transactionHash": "0x0c88f1865d7e41cf6b90f3099e5d112291f6268432fb7921eefffe7dee7de0a1",
          "transactionIndex": "0x33",
          "logIndex": "0x141",
          "removed": false
        },
        {
          "address": "0xe47e16dfe8e3feff8674534e46838461c16bfbf7",
          "topics": [
            "0xaf28ef548a3e357577842b9bd2e33678ce378c87837d3df6cb9592975552624d"
          ],
          "data": "0x00000000000000000000000000000000000000000000000000000004a817c46f0000000000000000000000000000000000000000000000000000000000000336000000000000000000000000000000000000000000000000000000000000005b",
          "blockHash": "0x73d19acb8be26a62e9dbcb01f5752f7ad4a090eb21cbeb7947d07a13bbe227e6",
          "blockNumber": "0xa41372",
          "blockTimestamp": "0x69f16a88",
          "transactionHash": "0x0c88f1865d7e41cf6b90f3099e5d112291f6268432fb7921eefffe7dee7de0a1",
          "transactionIndex": "0x33",
          "logIndex": "0x142",
          "removed": false
        },
        {
          "address": "0x115bbeb80311945b96315bab65dab16c9d52141f",
          "topics": [
            "0x1ad611755e340443b2da9ad4b0ba6431ca00c2f6bbda5b5bdf5c7306f9ffb84a",
            "0x0000000000000000000000000000000000000000000000000000000000000002"
          ],
          "data": "0x00000000000000000000000000000000000000000000000000000004a817c46f0000000000000000000000000000000000000000000000000000000000000391",
          "blockHash": "0x73d19acb8be26a62e9dbcb01f5752f7ad4a090eb21cbeb7947d07a13bbe227e6",
          "blockNumber": "0xa41372",
          "blockTimestamp": "0x69f16a88",
          "transactionHash": "0x0c88f1865d7e41cf6b90f3099e5d112291f6268432fb7921eefffe7dee7de0a1",
          "transactionIndex": "0x33",
          "logIndex": "0x143",
          "removed": false
        }
      ],
      "logsBloom": "0x04000000000000000000000000000000000000000000040000000000000002000000000000000020000000000000000000000000000000000000000000000000800000020000000000000008000000000200000020000080000000000000000000000000000000000000000001000100000000000000000000100010004000000000000000000000000000000000004000000000000000000300000000000000000000000000000000000100000000000002000000000000002000000000000000000002000000000000000000000000000000000000000000000000000000000000000000000100002000001000000000000000008000000000000000000000",
      "type": "0x2",
      "transactionHash": "0x0c88f1865d7e41cf6b90f3099e5d112291f6268432fb7921eefffe7dee7de0a1",
      "transactionIndex": "0x33",
      "blockHash": "0x73d19acb8be26a62e9dbcb01f5752f7ad4a090eb21cbeb7947d07a13bbe227e6",
      "blockNumber": "0xa41372",
      "gasUsed": "0x273fe",
      "effectiveGasPrice": "0x230690b",
      "from": "0x6f9d1a63cd0233d4a6e816342ccd094f7d265f2a",
      "to": "0x115bbeb80311945b96315bab65dab16c9d52141f",
      "contractAddress": null
    }
  ],
  "libraries": [],
  "pending": [],
  "returns": {
    "result": {
      "internal_type": "struct SeedHKPayFi.SeedResult",
      "value": "(0x6F9D1a63Cd0233D4a6E816342ccd094f7D265f2a, 0x6F9D1a63Cd0233D4a6E816342ccd094f7D265f2a, 0x6F9D1a63Cd0233D4a6E816342ccd094f7D265f2a, 0x6F9D1a63Cd0233D4a6E816342ccd094f7D265f2a, 0x000000000000000000000000000000000000bEEF, 0, 1, 2, 0, 1, 2)"
    }
  },
  "timestamp": 1777429129500,
  "chain": 11155111,
  "commit": "321d6a9"
}