{
  "transactions": [
    {
      "hash": "0x6a029e6570b9298571ae62627eb879388efed85f88f1545cffb04a5494a55505",
      "transactionType": "CALL",
      "contractName": null,
      "contractAddress": "0xf77f543b96819c60a5a53a92dd4a685a2071f097",
      "function": "grantRole(bytes32,address)",
      "arguments": [
        "0x4848aa3d2c0568bab3ca9720f91818ee0957e95426fa0627cc4809e2e5ed8be0",
        "0xEDE6f443a7ffE89cE4D772f9963e80779E451239"
      ],
      "transaction": {
        "from": "0x4a779fa7d5ea106f1adfb8369e65fcaa465ca7fd",
        "to": "0xf77f543b96819c60a5a53a92dd4a685a2071f097",
        "gas": "0x9e2d",
        "value": "0x0",
        "input": "0x2f2ff15d4848aa3d2c0568bab3ca9720f91818ee0957e95426fa0627cc4809e2e5ed8be0000000000000000000000000ede6f443a7ffe89ce4d772f9963e80779e451239",
        "nonce": "0x3a",
        "chainId": "0xaa36a7"
      },
      "additionalContracts": [],
      "isFixedGasLimit": false
    },
    {
      "hash": "0xf966a36e7935cff7fc36f001b5c222f6e631324750ad157b70ff42e725f977f4",
      "transactionType": "CALL",
      "contractName": null,
      "contractAddress": "0xf77f543b96819c60a5a53a92dd4a685a2071f097",
      "function": "grantRole(bytes32,address)",
      "arguments": [
        "0x13afe234b87b250e27c8e9cd269d4ebfc7af20d3fd4a3d9ade8196eb1de7d003",
        "0x58Ea9A07e0636369f92E50fF6D7485a1b6dDadC1"
      ],
      "transaction": {
        "from": "0x4a779fa7d5ea106f1adfb8369e65fcaa465ca7fd",
        "to": "0xf77f543b96819c60a5a53a92dd4a685a2071f097",
        "gas": "0x9e2d",
        "value": "0x0",
        "input": "0x2f2ff15d13afe234b87b250e27c8e9cd269d4ebfc7af20d3fd4a3d9ade8196eb1de7d00300000000000000000000000058ea9a07e0636369f92e50ff6d7485a1b6ddadc1",
        "nonce": "0x3b",
        "chainId": "0xaa36a7"
      },
      "additionalContracts": [],
      "isFixedGasLimit": false
    },
    {
      "hash": "0xc530de51a11dec81dad770a759fd42e3500d02b758474dfa309a307708df2416",
      "transactionType": "CALL",
      "contractName": null,
      "contractAddress": "0x0924fc3ee14f6c46b0f44124d82c3d27c097eda9",
      "function": "mint(address,uint256)",
      "arguments": [
        "0x4A779fA7d5eA106f1aDFB8369e65fCAA465ca7Fd",
        "250000000000"
      ],
      "transaction": {
        "from": "0x4a779fa7d5ea106f1adfb8369e65fcaa465ca7fd",
        "to": "0x0924fc3ee14f6c46b0f44124d82c3d27c097eda9",
        "gas": "0x17100",
        "value": "0x0",
        "input": "0x40c10f190000000000000000000000004a779fa7d5ea106f1adfb8369e65fcaa465ca7fd0000000000000000000000000000000000000000000000000000003a35294400",
        "nonce": "0x3c",
        "chainId": "0xaa36a7"
      },
      "additionalContracts": [],
      "isFixedGasLimit": false
    },
    {
      "hash": "0xd855e65996276e3e8a511d707ada4627c24083180a82b5a3639fd0af743a2dbe",
      "transactionType": "CALL",
      "contractName": null,
      "contractAddress": "0x0924fc3ee14f6c46b0f44124d82c3d27c097eda9",
      "function": "mint(address,uint256)",
      "arguments": [
        "0x4A779fA7d5eA106f1aDFB8369e65fCAA465ca7Fd",
        "100000000000"
      ],
      "transaction": {
        "from": "0x4a779fa7d5ea106f1adfb8369e65fcaa465ca7fd",
        "to": "0x0924fc3ee14f6c46b0f44124d82c3d27c097eda9",
        "gas": "0xb879",
        "value": "0x0",
        "input": "0x40c10f190000000000000000000000004a779fa7d5ea106f1adfb8369e65fcaa465ca7fd000000000000000000000000000000000000000000000000000000174876e800",
        "nonce": "0x3d",
        "chainId": "0xaa36a7"
      },
      "additionalContracts": [],
      "isFixedGasLimit": false
    },
    {
      "hash": "0xebeebf77f120aa8536809b73d531192d876786be44cea4e6c58d3aab08e1beac",
      "transactionType": "CALL",
      "contractName": null,
      "contractAddress": "0x887f18855db9d87e0fa6b60fd17d3076454cd993",
      "function": "mint(address,uint256)",
      "arguments": [
        "0x4A779fA7d5eA106f1aDFB8369e65fCAA465ca7Fd",
        "2000000000000000000000"
      ],
      "transaction": {
        "from": "0x4a779fa7d5ea106f1adfb8369e65fcaa465ca7fd",
        "to": "0x887f18855db9d87e0fa6b60fd17d3076454cd993",
        "gas": "0x194aa",
        "value": "0x0",
        "input": "0x40c10f190000000000000000000000004a779fa7d5ea106f1adfb8369e65fcaa465ca7fd00000000000000000000000000000000000000000000006c6b935b8bbd400000",
        "nonce": "0x3e",
        "chainId": "0xaa36a7"
      },
      "additionalContracts": [],
      "isFixedGasLimit": false
    },
    {
      "hash": "0x7c9a9f31165246675d1b40e028bc325e51b8b08004eb5959fc03fba51e26d46a",
      "transactionType": "CALL",
      "contractName": null,
      "contractAddress": "0xede6f443a7ffe89ce4d772f9963e80779e451239",
      "function": "approveBorrower(address,uint256,uint256,uint256)",
      "arguments": [
        "0x4A779fA7d5eA106f1aDFB8369e65fCAA465ca7Fd",
        "200000000000",
        "1500",
        "6000"
      ],
      "transaction": {
        "from": "0x4a779fa7d5ea106f1adfb8369e65fcaa465ca7fd",
        "to": "0xede6f443a7ffe89ce4d772f9963e80779e451239",
        "gas": "0x5465c",
        "value": "0x0",
        "input": "0x5ecf46680000000000000000000000004a779fa7d5ea106f1adfb8369e65fcaa465ca7fd0000000000000000000000000000000000000000000000000000002e90edd00000000000000000000000000000000000000000000000000000000000000005dc0000000000000000000000000000000000000000000000000000000000001770",
        "nonce": "0x3f",
        "chainId": "0xaa36a7"
      },
      "additionalContracts": [],
      "isFixedGasLimit": false
    },
    {
      "hash": "0x0cdd0407d9bcb7026ce4b78660af83493c0932b706d4c0b3c7ad5b35b63bf86c",
      "transactionType": "CALL",
      "contractName": null,
      "contractAddress": "0x0924fc3ee14f6c46b0f44124d82c3d27c097eda9",
      "function": "approve(address,uint256)",
      "arguments": [
        "0xE6D03D06639CDC7533189F795746c875346ac323",
        "200000000000"
      ],
      "transaction": {
        "from": "0x4a779fa7d5ea106f1adfb8369e65fcaa465ca7fd",
        "to": "0x0924fc3ee14f6c46b0f44124d82c3d27c097eda9",
        "gas": "0xfa09",
        "value": "0x0",
        "input": "0x095ea7b3000000000000000000000000e6d03d06639cdc7533189f795746c875346ac3230000000000000000000000000000000000000000000000000000002e90edd000",
        "nonce": "0x40",
        "chainId": "0xaa36a7"
      },
      "additionalContracts": [],
      "isFixedGasLimit": false
    },
    {
      "hash": "0x474f18bfe655d312359fdfad7a5a1f11e8bab9b92295c0b5e7dad923c9b4006a",
      "transactionType": "CALL",
      "contractName": null,
      "contractAddress": "0xe6d03d06639cdc7533189f795746c875346ac323",
      "function": "deposit(uint256,address)",
      "arguments": [
        "200000000000",
        "0x4A779fA7d5eA106f1aDFB8369e65fCAA465ca7Fd"
      ],
      "transaction": {
        "from": "0x4a779fa7d5ea106f1adfb8369e65fcaa465ca7fd",
        "to": "0xe6d03d06639cdc7533189f795746c875346ac323",
        "gas": "0x299d0",
        "value": "0x0",
        "input": "0x6e553f650000000000000000000000000000000000000000000000000000002e90edd0000000000000000000000000004a779fa7d5ea106f1adfb8369e65fcaa465ca7fd",
        "nonce": "0x41",
        "chainId": "0xaa36a7"
      },
      "additionalContracts": [],
      "isFixedGasLimit": false
    },
    {
      "hash": "0xd9ea86d18ee609bc9134fb7841b840dc6f578f7657529647fe377c1da7a2a51c",
      "transactionType": "CALL",
      "contractName": null,
      "contractAddress": "0x0924fc3ee14f6c46b0f44124d82c3d27c097eda9",
      "function": "approve(address,uint256)",
      "arguments": [
        "0x58Ea9A07e0636369f92E50fF6D7485a1b6dDadC1",
        "115792089237316195423570985008687907853269984665640564039457584007913129639935"
      ],
      "transaction": {
        "from": "0x4a779fa7d5ea106f1adfb8369e65fcaa465ca7fd",
        "to": "0x0924fc3ee14f6c46b0f44124d82c3d27c097eda9",
        "gas": "0xfbd9",
        "value": "0x0",
        "input": "0x095ea7b300000000000000000000000058ea9a07e0636369f92e50ff6d7485a1b6ddadc1ffffffffffffffffffffffffffffffffffffffffffffffffffffffffffffffff",
        "nonce": "0x42",
        "chainId": "0xaa36a7"
      },
      "additionalContracts": [],
      "isFixedGasLimit": false
    },
    {
      "hash": "0x5428e3720189e20bf1a5419891f75e48420f3787d4fe80d624614fac5c23a290",
      "transactionType": "CALL",
      "contractName": null,
      "contractAddress": "0xf77f543b96819c60a5a53a92dd4a685a2071f097",
      "function": "mint(address,uint256,uint256,string)",
      "arguments": [
        "0x000000000000000000000000000000000000bEEF",
        "100000000000",
        "1784093304",
        "SEED-ACTIVE-001"
      ],
      "transaction": {
        "from": "0x4a779fa7d5ea106f1adfb8369e65fcaa465ca7fd",
        "to": "0xf77f543b96819c60a5a53a92dd4a685a2071f097",
        "gas": "0x4f544",
        "value": "0x0",
        "input": "0xbb7fde71000000000000000000000000000000000000000000000000000000000000beef000000000000000000000000000000000000000000000000000000174876e800000000000000000000000000000000000000000000000000000000006a571a780000000000000000000000000000000000000000000000000000000000000080000000000000000000000000000000000000000000000000000000000000000f534545442d4143544956452d3030310000000000000000000000000000000000",
        "nonce": "0x43",
        "chainId": "0xaa36a7"
      },
      "additionalContracts": [],
      "isFixedGasLimit": false
    },
    {
      "hash": "0x9da1ca1ef6f9b5e97cf096b77d8477b0582111146e7ddcc633872cdef2c9a3fe",
      "transactionType": "CALL",
      "contractName": null,
      "contractAddress": "0xf77f543b96819c60a5a53a92dd4a685a2071f097",
      "function": "mint(address,uint256,uint256,string)",
      "arguments": [
        "0x000000000000000000000000000000000000bEEF",
        "80000000000",
        "1785389304",
        "SEED-APPROVED-001"
      ],
      "transaction": {
        "from": "0x4a779fa7d5ea106f1adfb8369e65fcaa465ca7fd",
        "to": "0xf77f543b96819c60a5a53a92dd4a685a2071f097",
        "gas": "0x43cde",
        "value": "0x0",
        "input": "0xbb7fde71000000000000000000000000000000000000000000000000000000000000beef00000000000000000000000000000000000000000000000000000012a05f2000000000000000000000000000000000000000000000000000000000006a6ae0f800000000000000000000000000000000000000000000000000000000000000800000000000000000000000000000000000000000000000000000000000000011534545442d415050524f5645442d303031000000000000000000000000000000",
        "nonce": "0x44",
        "chainId": "0xaa36a7"
      },
      "additionalContracts": [],
      "isFixedGasLimit": false
    },
    {
      "hash": "0x701cc8edbe2b1cdb543b3de5a77eabc1baaaed06fbc65a89e8ac1a9b1bc75144",
      "transactionType": "CALL",
      "contractName": null,
      "contractAddress": "0xf77f543b96819c60a5a53a92dd4a685a2071f097",
      "function": "mint(address,uint256,uint256,string)",
      "arguments": [
        "0x000000000000000000000000000000000000bEEF",
        "40000000000",
        "1781501304",
        "SEED-REPAID-001"
      ],
      "transaction": {
        "from": "0x4a779fa7d5ea106f1adfb8369e65fcaa465ca7fd",
        "to": "0xf77f543b96819c60a5a53a92dd4a685a2071f097",
        "gas": "0x43cbe",
        "value": "0x0",
        "input": "0xbb7fde71000000000000000000000000000000000000000000000000000000000000beef00000000000000000000000000000000000000000000000000000009502f9000000000000000000000000000000000000000000000000000000000006a2f8d780000000000000000000000000000000000000000000000000000000000000080000000000000000000000000000000000000000000000000000000000000000f534545442d5245504149442d3030310000000000000000000000000000000000",
        "nonce": "0x45",
        "chainId": "0xaa36a7"
      },
      "additionalContracts": [],
      "isFixedGasLimit": false
    },
    {
      "hash": "0x78b49851e215d85632b73ea5886aae34e19c4e5b498a8a01d24ed51a5b7a4cc4",
      "transactionType": "CALL",
      "contractName": null,
      "contractAddress": "0xede6f443a7ffe89ce4d772f9963e80779e451239",
      "function": "approveReceivable(uint256)",
      "arguments": [
        "0"
      ],
      "transaction": {
        "from": "0x4a779fa7d5ea106f1adfb8369e65fcaa465ca7fd",
        "to": "0xede6f443a7ffe89ce4d772f9963e80779e451239",
        "gas": "0x11d85",
        "value": "0x0",
        "input": "0x6ae51aad0000000000000000000000000000000000000000000000000000000000000000",
        "nonce": "0x46",
        "chainId": "0xaa36a7"
      },
      "additionalContracts": [],
      "isFixedGasLimit": false
    },
    {
      "hash": "0x35d68235947d590c57c805565b290636aeffbebd31dcad24b110393cacc8f7dd",
      "transactionType": "CALL",
      "contractName": null,
      "contractAddress": "0xede6f443a7ffe89ce4d772f9963e80779e451239",
      "function": "approveReceivable(uint256)",
      "arguments": [
        "1"
      ],
      "transaction": {
        "from": "0x4a779fa7d5ea106f1adfb8369e65fcaa465ca7fd",
        "to": "0xede6f443a7ffe89ce4d772f9963e80779e451239",
        "gas": "0x12e63",
        "value": "0x0",
        "input": "0x6ae51aad0000000000000000000000000000000000000000000000000000000000000001",
        "nonce": "0x47",
        "chainId": "0xaa36a7"
      },
      "additionalContracts": [],
      "isFixedGasLimit": false
    },
    {
      "hash": "0xc5db9a907f24fa38841d9672bcfea02d0a27d565a0c9738a2525ad304372efd6",
      "transactionType": "CALL",
      "contractName": null,
      "contractAddress": "0xede6f443a7ffe89ce4d772f9963e80779e451239",
      "function": "approveReceivable(uint256)",
      "arguments": [
        "2"
      ],
      "transaction": {
        "from": "0x4a779fa7d5ea106f1adfb8369e65fcaa465ca7fd",
        "to": "0xede6f443a7ffe89ce4d772f9963e80779e451239",
        "gas": "0x12e63",
        "value": "0x0",
        "input": "0x6ae51aad0000000000000000000000000000000000000000000000000000000000000002",
        "nonce": "0x48",
        "chainId": "0xaa36a7"
      },
      "additionalContracts": [],
      "isFixedGasLimit": false
    },
    {
      "hash": "0xf08b54f8f8a1ec55499ecce4ac30e2012ad047494627a9737c631bd958522be6",
      "transactionType": "CALL",
      "contractName": null,
      "contractAddress": "0x58ea9a07e0636369f92e50ff6d7485a1b6ddadc1",
      "function": "applyForCredit(uint256)",
      "arguments": [
        "0"
      ],
      "transaction": {
        "from": "0x4a779fa7d5ea106f1adfb8369e65fcaa465ca7fd",
        "to": "0x58ea9a07e0636369f92e50ff6d7485a1b6ddadc1",
        "gas": "0x5b726",
        "value": "0x0",
        "input": "0xd03604cf0000000000000000000000000000000000000000000000000000000000000000",
        "nonce": "0x49",
        "chainId": "0xaa36a7"
      },
      "additionalContracts": [],
      "isFixedGasLimit": false
    },
    {
      "hash": "0x158191af0b51f2da391b6e4720e07a9eca60d15ecb39f391edaa455649790d1c",
      "transactionType": "CALL",
      "contractName": null,
      "contractAddress": "0x58ea9a07e0636369f92e50ff6d7485a1b6ddadc1",
      "function": "applyForCredit(uint256)",
      "arguments": [
        "1"
      ],
      "transaction": {
        "from": "0x4a779fa7d5ea106f1adfb8369e65fcaa465ca7fd",
        "to": "0x58ea9a07e0636369f92e50ff6d7485a1b6ddadc1",
        "gas": "0x5c652",
        "value": "0x0",
        "input": "0xd03604cf0000000000000000000000000000000000000000000000000000000000000001",
        "nonce": "0x4a",
        "chainId": "0xaa36a7"
      },
      "additionalContracts": [],
      "isFixedGasLimit": false
    },
    {
      "hash": "0x051495dbbac4cb58196e731c3f4e2b6ba359b43b38395d0c8bdb1941ac094d48",
      "transactionType": "CALL",
      "contractName": null,
      "contractAddress": "0x58ea9a07e0636369f92e50ff6d7485a1b6ddadc1",
      "function": "applyForCredit(uint256)",
      "arguments": [
        "2"
      ],
      "transaction": {
        "from": "0x4a779fa7d5ea106f1adfb8369e65fcaa465ca7fd",
        "to": "0x58ea9a07e0636369f92e50ff6d7485a1b6ddadc1",
        "gas": "0x5c652",
        "value": "0x0",
        "input": "0xd03604cf0000000000000000000000000000000000000000000000000000000000000002",
        "nonce": "0x4b",
        "chainId": "0xaa36a7"
      },
      "additionalContracts": [],
      "isFixedGasLimit": false
    },
    {
      "hash": "0x9102c2e1163d1926f1759e7ee7dca1ac94049aca9bef4ed02e48d7574316fc39",
      "transactionType": "CALL",
      "contractName": null,
      "contractAddress": "0x58ea9a07e0636369f92e50ff6d7485a1b6ddadc1",
      "function": "drawdown(uint256,uint256)",
      "arguments": [
        "0",
        "60000000000"
      ],
      "transaction": {
        "from": "0x4a779fa7d5ea106f1adfb8369e65fcaa465ca7fd",
        "to": "0x58ea9a07e0636369f92e50ff6d7485a1b6ddadc1",
        "gas": "0x44857",
        "value": "0x0",
        "input": "0x5d7621c700000000000000000000000000000000000000000000000000000000000000000000000000000000000000000000000000000000000000000000000df8475800",
        "nonce": "0x4c",
        "chainId": "0xaa36a7"
      },
      "additionalContracts": [],
      "isFixedGasLimit": false
    },
    {
      "hash": "0x9e86d8eacd3777f1b72858023b455f1c9ee4241fbf36ffeec3893119dc1c4335",
      "transactionType": "CALL",
      "contractName": null,
      "contractAddress": "0x58ea9a07e0636369f92e50ff6d7485a1b6ddadc1",
      "function": "drawdown(uint256,uint256)",
      "arguments": [
        "2",
        "20000000000"
      ],
      "transaction": {
        "from": "0x4a779fa7d5ea106f1adfb8369e65fcaa465ca7fd",
        "to": "0x58ea9a07e0636369f92e50ff6d7485a1b6ddadc1",
        "gas": "0x38fe2",
        "value": "0x0",
        "input": "0x5d7621c7000000000000000000000000000000000000000000000000000000000000000200000000000000000000000000000000000000000000000000000004a817c800",
        "nonce": "0x4d",
        "chainId": "0xaa36a7"
      },
      "additionalContracts": [],
      "isFixedGasLimit": false
    },
    {
      "hash": "0x619981c8d6004609fe15fc1dada8b27c627b848d0efbaa4674d1289c4bf6bc6b",
      "transactionType": "CALL",
      "contractName": null,
      "contractAddress": "0x58ea9a07e0636369f92e50ff6d7485a1b6ddadc1",
      "function": "repay(uint256,uint256)",
      "arguments": [
        "2",
        "20000000000"
      ],
      "transaction": {
        "from": "0x4a779fa7d5ea106f1adfb8369e65fcaa465ca7fd",
        "to": "0x58ea9a07e0636369f92e50ff6d7485a1b6ddadc1",
        "gas": "0x44ca0",
        "value": "0x0",
        "input": "0xd8aed145000000000000000000000000000000000000000000000000000000000000000200000000000000000000000000000000000000000000000000000004a817c800",
        "nonce": "0x4e",
        "chainId": "0xaa36a7"
      },
      "additionalContracts": [],
      "isFixedGasLimit": false
    }
  ],
  "receipts": [
    {
      "type": "0x2",
      "status": "0x1",
      "cumulativeGasUsed": "0x18bd585",
      "logs": [],
      "logsBloom": "0x00000000000000000000000000000000000000000000000000000000000000000000000000000000000000000000000000000000000000000000000000000000000000000000000000000000000000000000000000000000000000000000000000000000000000000000000000000000000000000000000000000000000000000000000000000000000000000000000000000000000000000000000000000000000000000000000000000000000000000000000000000000000000000000000000000000000000000000000000000000000000000000000000000000000000000000000000000000000000000000000000000000000000000000000000000000",
      "transactionHash": "0xf966a36e7935cff7fc36f001b5c222f6e631324750ad157b70ff42e725f977f4",
      "transactionIndex": "0xd4",
      "blockHash": "0x3f40eecb590b25eaa5376aa8c68ca029a0b8b0a33d3c77bffb2d17b1bf141913",
      "blockNumber": "0xa5bafb",
      "gasUsed": "0x7285",
      "effectiveGasPrice": "0xf4254",
      "from": "0x4a779fa7d5ea106f1adfb8369e65fcaa465ca7fd",
      "to": "0xf77f543b96819c60a5a53a92dd4a685a2071f097",
      "contractAddress": null
    },
    {
      "type": "0x2",
      "status": "0x1",
      "cumulativeGasUsed": "0x18c480a",
      "logs": [],
      "logsBloom": "0x00000000000000000000000000000000000000000000000000000000000000000000000000000000000000000000000000000000000000000000000000000000000000000000000000000000000000000000000000000000000000000000000000000000000000000000000000000000000000000000000000000000000000000000000000000000000000000000000000000000000000000000000000000000000000000000000000000000000000000000000000000000000000000000000000000000000000000000000000000000000000000000000000000000000000000000000000000000000000000000000000000000000000000000000000000000",
      "transactionHash": "0x6a029e6570b9298571ae62627eb879388efed85f88f1545cffb04a5494a55505",
      "transactionIndex": "0xd5",
      "blockHash": "0x3f40eecb590b25eaa5376aa8c68ca029a0b8b0a33d3c77bffb2d17b1bf141913",
      "blockNumber": "0xa5bafb",
      "gasUsed": "0x7285",
      "effectiveGasPrice": "0xf4254",
      "from": "0x4a779fa7d5ea106f1adfb8369e65fcaa465ca7fd",
      "to": "0xf77f543b96819c60a5a53a92dd4a685a2071f097",
      "contractAddress": null
    },
    {
      "type": "0x2",
      "status": "0x1",
      "cumulativeGasUsed": "0x18d5331",
      "logs": [
        {
          "address": "0x0924fc3ee14f6c46b0f44124d82c3d27c097eda9",
          "topics": [
            "0xddf252ad1be2c89b69c2b068fc378daa952ba7f163c4a11628f55a4df523b3ef",
            "0x0000000000000000000000000000000000000000000000000000000000000000",
            "0x0000000000000000000000004a779fa7d5ea106f1adfb8369e65fcaa465ca7fd"
          ],
          "data": "0x0000000000000000000000000000000000000000000000000000003a35294400",
          "blockHash": "0x3f40eecb590b25eaa5376aa8c68ca029a0b8b0a33d3c77bffb2d17b1bf141913",
          "blockNumber": "0xa5bafb",
          "blockTimestamp": "0x6a0800a8",
          "transactionHash": "0xc530de51a11dec81dad770a759fd42e3500d02b758474dfa309a307708df2416",
          "transactionIndex": "0xd6",
          "logIndex": "0x29f",
          "removed": false
        }
      ],
      "logsBloom": "0x00000000000000000000000000000000000000000000000000000002000000000000000000000000000000000000000000800000000000000000000000000000000000000000000000000008000000000000000000000040000000000000000000010000020000000000000000000800000000000000000000000010000000000004000000000000000000000000000000000000000000000000000000000000000000000000000000000000000000000000000000000000000000000000000000000002000000000000000000000000000000000000000000000000000020000000010000000000000000000000000000000000000000000000000000000000",
      "transactionHash": "0xc530de51a11dec81dad770a759fd42e3500d02b758474dfa309a307708df2416",
      "transactionIndex": "0xd6",
      "blockHash": "0x3f40eecb590b25eaa5376aa8c68ca029a0b8b0a33d3c77bffb2d17b1bf141913",
      "blockNumber": "0xa5bafb",
      "gasUsed": "0x10b27",
      "effectiveGasPrice": "0xf4254",
      "from": "0x4a779fa7d5ea106f1adfb8369e65fcaa465ca7fd",
      "to": "0x0924fc3ee14f6c46b0f44124d82c3d27c097eda9",
      "contractAddress": null
    },
    {
      "type": "0x2",
      "status": "0x1",
      "cumulativeGasUsed": "0x18dd8c0",
      "logs": [
        {
          "address": "0x0924fc3ee14f6c46b0f44124d82c3d27c097eda9",
          "topics": [
            "0xddf252ad1be2c89b69c2b068fc378daa952ba7f163c4a11628f55a4df523b3ef",
            "0x0000000000000000000000000000000000000000000000000000000000000000",
            "0x0000000000000000000000004a779fa7d5ea106f1adfb8369e65fcaa465ca7fd"
          ],
          "data": "0x000000000000000000000000000000000000000000000000000000174876e800",
          "blockHash": "0x3f40eecb590b25eaa5376aa8c68ca029a0b8b0a33d3c77bffb2d17b1bf141913",
          "blockNumber": "0xa5bafb",
          "blockTimestamp": "0x6a0800a8",
          "transactionHash": "0x9da1ca1ef6f9b5e97cf096b77d8477b0582111146e7ddcc633872cdef2c9a3fe",
          "transactionIndex": "0xd7",
          "logIndex": "0x2a0",
          "removed": false
        }
      ],
      "logsBloom": "0x00000000000000000000000000000000000000000000000000000002000000000000000000000000000000000000000000800000000000000000000000000000000000000000000000000008000000000000000000000040000000000000000000010000020000000000000000000800000000000000000000000010000000000004000000000000000000000000000000000000000000000000000000000000000000000000000000000000000000000000000000000000000000000000000000000002000000000000000000000000000000000000000000000000000020000000010000000000000000000000000000000000000000000000000000000000",
      "transactionHash": "0x9da1ca1ef6f9b5e97cf096b77d8477b0582111146e7ddcc633872cdef2c9a3fe",
      "transactionIndex": "0xd7",
      "blockHash": "0x3f40eecb590b25eaa5376aa8c68ca029a0b8b0a33d3c77bffb2d17b1bf141913",
      "blockNumber": "0xa5bafb",
      "gasUsed": "0x858f",
      "effectiveGasPrice": "0xf4254",
      "from": "0x4a779fa7d5ea106f1adfb8369e65fcaa465ca7fd",
      "to": "0x0924fc3ee14f6c46b0f44124d82c3d27c097eda9",
      "contractAddress": null
    },
    {
      "type": "0x2",
      "status": "0x1",
      "cumulativeGasUsed": "0x18eed72",
      "logs": [
        {
          "address": "0x887f18855db9d87e0fa6b60fd17d3076454cd993",
          "topics": [
            "0xddf252ad1be2c89b69c2b068fc378daa952ba7f163c4a11628f55a4df523b3ef",
            "0x0000000000000000000000000000000000000000000000000000000000000000",
            "0x0000000000000000000000004a779fa7d5ea106f1adfb8369e65fcaa465ca7fd"
          ],
          "data": "0x00000000000000000000000000000000000000000000006c6b935b8bbd400000",
          "blockHash": "0x3f40eecb590b25eaa5376aa8c68ca029a0b8b0a33d3c77bffb2d17b1bf141913",
          "blockNumber": "0xa5bafb",
          "blockTimestamp": "0x6a0800a8",
          "transactionHash": "0xd855e65996276e3e8a511d707ada4627c24083180a82b5a3639fd0af743a2dbe",
          "transactionIndex": "0xd8",
          "logIndex": "0x2a1",
          "removed": false
        }
      ],
      "logsBloom": "0x00000000000000000000000000000000000000000000000000000002000000020000000000000000000000000000000000800000000000000000000000000000000000000000000000000008000000000000000000000040000000000000000000000000020000000000000000000800000000000000000000000010000000000000000000000000000000000000000000000000000000000000000000000000000000000000000000000000000000000000000000000000000000000000000000000002000000000000000000000000000000000000000000000000000020000000000008000000000000000000000000000000000040000000000000000000",
      "transactionHash": "0xd855e65996276e3e8a511d707ada4627c24083180a82b5a3639fd0af743a2dbe",
      "transactionIndex": "0xd8",
      "blockHash": "0x3f40eecb590b25eaa5376aa8c68ca029a0b8b0a33d3c77bffb2d17b1bf141913",
      "blockNumber": "0xa5bafb",
      "gasUsed": "0x114b2",
      "effectiveGasPrice": "0xf4254",
      "from": "0x4a779fa7d5ea106f1adfb8369e65fcaa465ca7fd",
      "to": "0x887f18855db9d87e0fa6b60fd17d3076454cd993",
      "contractAddress": null
    },
    {
      "type": "0x2",
      "status": "0x1",
      "cumulativeGasUsed": "0x19288c5",
      "logs": [
        {
          "address": "0xede6f443a7ffe89ce4d772f9963e80779e451239",
          "topics": [
            "0x436b2c1d7aab524ba2bbafa3b3a8f36f8e66f22db6d06d62ce288787ce0c3262",
            "0x0000000000000000000000004a779fa7d5ea106f1adfb8369e65fcaa465ca7fd"
          ],
          "data": "0x0000000000000000000000000000000000000000000000000000002e90edd00000000000000000000000000000000000000000000000000000000000000005dc0000000000000000000000000000000000000000000000000000000000001770",
          "blockHash": "0x3f40eecb590b25eaa5376aa8c68ca029a0b8b0a33d3c77bffb2d17b1bf141913",
          "blockNumber": "0xa5bafb",
          "blockTimestamp": "0x6a0800a8",
          "transactionHash": "0x5428e3720189e20bf1a5419891f75e48420f3787d4fe80d624614fac5c23a290",
          "transactionIndex": "0xd9",
          "logIndex": "0x2a2",
          "removed": false
        }
      ],
      "logsBloom": "0x00000000000000000000100000000000000000000000000000000002000000000000000000000000000000000004000000800000000000000000000000000000000000000000000000000000000000000000000000000040000000000000000000000000000000000000002000000000000000000000000000000000000000000000000000000000002000000000000000000000000000000000000000000000000000000100000000000000000000000000000000000000000000000000000000000000000000000000000000000000000000000000000000010000000000000000000000000000000000000000000000000000000000000000000000000000",
      "transactionHash": "0x5428e3720189e20bf1a5419891f75e48420f3787d4fe80d624614fac5c23a290",
      "transactionIndex": "0xd9",
      "blockHash": "0x3f40eecb590b25eaa5376aa8c68ca029a0b8b0a33d3c77bffb2d17b1bf141913",
      "blockNumber": "0xa5bafb",
      "gasUsed": "0x39b53",
      "effectiveGasPrice": "0xf4254",
      "from": "0x4a779fa7d5ea106f1adfb8369e65fcaa465ca7fd",
      "to": "0xede6f443a7ffe89ce4d772f9963e80779e451239",
      "contractAddress": null
    },
    {
      "type": "0x2",
      "status": "0x1",
      "cumulativeGasUsed": "0x1933dcb",
      "logs": [
        {
          "address": "0x0924fc3ee14f6c46b0f44124d82c3d27c097eda9",
          "topics": [
            "0x8c5be1e5ebec7d5bd14f71427d1e84f3dd0314c0f7b2291e5b200ac8c7c3b925",
            "0x0000000000000000000000004a779fa7d5ea106f1adfb8369e65fcaa465ca7fd",
            "0x000000000000000000000000e6d03d06639cdc7533189f795746c875346ac323"
          ],
          "data": "0x0000000000000000000000000000000000000000000000000000002e90edd000",
          "blockHash": "0x3f40eecb590b25eaa5376aa8c68ca029a0b8b0a33d3c77bffb2d17b1bf141913",
          "blockNumber": "0xa5bafb",
          "blockTimestamp": "0x6a0800a8",
          "transactionHash": "0xf08b54f8f8a1ec55499ecce4ac30e2012ad047494627a9737c631bd958522be6",
          "transactionIndex": "0xda",
          "logIndex": "0x2a3",
          "removed": false
        }
      ],
      "logsBloom": "0x00000000000000000000000000000000000000000000000000000002000000000000000000000000000000000000000000800000000000000000000000200000000000000000000000000000000000000000000000000040000000000000000000010000000001000000000000000000000000000000000000000000000000000004000000000000000000000000000000000000000000000000000000000000020040000000000000000000000000000000000000000000000000000000000000000010000000000000000000000000000000000000000000000000000000000010010000000000000000000000000000000000000000000000000000000000",
      "transactionHash": "0xf08b54f8f8a1ec55499ecce4ac30e2012ad047494627a9737c631bd958522be6",
      "transactionIndex": "0xda",
      "blockHash": "0x3f40eecb590b25eaa5376aa8c68ca029a0b8b0a33d3c77bffb2d17b1bf141913",
      "blockNumber": "0xa5bafb",
      "gasUsed": "0xb506",
      "effectiveGasPrice": "0xf4254",
      "from": "0x4a779fa7d5ea106f1adfb8369e65fcaa465ca7fd",
      "to": "0x0924fc3ee14f6c46b0f44124d82c3d27c097eda9",
      "contractAddress": null
    },
    {
      "type": "0x2",
      "status": "0x1",
      "cumulativeGasUsed": "0x195050d",
      "logs": [
        {
          "address": "0x0924fc3ee14f6c46b0f44124d82c3d27c097eda9",
          "topics": [
            "0xddf252ad1be2c89b69c2b068fc378daa952ba7f163c4a11628f55a4df523b3ef",
            "0x0000000000000000000000004a779fa7d5ea106f1adfb8369e65fcaa465ca7fd",
            "0x000000000000000000000000e6d03d06639cdc7533189f795746c875346ac323"
          ],
          "data": "0x0000000000000000000000000000000000000000000000000000002e90edd000",
          "blockHash": "0x3f40eecb590b25eaa5376aa8c68ca029a0b8b0a33d3c77bffb2d17b1bf141913",
          "blockNumber": "0xa5bafb",
          "blockTimestamp": "0x6a0800a8",
          "transactionHash": "0x9e86d8eacd3777f1b72858023b455f1c9ee4241fbf36ffeec3893119dc1c4335",
          "transactionIndex": "0xdb",
          "logIndex": "0x2a4",
          "removed": false
        },
        {
          "address": "0xe6d03d06639cdc7533189f795746c875346ac323",
          "topics": [
            "0xddf252ad1be2c89b69c2b068fc378daa952ba7f163c4a11628f55a4df523b3ef",
            "0x0000000000000000000000000000000000000000000000000000000000000000",
            "0x0000000000000000000000004a779fa7d5ea106f1adfb8369e65fcaa465ca7fd"
          ],
          "data": "0x0000000000000000000000000000000000000000000000000000002e90edd000",
          "blockHash": "0x3f40eecb590b25eaa5376aa8c68ca029a0b8b0a33d3c77bffb2d17b1bf141913",
          "blockNumber": "0xa5bafb",
          "blockTimestamp": "0x6a0800a8",
          "transactionHash": "0x9e86d8eacd3777f1b72858023b455f1c9ee4241fbf36ffeec3893119dc1c4335",
          "transactionIndex": "0xdb",
          "logIndex": "0x2a5",
          "removed": false
        },
        {
          "address": "0xe6d03d06639cdc7533189f795746c875346ac323",
          "topics": [
            "0xdcbc1c05240f31ff3ad067ef1ee35ce4997762752e3a095284754544f4c709d7",
            "0x0000000000000000000000004a779fa7d5ea106f1adfb8369e65fcaa465ca7fd",
            "0x0000000000000000000000004a779fa7d5ea106f1adfb8369e65fcaa465ca7fd"
          ],
          "data": "0x0000000000000000000000000000000000000000000000000000002e90edd0000000000000000000000000000000000000000000000000000000002e90edd000",
          "blockHash": "0x3f40eecb590b25eaa5376aa8c68ca029a0b8b0a33d3c77bffb2d17b1bf141913",
          "blockNumber": "0xa5bafb",
          "blockTimestamp": "0x6a0800a8",
          "transactionHash": "0x9e86d8eacd3777f1b72858023b455f1c9ee4241fbf36ffeec3893119dc1c4335",
          "transactionIndex": "0xdb",
          "logIndex": "0x2a6",
          "removed": false
        }
      ],
      "logsBloom": "0x00000000000000000000000000000000000000000000000000000002000000000000000000000000000000000000000000800000002000000000000000000000000000400000000000000008000000000000000000000040000000000000000000010000020001000000000000000800000000000004000000000010000000000004000000000000000000000000000000000000000000000000000000000000000040000000000000000000000000000000000000000000000000000000000000000012000000000000000000000000000000000008000000000000000020000000010004000000000000000000008000000000000000000000000000000000",
      "transactionHash": "0x9e86d8eacd3777f1b72858023b455f1c9ee4241fbf36ffeec3893119dc1c4335",
      "transactionIndex": "0xdb",
      "blockHash": "0x3f40eecb590b25eaa5376aa8c68ca029a0b8b0a33d3c77bffb2d17b1bf141913",
      "blockNumber": "0xa5bafb",
      "gasUsed": "0x1c742",
      "effectiveGasPrice": "0xf4254",
      "from": "0x4a779fa7d5ea106f1adfb8369e65fcaa465ca7fd",
      "to": "0xe6d03d06639cdc7533189f795746c875346ac323",
      "contractAddress": null
    },
    {
      "type": "0x2",
      "status": "0x1",
      "cumulativeGasUsed": "0x195bb63",
      "logs": [
        {
          "address": "0x0924fc3ee14f6c46b0f44124d82c3d27c097eda9",
          "topics": [
            "0x8c5be1e5ebec7d5bd14f71427d1e84f3dd0314c0f7b2291e5b200ac8c7c3b925",
            "0x0000000000000000000000004a779fa7d5ea106f1adfb8369e65fcaa465ca7fd",
            "0x00000000000000000000000058ea9a07e0636369f92e50ff6d7485a1b6ddadc1"
          ],
          "data": "0xffffffffffffffffffffffffffffffffffffffffffffffffffffffffffffffff",
          "blockHash": "0x3f40eecb590b25eaa5376aa8c68ca029a0b8b0a33d3c77bffb2d17b1bf141913",
          "blockNumber": "0xa5bafb",
          "blockTimestamp": "0x6a0800a8",
          "transactionHash": "0xd9ea86d18ee609bc9134fb7841b840dc6f578f7657529647fe377c1da7a2a51c",
          "transactionIndex": "0xdc",
          "logIndex": "0x2a7",
          "removed": false
        }
      ],
      "logsBloom": "0x00000000000000000000000000000000000000000000000000000002000000000000000000000000000000000000000000800000000000000000000000200000000000000000000010000000000000000000000000000040000000000000010000010000000000000000000000000000000000000000000000000000000000000004000000000000000000000000000000000000000000000000000000000000020000000000000000000000000000000000000000000000000000000000000000000000000000000000000000000000000000000000000000000000040000000010010000000000000000000000000000000000000000000000000000000000",
      "transactionHash": "0xd9ea86d18ee609bc9134fb7841b840dc6f578f7657529647fe377c1da7a2a51c",
      "transactionIndex": "0xdc",
      "blockHash": "0x3f40eecb590b25eaa5376aa8c68ca029a0b8b0a33d3c77bffb2d17b1bf141913",
      "blockNumber": "0xa5bafb",
      "gasUsed": "0xb656",
      "effectiveGasPrice": "0xf4254",
      "from": "0x4a779fa7d5ea106f1adfb8369e65fcaa465ca7fd",
      "to": "0x0924fc3ee14f6c46b0f44124d82c3d27c097eda9",
      "contractAddress": null
    },
    {
      "type": "0x2",
      "status": "0x1",
      "cumulativeGasUsed": "0x1995251",
      "logs": [
        {
          "address": "0xf77f543b96819c60a5a53a92dd4a685a2071f097",
          "topics": [
            "0xddf252ad1be2c89b69c2b068fc378daa952ba7f163c4a11628f55a4df523b3ef",
            "0x0000000000000000000000000000000000000000000000000000000000000000",
            "0x0000000000000000000000004a779fa7d5ea106f1adfb8369e65fcaa465ca7fd",
            "0x0000000000000000000000000000000000000000000000000000000000000000"
          ],
          "data": "0x",
          "blockHash": "0x3f40eecb590b25eaa5376aa8c68ca029a0b8b0a33d3c77bffb2d17b1bf141913",
          "blockNumber": "0xa5bafb",
          "blockTimestamp": "0x6a0800a8",
          "transactionHash": "0x158191af0b51f2da391b6e4720e07a9eca60d15ecb39f391edaa455649790d1c",
          "transactionIndex": "0xdd",
          "logIndex": "0x2a8",
          "removed": false
        },
        {
          "address": "0xf77f543b96819c60a5a53a92dd4a685a2071f097",
          "topics": [
            "0x73eb342d920a61f8fc4f548092bde8a326851e9de56f113fa026460a82493404",
            "0x0000000000000000000000000000000000000000000000000000000000000000",
            "0x0000000000000000000000004a779fa7d5ea106f1adfb8369e65fcaa465ca7fd"
          ],
          "data": "0x000000000000000000000000000000000000000000000000000000174876e800000000000000000000000000000000000000000000000000000000006a571a78",
          "blockHash": "0x3f40eecb590b25eaa5376aa8c68ca029a0b8b0a33d3c77bffb2d17b1bf141913",
          "blockNumber": "0xa5bafb",
          "blockTimestamp": "0x6a0800a8",
          "transactionHash": "0x158191af0b51f2da391b6e4720e07a9eca60d15ecb39f391edaa455649790d1c",
          "transactionIndex": "0xdd",
          "logIndex": "0x2a9",
          "removed": false
        }
      ],
      "logsBloom": "0x0000000000000000008000000000000000000000000000000000000200000000000000000000000000000000000000000080000000000000000000000000000000000000000000000000000800000000000000000000004000000000000000000000000002000000000000000000080000000000000000000000001000000000000000000000000000000000000000000000000000000000000000000000000000000000800000000000000000000000000000000000000000001000000000000000001a000000000000000000000000000000000000000000000000000020000000000000000000000000000000000000000000008000000000000000000000",
      "transactionHash": "0x158191af0b51f2da391b6e4720e07a9eca60d15ecb39f391edaa455649790d1c",
      "transactionIndex": "0xdd",
      "blockHash": "0x3f40eecb590b25eaa5376aa8c68ca029a0b8b0a33d3c77bffb2d17b1bf141913",
      "blockNumber": "0xa5bafb",
      "gasUsed": "0x396ee",
      "effectiveGasPrice": "0xf4254",
      "from": "0x4a779fa7d5ea106f1adfb8369e65fcaa465ca7fd",
      "to": "0xf77f543b96819c60a5a53a92dd4a685a2071f097",
      "contractAddress": null
    },
    {
      "type": "0x2",
      "status": "0x1",
      "cumulativeGasUsed": "0x19c63bf",
      "logs": [
        {
          "address": "0xf77f543b96819c60a5a53a92dd4a685a2071f097",
          "topics": [
            "0xddf252ad1be2c89b69c2b068fc378daa952ba7f163c4a11628f55a4df523b3ef",
            "0x0000000000000000000000000000000000000000000000000000000000000000",
            "0x0000000000000000000000004a779fa7d5ea106f1adfb8369e65fcaa465ca7fd",
            "0x0000000000000000000000000000000000000000000000000000000000000001"
          ],
          "data": "0x",
          "blockHash": "0x3f40eecb590b25eaa5376aa8c68ca029a0b8b0a33d3c77bffb2d17b1bf141913",
          "blockNumber": "0xa5bafb",
          "blockTimestamp": "0x6a0800a8",
          "transactionHash": "0x619981c8d6004609fe15fc1dada8b27c627b848d0efbaa4674d1289c4bf6bc6b",
          "transactionIndex": "0xde",
          "logIndex": "0x2aa",
          "removed": false
        },
        {
          "address": "0xf77f543b96819c60a5a53a92dd4a685a2071f097",
          "topics": [
            "0x73eb342d920a61f8fc4f548092bde8a326851e9de56f113fa026460a82493404",
            "0x0000000000000000000000000000000000000000000000000000000000000001",
            "0x0000000000000000000000004a779fa7d5ea106f1adfb8369e65fcaa465ca7fd"
          ],
          "data": "0x00000000000000000000000000000000000000000000000000000012a05f2000000000000000000000000000000000000000000000000000000000006a6ae0f8",
          "blockHash": "0x3f40eecb590b25eaa5376aa8c68ca029a0b8b0a33d3c77bffb2d17b1bf141913",
          "blockNumber": "0xa5bafb",
          "blockTimestamp": "0x6a0800a8",
          "transactionHash": "0x619981c8d6004609fe15fc1dada8b27c627b848d0efbaa4674d1289c4bf6bc6b",
          "transactionIndex": "0xde",
          "logIndex": "0x2ab",
          "removed": false
        }
      ],
      "logsBloom": "0x0000000000000000008000000000000000000000000000000000000200000000000000000000000000000000000000000080000000000000000000000004000000000000000000000000000800000000000000000004004000000000000000000000000002000000000000000000080000000000000000000000001000000000000000000000000000000000000000000000000000000000000000000000000000000000800000000000000000000000000000000000000000001000000000000000001a000000000000000000000000000000000000000000000000000060000000000000000000000000000000000000000000008000000000000000000000",
      "transactionHash": "0x619981c8d6004609fe15fc1dada8b27c627b848d0efbaa4674d1289c4bf6bc6b",
      "transactionIndex": "0xde",
      "blockHash": "0x3f40eecb590b25eaa5376aa8c68ca029a0b8b0a33d3c77bffb2d17b1bf141913",
      "blockNumber": "0xa5bafb",
      "gasUsed": "0x3116e",
      "effectiveGasPrice": "0xf4254",
      "from": "0x4a779fa7d5ea106f1adfb8369e65fcaa465ca7fd",
      "to": "0xf77f543b96819c60a5a53a92dd4a685a2071f097",
      "contractAddress": null
    },
    {
      "type": "0x2",
      "status": "0x1",
      "cumulativeGasUsed": "0x19f7515",
      "logs": [
        {
          "address": "0xf77f543b96819c60a5a53a92dd4a685a2071f097",
          "topics": [
            "0xddf252ad1be2c89b69c2b068fc378daa952ba7f163c4a11628f55a4df523b3ef",
            "0x0000000000000000000000000000000000000000000000000000000000000000",
            "0x0000000000000000000000004a779fa7d5ea106f1adfb8369e65fcaa465ca7fd",
            "0x0000000000000000000000000000000000000000000000000000000000000002"
          ],
          "data": "0x",
          "blockHash": "0x3f40eecb590b25eaa5376aa8c68ca029a0b8b0a33d3c77bffb2d17b1bf141913",
          "blockNumber": "0xa5bafb",
          "blockTimestamp": "0x6a0800a8",
          "transactionHash": "0x35d68235947d590c57c805565b290636aeffbebd31dcad24b110393cacc8f7dd",
          "transactionIndex": "0xdf",
          "logIndex": "0x2ac",
          "removed": false
        },
        {
          "address": "0xf77f543b96819c60a5a53a92dd4a685a2071f097",
          "topics": [
            "0x73eb342d920a61f8fc4f548092bde8a326851e9de56f113fa026460a82493404",
            "0x0000000000000000000000000000000000000000000000000000000000000002",
            "0x0000000000000000000000004a779fa7d5ea106f1adfb8369e65fcaa465ca7fd"
          ],
          "data": "0x00000000000000000000000000000000000000000000000000000009502f9000000000000000000000000000000000000000000000000000000000006a2f8d78",
          "blockHash": "0x3f40eecb590b25eaa5376aa8c68ca029a0b8b0a33d3c77bffb2d17b1bf141913",
          "blockNumber": "0xa5bafb",
          "blockTimestamp": "0x6a0800a8",
          "transactionHash": "0x35d68235947d590c57c805565b290636aeffbebd31dcad24b110393cacc8f7dd",
          "transactionIndex": "0xdf",
          "logIndex": "0x2ad",
          "removed": false
        }
      ],
      "logsBloom": "0x0400000000000000008000000000000000000000000000000000000200000000000000000000000000000000000000000080000000000000000000000000000000000000000000000000000800000000000000000000004000000000000000000000000002000000000000000000080000000000000000000000001000000000000000000000000000000000000000000000000000000000000000000000000000000000800000000000010000000000000000000000000000001000000000000000001a000000000000000000000000000000000000000000000000000020000000000000000000000000000000000000000000008000000000000000000000",
      "transactionHash": "0x35d68235947d590c57c805565b290636aeffbebd31dcad24b110393cacc8f7dd",
      "transactionIndex": "0xdf",
      "blockHash": "0x3f40eecb590b25eaa5376aa8c68ca029a0b8b0a33d3c77bffb2d17b1bf141913",
      "blockNumber": "0xa5bafb",
      "gasUsed": "0x31156",
      "effectiveGasPrice": "0xf4254",
      "from": "0x4a779fa7d5ea106f1adfb8369e65fcaa465ca7fd",
      "to": "0xf77f543b96819c60a5a53a92dd4a685a2071f097",
      "contractAddress": null
    },
    {
      "type": "0x2",
      "status": "0x1",
      "cumulativeGasUsed": "0x1a043cc",
      "logs": [
        {
          "address": "0xf77f543b96819c60a5a53a92dd4a685a2071f097",
          "topics": [
            "0x9e95a55e57a81124d2879b79962dae944ee917f98ca302ea9dfe572f12436d14",
            "0x0000000000000000000000000000000000000000000000000000000000000000"
          ],
          "data": "0x",
          "blockHash": "0x3f40eecb590b25eaa5376aa8c68ca029a0b8b0a33d3c77bffb2d17b1bf141913",
          "blockNumber": "0xa5bafb",
          "blockTimestamp": "0x6a0800a8",
          "transactionHash": "0x051495dbbac4cb58196e731c3f4e2b6ba359b43b38395d0c8bdb1941ac094d48",
          "transactionIndex": "0xe0",
          "logIndex": "0x2ae",
          "removed": false
        }
      ],
      "logsBloom": "0x00000000000000000080000000000000000000000000000004000000000000000000000000000000000000000000000000000000000000000000000000000000000000000000000000000000000000000000000000000000000000000000000000000000020000000000000000000800000000000000000000000000000000000000000000000000000000000000000000000000000000000000000000000000000000000000000000000000000000000000000000000000000000000000000000000010800000000000000000000000000000000000000002000000000020000000000000000000000000000000000000000000008000000000000000000000",
      "transactionHash": "0x051495dbbac4cb58196e731c3f4e2b6ba359b43b38395d0c8bdb1941ac094d48",
      "transactionIndex": "0xe0",
      "blockHash": "0x3f40eecb590b25eaa5376aa8c68ca029a0b8b0a33d3c77bffb2d17b1bf141913",
      "blockNumber": "0xa5bafb",
      "gasUsed": "0xceb7",
      "effectiveGasPrice": "0xf4254",
      "from": "0x4a779fa7d5ea106f1adfb8369e65fcaa465ca7fd",
      "to": "0xede6f443a7ffe89ce4d772f9963e80779e451239",
      "contractAddress": null
    },
    {
      "type": "0x2",
      "status": "0x1",
      "cumulativeGasUsed": "0x1a1128f",
      "logs": [
        {
          "address": "0xf77f543b96819c60a5a53a92dd4a685a2071f097",
          "topics": [
            "0x9e95a55e57a81124d2879b79962dae944ee917f98ca302ea9dfe572f12436d14",
            "0x0000000000000000000000000000000000000000000000000000000000000001"
          ],
          "data": "0x",
          "blockHash": "0x3f40eecb590b25eaa5376aa8c68ca029a0b8b0a33d3c77bffb2d17b1bf141913",
          "blockNumber": "0xa5bafb",
          "blockTimestamp": "0x6a0800a8",
          "transactionHash": "0xebeebf77f120aa8536809b73d531192d876786be44cea4e6c58d3aab08e1beac",
          "transactionIndex": "0xe1",
          "logIndex": "0x2af",
          "removed": false
        }
      ],
      "logsBloom": "0x00000000000000000080000000000000000000000000000004000000000000000000000000000000000000000000000000000000000000000000000000040000000000000000000000000000000000000000000000040000000000000000000000000000000000000000000000000000000000000000000000000000000000000000000000000000000000000000000000000000000000000000000000000000000000000000000000000000000000000000000000000000000000000000000000000010800000000000000000000000000000000000000002000000000040000000000000000000000000000000000000000000008000000000000000000000",
      "transactionHash": "0xebeebf77f120aa8536809b73d531192d876786be44cea4e6c58d3aab08e1beac",
      "transactionIndex": "0xe1",
      "blockHash": "0x3f40eecb590b25eaa5376aa8c68ca029a0b8b0a33d3c77bffb2d17b1bf141913",
      "blockNumber": "0xa5bafb",
      "gasUsed": "0xcec3",
      "effectiveGasPrice": "0xf4254",
      "from": "0x4a779fa7d5ea106f1adfb8369e65fcaa465ca7fd",
      "to": "0xede6f443a7ffe89ce4d772f9963e80779e451239",
      "contractAddress": null
    },
    {
      "type": "0x2",
      "status": "0x1",
      "cumulativeGasUsed": "0x1a1e152",
      "logs": [
        {
          "address": "0xf77f543b96819c60a5a53a92dd4a685a2071f097",
          "topics": [
            "0x9e95a55e57a81124d2879b79962dae944ee917f98ca302ea9dfe572f12436d14",
            "0x0000000000000000000000000000000000000000000000000000000000000002"
          ],
          "data": "0x",
          "blockHash": "0x3f40eecb590b25eaa5376aa8c68ca029a0b8b0a33d3c77bffb2d17b1bf141913",
          "blockNumber": "0xa5bafb",
          "blockTimestamp": "0x6a0800a8",
          "transactionHash": "0x9102c2e1163d1926f1759e7ee7dca1ac94049aca9bef4ed02e48d7574316fc39",
          "transactionIndex": "0xe2",
          "logIndex": "0x2b0",
          "removed": false
        }
      ],
      "logsBloom": "0x04000000000000000080000000000000000000000000000004000000000000000000000000000000000000000000000000000000000000000000000000000000000000000000000000000000000000000000000000000000000000000000000000000000000000000000000000000000000000000000000000000000000000000000000000000000000000000000000000000000000000000000000000000000000000000000000000000100000000000000000000000000000000000000000000000010800000000000000000000000000000000000000002000000000000000000000000000000000000000000000000000000008000000000000000000000",
      "transactionHash": "0x9102c2e1163d1926f1759e7ee7dca1ac94049aca9bef4ed02e48d7574316fc39",
      "transactionIndex": "0xe2",
      "blockHash": "0x3f40eecb590b25eaa5376aa8c68ca029a0b8b0a33d3c77bffb2d17b1bf141913",
      "blockNumber": "0xa5bafb",
      "gasUsed": "0xcec3",
      "effectiveGasPrice": "0xf4254",
      "from": "0x4a779fa7d5ea106f1adfb8369e65fcaa465ca7fd",
      "to": "0xede6f443a7ffe89ce4d772f9963e80779e451239",
      "contractAddress": null
    },
    {
      "type": "0x2",
      "status": "0x1",
      "cumulativeGasUsed": "0x1a6049e",
      "logs": [
        {
          "address": "0x58ea9a07e0636369f92e50ff6d7485a1b6ddadc1",
          "topics": [
            "0xdb4798dd12ae49eda0c23c3086aabb22fb4cfdf25ece86881769b768d3efd32f",
            "0x0000000000000000000000000000000000000000000000000000000000000000",
            "0x0000000000000000000000004a779fa7d5ea106f1adfb8369e65fcaa465ca7fd"
          ],
          "data": "0x00000000000000000000000000000000000000000000000000000000000000000000000000000000000000000000000000000000000000000000000df8475800",
          "blockHash": "0x3f40eecb590b25eaa5376aa8c68ca029a0b8b0a33d3c77bffb2d17b1bf141913",
          "blockNumber": "0xa5bafb",
          "blockTimestamp": "0x6a0800a8",
          "transactionHash": "0xc5db9a907f24fa38841d9672bcfea02d0a27d565a0c9738a2525ad304372efd6",
          "transactionIndex": "0xe3",
          "logIndex": "0x2b1",
          "removed": false
        },
        {
          "address": "0x58ea9a07e0636369f92e50ff6d7485a1b6ddadc1",
          "topics": [
            "0x0b2ef56770d1730a9de1e5ea6fc5844147fcbf76ffe97aff81e6bd889ec280a7",
            "0x0000000000000000000000000000000000000000000000000000000000000000"
          ],
          "data": "0x",
          "blockHash": "0x3f40eecb590b25eaa5376aa8c68ca029a0b8b0a33d3c77bffb2d17b1bf141913",
          "blockNumber": "0xa5bafb",
          "blockTimestamp": "0x6a0800a8",
          "transactionHash": "0xc5db9a907f24fa38841d9672bcfea02d0a27d565a0c9738a2525ad304372efd6",
          "transactionIndex": "0xe3",
          "logIndex": "0x2b2",
          "removed": false
        }
      ],
      "logsBloom": "0x00000000000000000000000000000000000000000000000000000002000000000000000000000400000000000000000000800100080000000000000000000000000000000000000000000000000000000000000080000040000000000000000000000000020000000000000000000800000000000000000000000000000000000000000008000000000000000000000000000000080000000000000000000000000000000000000000000000000000000000000000000000000000000000000000000000000000000000000000000000000000000000000000000000000020000000000080000000000004000000001000000000000000000000000000000000",
      "transactionHash": "0xc5db9a907f24fa38841d9672bcfea02d0a27d565a0c9738a2525ad304372efd6",
      "transactionIndex": "0xe3",
      "blockHash": "0x3f40eecb590b25eaa5376aa8c68ca029a0b8b0a33d3c77bffb2d17b1bf141913",
      "blockNumber": "0xa5bafb",
      "gasUsed": "0x4234c",
      "effectiveGasPrice": "0xf4254",
      "from": "0x4a779fa7d5ea106f1adfb8369e65fcaa465ca7fd",
      "to": "0x58ea9a07e0636369f92e50ff6d7485a1b6ddadc1",
      "contractAddress": null
    },
    {
      "type": "0x2",
      "status": "0x1",
      "cumulativeGasUsed": "0x1aa84ee",
      "logs": [
        {
          "address": "0x58ea9a07e0636369f92e50ff6d7485a1b6ddadc1",
          "topics": [
            "0xdb4798dd12ae49eda0c23c3086aabb22fb4cfdf25ece86881769b768d3efd32f",
            "0x0000000000000000000000000000000000000000000000000000000000000001",
            "0x0000000000000000000000004a779fa7d5ea106f1adfb8369e65fcaa465ca7fd"
          ],
          "data": "0x00000000000000000000000000000000000000000000000000000000000000010000000000000000000000000000000000000000000000000000000b2d05e000",
          "blockHash": "0x3f40eecb590b25eaa5376aa8c68ca029a0b8b0a33d3c77bffb2d17b1bf141913",
          "blockNumber": "0xa5bafb",
          "blockTimestamp": "0x6a0800a8",
          "transactionHash": "0x7c9a9f31165246675d1b40e028bc325e51b8b08004eb5959fc03fba51e26d46a",
          "transactionIndex": "0xe5",
          "logIndex": "0x2b3",
          "removed": false
        },
        {
          "address": "0x58ea9a07e0636369f92e50ff6d7485a1b6ddadc1",
          "topics": [
            "0x0b2ef56770d1730a9de1e5ea6fc5844147fcbf76ffe97aff81e6bd889ec280a7",
            "0x0000000000000000000000000000000000000000000000000000000000000001"
          ],
          "data": "0x",
          "blockHash": "0x3f40eecb590b25eaa5376aa8c68ca029a0b8b0a33d3c77bffb2d17b1bf141913",
          "blockNumber": "0xa5bafb",
          "blockTimestamp": "0x6a0800a8",
          "transactionHash": "0x7c9a9f31165246675d1b40e028bc325e51b8b08004eb5959fc03fba51e26d46a",
          "transactionIndex": "0xe5",
          "logIndex": "0x2b4",
          "removed": false
        }
      ],
      "logsBloom": "0x00000000000000000000000000000000000000000000000000000002000000000000000000000400000000000000000000800100080000000000000000040000000000000000000000000000000000000000000080040040000000000000000000000000000000000000000000000000000000000000000000000000000000000000000008000000000000000000000000000000080000000000000000000000000000000000000000000000000000000000000000000000000000000000000000000000000000000000000000000000000000000000000000000000000040000000000080000000000004000000001000000000000000000000000000000000",
      "transactionHash": "0x7c9a9f31165246675d1b40e028bc325e51b8b08004eb5959fc03fba51e26d46a",
      "transactionIndex": "0xe5",
      "blockHash": "0x3f40eecb590b25eaa5376aa8c68ca029a0b8b0a33d3c77bffb2d17b1bf141913",
      "blockNumber": "0xa5bafb",
      "gasUsed": "0x42e48",
      "effectiveGasPrice": "0xf4254",
      "from": "0x4a779fa7d5ea106f1adfb8369e65fcaa465ca7fd",
      "to": "0x58ea9a07e0636369f92e50ff6d7485a1b6ddadc1",
      "contractAddress": null
    },
    {
      "type": "0x2",
      "status": "0x1",
      "cumulativeGasUsed": "0x1aeb336",
      "logs": [
        {
          "address": "0x58ea9a07e0636369f92e50ff6d7485a1b6ddadc1",
          "topics": [
            "0xdb4798dd12ae49eda0c23c3086aabb22fb4cfdf25ece86881769b768d3efd32f",
            "0x0000000000000000000000000000000000000000000000000000000000000002",
            "0x0000000000000000000000004a779fa7d5ea106f1adfb8369e65fcaa465ca7fd"
          ],
          "data": "0x0000000000000000000000000000000000000000000000000000000000000002000000000000000000000000000000000000000000000000000000059682f000",
          "blockHash": "0x3f40eecb590b25eaa5376aa8c68ca029a0b8b0a33d3c77bffb2d17b1bf141913",
          "blockNumber": "0xa5bafb",
          "blockTimestamp": "0x6a0800a8",
          "transactionHash": "0x0cdd0407d9bcb7026ce4b78660af83493c0932b706d4c0b3c7ad5b35b63bf86c",
          "transactionIndex": "0xe6",
          "logIndex": "0x2b5",
          "removed": false
        },
        {
          "address": "0x58ea9a07e0636369f92e50ff6d7485a1b6ddadc1",
          "topics": [
            "0x0b2ef56770d1730a9de1e5ea6fc5844147fcbf76ffe97aff81e6bd889ec280a7",
            "0x0000000000000000000000000000000000000000000000000000000000000002"
          ],
          "data": "0x",
          "blockHash": "0x3f40eecb590b25eaa5376aa8c68ca029a0b8b0a33d3c77bffb2d17b1bf141913",
          "blockNumber": "0xa5bafb",
          "blockTimestamp": "0x6a0800a8",
          "transactionHash": "0x0cdd0407d9bcb7026ce4b78660af83493c0932b706d4c0b3c7ad5b35b63bf86c",
          "transactionIndex": "0xe6",
          "logIndex": "0x2b6",
          "removed": false
        }
      ],
      "logsBloom": "0x04000000000000000000000000000000000000000000000000000002000000000000000000000400000000000000000000800100080000000000000000000000000000000000000000000000000000000000000080000040000000000000000000000000000000000000000000000000000000000000000000000000000000000000000008000000000000000000000000000000080000000000000000000000000000000000000000000100000000000000000000000000000000000000000000000000000000000000000000000000000000000000000000000000000000000000000080000000000004000000001000000000008000000000000000000000",
      "transactionHash": "0x0cdd0407d9bcb7026ce4b78660af83493c0932b706d4c0b3c7ad5b35b63bf86c",
      "transactionIndex": "0xe6",
      "blockHash": "0x3f40eecb590b25eaa5376aa8c68ca029a0b8b0a33d3c77bffb2d17b1bf141913",
      "blockNumber": "0xa5bafb",
      "gasUsed": "0x42e48",
      "effectiveGasPrice": "0xf4254",
      "from": "0x4a779fa7d5ea106f1adfb8369e65fcaa465ca7fd",
      "to": "0x58ea9a07e0636369f92e50ff6d7485a1b6ddadc1",
      "contractAddress": null
    },
    {
      "type": "0x2",
      "status": "0x1",
      "cumulativeGasUsed": "0x1b1ccf2",
      "logs": [
        {
          "address": "0x58ea9a07e0636369f92e50ff6d7485a1b6ddadc1",
          "topics": [
            "0xe30bd6dd5caf46905d03db87e64fcb79980cf5f0bac328ac1aa8edc66a02411a",
            "0x0000000000000000000000000000000000000000000000000000000000000000",
            "0x0000000000000000000000004a779fa7d5ea106f1adfb8369e65fcaa465ca7fd"
          ],
          "data": "0x00000000000000000000000000000000000000000000000000000000000005dc00000000000000000000000000000000000000000000000000000000000004b0",
          "blockHash": "0x3f40eecb590b25eaa5376aa8c68ca029a0b8b0a33d3c77bffb2d17b1bf141913",
          "blockNumber": "0xa5bafb",
          "blockTimestamp": "0x6a0800a8",
          "transactionHash": "0x474f18bfe655d312359fdfad7a5a1f11e8bab9b92295c0b5e7dad923c9b4006a",
          "transactionIndex": "0xe7",
          "logIndex": "0x2b7",
          "removed": false
        },
        {
          "address": "0xf77f543b96819c60a5a53a92dd4a685a2071f097",
          "topics": [
            "0xf2c7af4e27ab183637f98860df4cdd0b40c78470109111288c0cd05f1894fd66",
            "0x0000000000000000000000000000000000000000000000000000000000000000"
          ],
          "data": "0x",
          "blockHash": "0x3f40eecb590b25eaa5376aa8c68ca029a0b8b0a33d3c77bffb2d17b1bf141913",
          "blockNumber": "0xa5bafb",
          "blockTimestamp": "0x6a0800a8",
          "transactionHash": "0x474f18bfe655d312359fdfad7a5a1f11e8bab9b92295c0b5e7dad923c9b4006a",
          "transactionIndex": "0xe7",
          "logIndex": "0x2b8",
          "removed": false
        },
        {
          "address": "0x0924fc3ee14f6c46b0f44124d82c3d27c097eda9",
          "topics": [
            "0xddf252ad1be2c89b69c2b068fc378daa952ba7f163c4a11628f55a4df523b3ef",
            "0x0000000000000000000000004a779fa7d5ea106f1adfb8369e65fcaa465ca7fd",
            "0x00000000000000000000000058ea9a07e0636369f92e50ff6d7485a1b6ddadc1"
          ],
          "data": "0x00000000000000000000000000000000000000000000000000000004a817c800",
          "blockHash": "0x3f40eecb590b25eaa5376aa8c68ca029a0b8b0a33d3c77bffb2d17b1bf141913",
          "blockNumber": "0xa5bafb",
          "blockTimestamp": "0x6a0800a8",
          "transactionHash": "0x474f18bfe655d312359fdfad7a5a1f11e8bab9b92295c0b5e7dad923c9b4006a",
          "transactionIndex": "0xe7",
          "logIndex": "0x2b9",
          "removed": false
        },
        {
          "address": "0x58ea9a07e0636369f92e50ff6d7485a1b6ddadc1",
          "topics": [
            "0x4297eb34ce0f5cba5434e9e5bc90ff09dc76e8c53521965282b3b31bc2dcc4bc",
            "0x0000000000000000000000000000000000000000000000000000000000000000",
            "0x0000000000000000000000004a779fa7d5ea106f1adfb8369e65fcaa465ca7fd"
          ],
          "data": "0x00000000000000000000000000000000000000000000000000000004a817c800",
          "blockHash": "0x3f40eecb590b25eaa5376aa8c68ca029a0b8b0a33d3c77bffb2d17b1bf141913",
          "blockNumber": "0xa5bafb",
          "blockTimestamp": "0x6a0800a8",
          "transactionHash": "0x474f18bfe655d312359fdfad7a5a1f11e8bab9b92295c0b5e7dad923c9b4006a",
          "transactionIndex": "0xe7",
          "logIndex": "0x2ba",
          "removed": false
        },
        {
          "address": "0x0924fc3ee14f6c46b0f44124d82c3d27c097eda9",
          "topics": [
            "0xddf252ad1be2c89b69c2b068fc378daa952ba7f163c4a11628f55a4df523b3ef",
            "0x000000000000000000000000e6d03d06639cdc7533189f795746c875346ac323",
            "0x0000000000000000000000004a779fa7d5ea106f1adfb8369e65fcaa465ca7fd"
          ],
          "data": "0x0000000000000000000000000000000000000000000000000000000df8475800",
          "blockHash": "0x3f40eecb590b25eaa5376aa8c68ca029a0b8b0a33d3c77bffb2d17b1bf141913",
          "blockNumber": "0xa5bafb",
          "blockTimestamp": "0x6a0800a8",
          "transactionHash": "0x474f18bfe655d312359fdfad7a5a1f11e8bab9b92295c0b5e7dad923c9b4006a",
          "transactionIndex": "0xe7",
          "logIndex": "0x2bb",
          "removed": false
        },
        {
          "address": "0xe6d03d06639cdc7533189f795746c875346ac323",
          "topics": [
            "0xc4c84823a324d0b8981b8d101133d3a6c8016438b9de23219733db972f5ca90e",
            "0x0000000000000000000000004a779fa7d5ea106f1adfb8369e65fcaa465ca7fd"
          ],
          "data": "0x0000000000000000000000000000000000000000000000000000000df8475800",
          "blockHash": "0x3f40eecb590b25eaa5376aa8c68ca029a0b8b0a33d3c77bffb2d17b1bf141913",
          "blockNumber": "0xa5bafb",
          "blockTimestamp": "0x6a0800a8",
          "transactionHash": "0x474f18bfe655d312359fdfad7a5a1f11e8bab9b92295c0b5e7dad923c9b4006a",
          "transactionIndex": "0xe7",
          "logIndex": "0x2bc",
          "removed": false
        },
        {
          "address": "0x58ea9a07e0636369f92e50ff6d7485a1b6ddadc1",
          "topics": [
            "0xc3dcf8c44c73d275429bc69c4609ff1700936a2ea70bf11a98335c4e470b412c",
            "0x0000000000000000000000000000000000000000000000000000000000000000"
          ],
          "data": "0x0000000000000000000000000000000000000000000000000000000df8475800",
          "blockHash": "0x3f40eecb590b25eaa5376aa8c68ca029a0b8b0a33d3c77bffb2d17b1bf141913",
          "blockNumber": "0xa5bafb",
          "blockTimestamp": "0x6a0800a8",
          "transactionHash": "0x474f18bfe655d312359fdfad7a5a1f11e8bab9b92295c0b5e7dad923c9b4006a",
          "transactionIndex": "0xe7",
          "logIndex": "0x2bd",
          "removed": false
        }
      ],
      "logsBloom": "0x00000000000000000080000000000000000000000000000000000002000000000000000000000000000000000000000000800000082000000000000000000000000200010000000010000008100000000040080000000040000400000000010000090000020001000000000010000800000000800000000000000010000000000004000000000000000000000000000000000000080000000000000000000000000040000000000000000000000000000000000000000008000000000010000000000012000000000000000000000000000001000000000000020000040020000000010004000000000204000000008000000000008000000000000000000000",
      "transactionHash": "0x474f18bfe655d312359fdfad7a5a1f11e8bab9b92295c0b5e7dad923c9b4006a",
      "transactionIndex": "0xe7",
      "blockHash": "0x3f40eecb590b25eaa5376aa8c68ca029a0b8b0a33d3c77bffb2d17b1bf141913",
      "blockNumber": "0xa5bafb",
      "gasUsed": "0x319bc",
      "effectiveGasPrice": "0xf4254",
      "from": "0x4a779fa7d5ea106f1adfb8369e65fcaa465ca7fd",
      "to": "0x58ea9a07e0636369f92e50ff6d7485a1b6ddadc1",
      "contractAddress": null
    },
    {
      "type": "0x2",
      "status": "0x1",
      "cumulativeGasUsed": "0x1b46122",
      "logs": [
        {
          "address": "0x58ea9a07e0636369f92e50ff6d7485a1b6ddadc1",
          "topics": [
            "0xe30bd6dd5caf46905d03db87e64fcb79980cf5f0bac328ac1aa8edc66a02411a",
            "0x0000000000000000000000000000000000000000000000000000000000000002",
            "0x0000000000000000000000004a779fa7d5ea106f1adfb8369e65fcaa465ca7fd"
          ],
          "data": "0x00000000000000000000000000000000000000000000000000000000000005dc00000000000000000000000000000000000000000000000000000000000004b0",
          "blockHash": "0x3f40eecb590b25eaa5376aa8c68ca029a0b8b0a33d3c77bffb2d17b1bf141913",
          "blockNumber": "0xa5bafb",
          "blockTimestamp": "0x6a0800a8",
          "transactionHash": "0x701cc8edbe2b1cdb543b3de5a77eabc1baaaed06fbc65a89e8ac1a9b1bc75144",
          "transactionIndex": "0xe8",
          "logIndex": "0x2be",
          "removed": false
        },
        {
          "address": "0xf77f543b96819c60a5a53a92dd4a685a2071f097",
          "topics": [
            "0xf2c7af4e27ab183637f98860df4cdd0b40c78470109111288c0cd05f1894fd66",
            "0x0000000000000000000000000000000000000000000000000000000000000002"
          ],
          "data": "0x",
          "blockHash": "0x3f40eecb590b25eaa5376aa8c68ca029a0b8b0a33d3c77bffb2d17b1bf141913",
          "blockNumber": "0xa5bafb",
          "blockTimestamp": "0x6a0800a8",
          "transactionHash": "0x701cc8edbe2b1cdb543b3de5a77eabc1baaaed06fbc65a89e8ac1a9b1bc75144",
          "transactionIndex": "0xe8",
          "logIndex": "0x2bf",
          "removed": false
        },
        {
          "address": "0x0924fc3ee14f6c46b0f44124d82c3d27c097eda9",
          "topics": [
            "0xddf252ad1be2c89b69c2b068fc378daa952ba7f163c4a11628f55a4df523b3ef",
            "0x0000000000000000000000004a779fa7d5ea106f1adfb8369e65fcaa465ca7fd",
            "0x00000000000000000000000058ea9a07e0636369f92e50ff6d7485a1b6ddadc1"
          ],
          "data": "0x00000000000000000000000000000000000000000000000000000001dcd65000",
          "blockHash": "0x3f40eecb590b25eaa5376aa8c68ca029a0b8b0a33d3c77bffb2d17b1bf141913",
          "blockNumber": "0xa5bafb",
          "blockTimestamp": "0x6a0800a8",
          "transactionHash": "0x701cc8edbe2b1cdb543b3de5a77eabc1baaaed06fbc65a89e8ac1a9b1bc75144",
          "transactionIndex": "0xe8",
          "logIndex": "0x2c0",
          "removed": false
        },
        {
          "address": "0x58ea9a07e0636369f92e50ff6d7485a1b6ddadc1",
          "topics": [
            "0x4297eb34ce0f5cba5434e9e5bc90ff09dc76e8c53521965282b3b31bc2dcc4bc",
            "0x0000000000000000000000000000000000000000000000000000000000000002",
            "0x0000000000000000000000004a779fa7d5ea106f1adfb8369e65fcaa465ca7fd"
          ],
          "data": "0x00000000000000000000000000000000000000000000000000000001dcd65000",
          "blockHash": "0x3f40eecb590b25eaa5376aa8c68ca029a0b8b0a33d3c77bffb2d17b1bf141913",
          "blockNumber": "0xa5bafb",
          "blockTimestamp": "0x6a0800a8",
          "transactionHash": "0x701cc8edbe2b1cdb543b3de5a77eabc1baaaed06fbc65a89e8ac1a9b1bc75144",
          "transactionIndex": "0xe8",
          "logIndex": "0x2c1",
          "removed": false
        },
        {
          "address": "0x0924fc3ee14f6c46b0f44124d82c3d27c097eda9",
          "topics": [
            "0xddf252ad1be2c89b69c2b068fc378daa952ba7f163c4a11628f55a4df523b3ef",
            "0x000000000000000000000000e6d03d06639cdc7533189f795746c875346ac323",
            "0x0000000000000000000000004a779fa7d5ea106f1adfb8369e65fcaa465ca7fd"
          ],
          "data": "0x00000000000000000000000000000000000000000000000000000004a817c800",
          "blockHash": "0x3f40eecb590b25eaa5376aa8c68ca029a0b8b0a33d3c77bffb2d17b1bf141913",
          "blockNumber": "0xa5bafb",
          "blockTimestamp": "0x6a0800a8",
          "transactionHash": "0x701cc8edbe2b1cdb543b3de5a77eabc1baaaed06fbc65a89e8ac1a9b1bc75144",
          "transactionIndex": "0xe8",
          "logIndex": "0x2c2",
          "removed": false
        },
        {
          "address": "0xe6d03d06639cdc7533189f795746c875346ac323",
          "topics": [
            "0xc4c84823a324d0b8981b8d101133d3a6c8016438b9de23219733db972f5ca90e",
            "0x0000000000000000000000004a779fa7d5ea106f1adfb8369e65fcaa465ca7fd"
          ],
          "data": "0x00000000000000000000000000000000000000000000000000000004a817c800",
          "blockHash": "0x3f40eecb590b25eaa5376aa8c68ca029a0b8b0a33d3c77bffb2d17b1bf141913",
          "blockNumber": "0xa5bafb",
          "blockTimestamp": "0x6a0800a8",
          "transactionHash": "0x701cc8edbe2b1cdb543b3de5a77eabc1baaaed06fbc65a89e8ac1a9b1bc75144",
          "transactionIndex": "0xe8",
          "logIndex": "0x2c3",
          "removed": false
        },
        {
          "address": "0x58ea9a07e0636369f92e50ff6d7485a1b6ddadc1",
          "topics": [
            "0xc3dcf8c44c73d275429bc69c4609ff1700936a2ea70bf11a98335c4e470b412c",
            "0x0000000000000000000000000000000000000000000000000000000000000002"
          ],
          "data": "0x00000000000000000000000000000000000000000000000000000004a817c800",
          "blockHash": "0x3f40eecb590b25eaa5376aa8c68ca029a0b8b0a33d3c77bffb2d17b1bf141913",
          "blockNumber": "0xa5bafb",
          "blockTimestamp": "0x6a0800a8",
          "transactionHash": "0x701cc8edbe2b1cdb543b3de5a77eabc1baaaed06fbc65a89e8ac1a9b1bc75144",
          "transactionIndex": "0xe8",
          "logIndex": "0x2c4",
          "removed": false
        }
      ],
      "logsBloom": "0x04000000000000000080000000000000000000000000000000000002000000000000000000000000000000000000000000800000082000000000000000000000000200010000000010000008100000000040080000000040000400000000010000090000000001000000000010000000000000800000000000000010000000000004000000000000000000000000000000000000080000000000000000000000000040000000000000000100000000000000000000000008000000000010000000000012000000000000000000000000000001000000000000020000040000000000010004000000000204000000008000000000008000000000000000000000",
      "transactionHash": "0x701cc8edbe2b1cdb543b3de5a77eabc1baaaed06fbc65a89e8ac1a9b1bc75144",
      "transactionIndex": "0xe8",
      "blockHash": "0x3f40eecb590b25eaa5376aa8c68ca029a0b8b0a33d3c77bffb2d17b1bf141913",
      "blockNumber": "0xa5bafb",
      "gasUsed": "0x29430",
      "effectiveGasPrice": "0xf4254",
      "from": "0x4a779fa7d5ea106f1adfb8369e65fcaa465ca7fd",
      "to": "0x58ea9a07e0636369f92e50ff6d7485a1b6ddadc1",
      "contractAddress": null
    },
    {
      "type": "0x2",
      "status": "0x1",
      "cumulativeGasUsed": "0x1b751b3",
      "logs": [
        {
          "address": "0x0924fc3ee14f6c46b0f44124d82c3d27c097eda9",
          "topics": [
            "0xddf252ad1be2c89b69c2b068fc378daa952ba7f163c4a11628f55a4df523b3ef",
            "0x0000000000000000000000004a779fa7d5ea106f1adfb8369e65fcaa465ca7fd",
            "0x000000000000000000000000e6d03d06639cdc7533189f795746c875346ac323"
          ],
          "data": "0x00000000000000000000000000000000000000000000000000000004a817c800",
          "blockHash": "0x3f40eecb590b25eaa5376aa8c68ca029a0b8b0a33d3c77bffb2d17b1bf141913",
          "blockNumber": "0xa5bafb",
          "blockTimestamp": "0x6a0800a8",
          "transactionHash": "0x78b49851e215d85632b73ea5886aae34e19c4e5b498a8a01d24ed51a5b7a4cc4",
          "transactionIndex": "0xe9",
          "logIndex": "0x2c5",
          "removed": false
        },
        {
          "address": "0xe6d03d06639cdc7533189f795746c875346ac323",
          "topics": [
            "0xaf28ef548a3e357577842b9bd2e33678ce378c87837d3df6cb9592975552624d"
          ],
          "data": "0x00000000000000000000000000000000000000000000000000000004a817c80000000000000000000000000000000000000000000000000000000000000000000000000000000000000000000000000000000000000000000000000000000000",
          "blockHash": "0x3f40eecb590b25eaa5376aa8c68ca029a0b8b0a33d3c77bffb2d17b1bf141913",
          "blockNumber": "0xa5bafb",
          "blockTimestamp": "0x6a0800a8",
          "transactionHash": "0x78b49851e215d85632b73ea5886aae34e19c4e5b498a8a01d24ed51a5b7a4cc4",
          "transactionIndex": "0xe9",
          "logIndex": "0x2c6",
          "removed": false
        },
        {
          "address": "0xf77f543b96819c60a5a53a92dd4a685a2071f097",
          "topics": [
            "0xda7faef8e1e5dd313a1ecf7db57c82633b52c42b3b3f333d9eb278fe2a42bb1e",
            "0x0000000000000000000000000000000000000000000000000000000000000002"
          ],
          "data": "0x",
          "blockHash": "0x3f40eecb590b25eaa5376aa8c68ca029a0b8b0a33d3c77bffb2d17b1bf141913",
          "blockNumber": "0xa5bafb",
          "blockTimestamp": "0x6a0800a8",
          "transactionHash": "0x78b49851e215d85632b73ea5886aae34e19c4e5b498a8a01d24ed51a5b7a4cc4",
          "transactionIndex": "0xe9",
          "logIndex": "0x2c7",
          "removed": false
        },
        {
          "address": "0xede6f443a7ffe89ce4d772f9963e80779e451239",
          "topics": [
            "0x79c012a0cfae660e09134956bc432c8497ec80e86a3a108d130e8b3fca52b3ad",
            "0x0000000000000000000000004a779fa7d5ea106f1adfb8369e65fcaa465ca7fd"
          ],
          "data": "0x000000000000000000000000000000000000000000000000000000000000003c",
          "blockHash": "0x3f40eecb590b25eaa5376aa8c68ca029a0b8b0a33d3c77bffb2d17b1bf141913",
          "blockNumber": "0xa5bafb",
          "blockTimestamp": "0x6a0800a8",
          "transactionHash": "0x78b49851e215d85632b73ea5886aae34e19c4e5b498a8a01d24ed51a5b7a4cc4",
          "transactionIndex": "0xe9",
          "logIndex": "0x2c8",
          "removed": false
        },
        {
          "address": "0xede6f443a7ffe89ce4d772f9963e80779e451239",
          "topics": [
            "0xa311e991c0130cedecfd9e2b818f117fc1375711bc5e20c3a4eeed7a27952ff4",
            "0x0000000000000000000000004a779fa7d5ea106f1adfb8369e65fcaa465ca7fd"
          ],
          "data": "0x0000000000000000000000000000000000000000000000000000000000000001",
          "blockHash": "0x3f40eecb590b25eaa5376aa8c68ca029a0b8b0a33d3c77bffb2d17b1bf141913",
          "blockNumber": "0xa5bafb",
          "blockTimestamp": "0x6a0800a8",
          "transactionHash": "0x78b49851e215d85632b73ea5886aae34e19c4e5b498a8a01d24ed51a5b7a4cc4",
          "transactionIndex": "0xe9",
          "logIndex": "0x2c9",
          "removed": false
        },
        {
          "address": "0x0924fc3ee14f6c46b0f44124d82c3d27c097eda9",
          "topics": [
            "0xddf252ad1be2c89b69c2b068fc378daa952ba7f163c4a11628f55a4df523b3ef",
            "0x00000000000000000000000058ea9a07e0636369f92e50ff6d7485a1b6ddadc1",
            "0x0000000000000000000000004a779fa7d5ea106f1adfb8369e65fcaa465ca7fd"
          ],
          "data": "0x00000000000000000000000000000000000000000000000000000001dcd65000",
          "blockHash": "0x3f40eecb590b25eaa5376aa8c68ca029a0b8b0a33d3c77bffb2d17b1bf141913",
          "blockNumber": "0xa5bafb",
          "blockTimestamp": "0x6a0800a8",
          "transactionHash": "0x78b49851e215d85632b73ea5886aae34e19c4e5b498a8a01d24ed51a5b7a4cc4",
          "transactionIndex": "0xe9",
          "logIndex": "0x2ca",
          "removed": false
        },
        {
          "address": "0x58ea9a07e0636369f92e50ff6d7485a1b6ddadc1",
          "topics": [
            "0x0d736493ece6b7d52e34dd028d3d9d0aa75de37339f3da6b3514e70e231ed2a5",
            "0x0000000000000000000000000000000000000000000000000000000000000002",
            "0x0000000000000000000000004a779fa7d5ea106f1adfb8369e65fcaa465ca7fd"
          ],
          "data": "0x00000000000000000000000000000000000000000000000000000001dcd65000",
          "blockHash": "0x3f40eecb590b25eaa5376aa8c68ca029a0b8b0a33d3c77bffb2d17b1bf141913",
          "blockNumber": "0xa5bafb",
          "blockTimestamp": "0x6a0800a8",
          "transactionHash": "0x78b49851e215d85632b73ea5886aae34e19c4e5b498a8a01d24ed51a5b7a4cc4",
          "transactionIndex": "0xe9",
          "logIndex": "0x2cb",
          "removed": false
        },
        {
          "address": "0x58ea9a07e0636369f92e50ff6d7485a1b6ddadc1",
          "topics": [
            "0xa5d45484ad1ca2d150048172b10271197e495527669e57411c837f51a47a7ff5",
            "0x0000000000000000000000000000000000000000000000000000000000000002"
          ],
          "data": "0x",
          "blockHash": "0x3f40eecb590b25eaa5376aa8c68ca029a0b8b0a33d3c77bffb2d17b1bf141913",
          "blockNumber": "0xa5bafb",
          "blockTimestamp": "0x6a0800a8",
          "transactionHash": "0x78b49851e215d85632b73ea5886aae34e19c4e5b498a8a01d24ed51a5b7a4cc4",
          "transactionIndex": "0xe9",
          "logIndex": "0x2cc",
          "removed": false
        },
        {
          "address": "0x58ea9a07e0636369f92e50ff6d7485a1b6ddadc1",
          "topics": [
            "0x1ad611755e340443b2da9ad4b0ba6431ca00c2f6bbda5b5bdf5c7306f9ffb84a",
            "0x0000000000000000000000000000000000000000000000000000000000000002"
          ],
          "data": "0x00000000000000000000000000000000000000000000000000000004a817c8000000000000000000000000000000000000000000000000000000000000000000",
          "blockHash": "0x3f40eecb590b25eaa5376aa8c68ca029a0b8b0a33d3c77bffb2d17b1bf141913",
          "blockNumber": "0xa5bafb",
          "blockTimestamp": "0x6a0800a8",
          "transactionHash": "0x78b49851e215d85632b73ea5886aae34e19c4e5b498a8a01d24ed51a5b7a4cc4",
          "transactionIndex": "0xe9",
          "logIndex": "0x2cd",
          "removed": false
        }
      ],
      "logsBloom": "0x04000010000000000080100000000000000000000000000000000002000000000000000000000000000000000000000000800000082000400000000000000000800800024000000010000008000000800000000020000040000000000000010000010800000001000800020000000000000000000000000000100010000000000004008000000000002000000000004000000000080000000100000000000000000040000000000000000100000000800000000002000000000000000000000000000012000000400000000000000000000000000000000000010000040000000000010004000000000004000000008000000000008400000000002000000000",
      "transactionHash": "0x78b49851e215d85632b73ea5886aae34e19c4e5b498a8a01d24ed51a5b7a4cc4",
      "transactionIndex": "0xe9",
      "blockHash": "0x3f40eecb590b25eaa5376aa8c68ca029a0b8b0a33d3c77bffb2d17b1bf141913",
      "blockNumber": "0xa5bafb",
      "gasUsed": "0x2f091",
      "effectiveGasPrice": "0xf4254",
      "from": "0x4a779fa7d5ea106f1adfb8369e65fcaa465ca7fd",
      "to": "0x58ea9a07e0636369f92e50ff6d7485a1b6ddadc1",
      "contractAddress": null
    }
  ],
  "libraries": [],
  "pending": [],
  "returns": {
    "result": {
      "internal_type": "struct SeedHKPayFi.SeedResult",
      "value": "(0x4A779fA7d5eA106f1aDFB8369e65fCAA465ca7Fd, 0x4A779fA7d5eA106f1aDFB8369e65fCAA465ca7Fd, 0x4A779fA7d5eA106f1aDFB8369e65fCAA465ca7Fd, 0x4A779fA7d5eA106f1aDFB8369e65fCAA465ca7Fd, 0x000000000000000000000000000000000000bEEF, 0, 1, 2, 0, 1, 2)"
    }
  },
  "timestamp": 1778909353779,
  "chain": 11155111,
  "commit": "32de24b"
}