{
  "transactions": [
    {
      "hash": "0xa61777631ff2d6376e527eb857ba65bdd3df34469d16af9f3ddfa1a51d09e13e",
      "transactionType": "CALL",
      "contractName": null,
      "contractAddress": "0xd38319f51b5cff79b5db424aeac4902571aa67e2",
      "function": "grantRole(bytes32,address)",
      "arguments": [
        "0x4848aa3d2c0568bab3ca9720f91818ee0957e95426fa0627cc4809e2e5ed8be0",
        "0xC795C562d5e21b1F52FFa19b3F34d7bDb5A27c04"
      ],
      "transaction": {
        "from": "0x4a779fa7d5ea106f1adfb8369e65fcaa465ca7fd",
        "to": "0xd38319f51b5cff79b5db424aeac4902571aa67e2",
        "gas": "0x9e2d",
        "value": "0x0",
        "input": "0x2f2ff15d4848aa3d2c0568bab3ca9720f91818ee0957e95426fa0627cc4809e2e5ed8be0000000000000000000000000c795c562d5e21b1f52ffa19b3f34d7bdb5a27c04",
        "nonce": "0x10",
        "chainId": "0xaa36a7"
      },
      "additionalContracts": [],
      "isFixedGasLimit": false
    },
    {
      "hash": "0x08e4c748b374e57b642692da0ca1a62bc60da74c18138ab9da15f24f7ac56beb",
      "transactionType": "CALL",
      "contractName": null,
      "contractAddress": "0xd38319f51b5cff79b5db424aeac4902571aa67e2",
      "function": "grantRole(bytes32,address)",
      "arguments": [
        "0x13afe234b87b250e27c8e9cd269d4ebfc7af20d3fd4a3d9ade8196eb1de7d003",
        "0x12A0B1E30d28Aa0A57ac1064321b4F9b12b40F48"
      ],
      "transaction": {
        "from": "0x4a779fa7d5ea106f1adfb8369e65fcaa465ca7fd",
        "to": "0xd38319f51b5cff79b5db424aeac4902571aa67e2",
        "gas": "0x9e2d",
        "value": "0x0",
        "input": "0x2f2ff15d13afe234b87b250e27c8e9cd269d4ebfc7af20d3fd4a3d9ade8196eb1de7d00300000000000000000000000012a0b1e30d28aa0a57ac1064321b4f9b12b40f48",
        "nonce": "0x11",
        "chainId": "0xaa36a7"
      },
      "additionalContracts": [],
      "isFixedGasLimit": false
    },
    {
      "hash": "0x83c2375e0f45ec73495e3f88163ee38ba34add47414f040452e6b33ae62ff4a6",
      "transactionType": "CALL",
      "contractName": null,
      "contractAddress": "0x01eaaa0277501d16b7ae3cfbd3bd6a7f4a8815cc",
      "function": "mint(address,uint256)",
      "arguments": [
        "0x4A779fA7d5eA106f1aDFB8369e65fCAA465ca7Fd",
        "250000000000"
      ],
      "transaction": {
        "from": "0x4a779fa7d5ea106f1adfb8369e65fcaa465ca7fd",
        "to": "0x01eaaa0277501d16b7ae3cfbd3bd6a7f4a8815cc",
        "gas": "0x17100",
        "value": "0x0",
        "input": "0x40c10f190000000000000000000000004a779fa7d5ea106f1adfb8369e65fcaa465ca7fd0000000000000000000000000000000000000000000000000000003a35294400",
        "nonce": "0x12",
        "chainId": "0xaa36a7"
      },
      "additionalContracts": [],
      "isFixedGasLimit": false
    },
    {
      "hash": "0x6c4b080c71d24284113e6e41d1596a544f045de8a914fce56539f0dd4d031be0",
      "transactionType": "CALL",
      "contractName": null,
      "contractAddress": "0x01eaaa0277501d16b7ae3cfbd3bd6a7f4a8815cc",
      "function": "mint(address,uint256)",
      "arguments": [
        "0x4A779fA7d5eA106f1aDFB8369e65fCAA465ca7Fd",
        "100000000000"
      ],
      "transaction": {
        "from": "0x4a779fa7d5ea106f1adfb8369e65fcaa465ca7fd",
        "to": "0x01eaaa0277501d16b7ae3cfbd3bd6a7f4a8815cc",
        "gas": "0xb879",
        "value": "0x0",
        "input": "0x40c10f190000000000000000000000004a779fa7d5ea106f1adfb8369e65fcaa465ca7fd000000000000000000000000000000000000000000000000000000174876e800",
        "nonce": "0x13",
        "chainId": "0xaa36a7"
      },
      "additionalContracts": [],
      "isFixedGasLimit": false
    },
    {
      "hash": "0x330e1bd03df4b8e08216e6b9431b168c2e466e8872fe9c685f3001ac663dbba1",
      "transactionType": "CALL",
      "contractName": null,
      "contractAddress": "0xfa0933aa0073ba4230080c819bc7e42e14fca7c1",
      "function": "mint(address,uint256)",
      "arguments": [
        "0x4A779fA7d5eA106f1aDFB8369e65fCAA465ca7Fd",
        "2000000000000000000000"
      ],
      "transaction": {
        "from": "0x4a779fa7d5ea106f1adfb8369e65fcaa465ca7fd",
        "to": "0xfa0933aa0073ba4230080c819bc7e42e14fca7c1",
        "gas": "0x194aa",
        "value": "0x0",
        "input": "0x40c10f190000000000000000000000004a779fa7d5ea106f1adfb8369e65fcaa465ca7fd00000000000000000000000000000000000000000000006c6b935b8bbd400000",
        "nonce": "0x14",
        "chainId": "0xaa36a7"
      },
      "additionalContracts": [],
      "isFixedGasLimit": false
    },
    {
      "hash": "0x3ccaaeaa7538e82195add39e4b979e8b8bdfc04a536a40c8094fba50d8b2c4bd",
      "transactionType": "CALL",
      "contractName": null,
      "contractAddress": "0xc795c562d5e21b1f52ffa19b3f34d7bdb5a27c04",
      "function": "approveBorrower(address,uint256,uint256,uint256)",
      "arguments": [
        "0x4A779fA7d5eA106f1aDFB8369e65fCAA465ca7Fd",
        "200000000000",
        "1500",
        "6000"
      ],
      "transaction": {
        "from": "0x4a779fa7d5ea106f1adfb8369e65fcaa465ca7fd",
        "to": "0xc795c562d5e21b1f52ffa19b3f34d7bdb5a27c04",
        "gas": "0x393fb",
        "value": "0x0",
        "input": "0x5ecf46680000000000000000000000004a779fa7d5ea106f1adfb8369e65fcaa465ca7fd0000000000000000000000000000000000000000000000000000002e90edd00000000000000000000000000000000000000000000000000000000000000005dc0000000000000000000000000000000000000000000000000000000000001770",
        "nonce": "0x15",
        "chainId": "0xaa36a7"
      },
      "additionalContracts": [],
      "isFixedGasLimit": false
    },
    {
      "hash": "0xc2ca11ff497829112c03397932637e44b3bef38f3da6441f529860e6dfa9bab0",
      "transactionType": "CALL",
      "contractName": null,
      "contractAddress": "0x01eaaa0277501d16b7ae3cfbd3bd6a7f4a8815cc",
      "function": "approve(address,uint256)",
      "arguments": [
        "0x73489286d465bAcdc78388A80BDf3a5A68f3560B",
        "200000000000"
      ],
      "transaction": {
        "from": "0x4a779fa7d5ea106f1adfb8369e65fcaa465ca7fd",
        "to": "0x01eaaa0277501d16b7ae3cfbd3bd6a7f4a8815cc",
        "gas": "0xfa09",
        "value": "0x0",
        "input": "0x095ea7b300000000000000000000000073489286d465bacdc78388a80bdf3a5a68f3560b0000000000000000000000000000000000000000000000000000002e90edd000",
        "nonce": "0x16",
        "chainId": "0xaa36a7"
      },
      "additionalContracts": [],
      "isFixedGasLimit": false
    },
    {
      "hash": "0x64ce1faa63526e46eae03e277597949218825eb79896563fa192363b67007ede",
      "transactionType": "CALL",
      "contractName": null,
      "contractAddress": "0x73489286d465bacdc78388a80bdf3a5a68f3560b",
      "function": "deposit(uint256,address)",
      "arguments": [
        "200000000000",
        "0x4A779fA7d5eA106f1aDFB8369e65fCAA465ca7Fd"
      ],
      "transaction": {
        "from": "0x4a779fa7d5ea106f1adfb8369e65fcaa465ca7fd",
        "to": "0x73489286d465bacdc78388a80bdf3a5a68f3560b",
        "gas": "0x299d0",
        "value": "0x0",
        "input": "0x6e553f650000000000000000000000000000000000000000000000000000002e90edd0000000000000000000000000004a779fa7d5ea106f1adfb8369e65fcaa465ca7fd",
        "nonce": "0x17",
        "chainId": "0xaa36a7"
      },
      "additionalContracts": [],
      "isFixedGasLimit": false
    },
    {
      "hash": "0xfaba2a5fb654ac935e66a1500b1180e7e54089988d1fdf5c3f3e903f1f7e84a3",
      "transactionType": "CALL",
      "contractName": null,
      "contractAddress": "0x01eaaa0277501d16b7ae3cfbd3bd6a7f4a8815cc",
      "function": "approve(address,uint256)",
      "arguments": [
        "0x12A0B1E30d28Aa0A57ac1064321b4F9b12b40F48",
        "115792089237316195423570985008687907853269984665640564039457584007913129639935"
      ],
      "transaction": {
        "from": "0x4a779fa7d5ea106f1adfb8369e65fcaa465ca7fd",
        "to": "0x01eaaa0277501d16b7ae3cfbd3bd6a7f4a8815cc",
        "gas": "0xfbd9",
        "value": "0x0",
        "input": "0x095ea7b300000000000000000000000012a0b1e30d28aa0a57ac1064321b4f9b12b40f48ffffffffffffffffffffffffffffffffffffffffffffffffffffffffffffffff",
        "nonce": "0x18",
        "chainId": "0xaa36a7"
      },
      "additionalContracts": [],
      "isFixedGasLimit": false
    },
    {
      "hash": "0x51789712641b2f0e34ec4a181697992e997ee8a7cf835e7ad3fb4cc6f186c986",
      "transactionType": "CALL",
      "contractName": null,
      "contractAddress": "0xd38319f51b5cff79b5db424aeac4902571aa67e2",
      "function": "mint(address,uint256,uint256,string)",
      "arguments": [
        "0x000000000000000000000000000000000000bEEF",
        "100000000000",
        "1783236168",
        "SEED-ACTIVE-001"
      ],
      "transaction": {
        "from": "0x4a779fa7d5ea106f1adfb8369e65fcaa465ca7fd",
        "to": "0xd38319f51b5cff79b5db424aeac4902571aa67e2",
        "gas": "0x4f544",
        "value": "0x0",
        "input": "0xbb7fde71000000000000000000000000000000000000000000000000000000000000beef000000000000000000000000000000000000000000000000000000174876e800000000000000000000000000000000000000000000000000000000006a4a06480000000000000000000000000000000000000000000000000000000000000080000000000000000000000000000000000000000000000000000000000000000f534545442d4143544956452d3030310000000000000000000000000000000000",
        "nonce": "0x19",
        "chainId": "0xaa36a7"
      },
      "additionalContracts": [],
      "isFixedGasLimit": false
    },
    {
      "hash": "0x2f0278e5390a7a8759e6e2dbb0c2369d8137e6d962d4a9efb01dd81ef0ffd245",
      "transactionType": "CALL",
      "contractName": null,
      "contractAddress": "0xd38319f51b5cff79b5db424aeac4902571aa67e2",
      "function": "mint(address,uint256,uint256,string)",
      "arguments": [
        "0x000000000000000000000000000000000000bEEF",
        "80000000000",
        "1784532168",
        "SEED-APPROVED-001"
      ],
      "transaction": {
        "from": "0x4a779fa7d5ea106f1adfb8369e65fcaa465ca7fd",
        "to": "0xd38319f51b5cff79b5db424aeac4902571aa67e2",
        "gas": "0x43cde",
        "value": "0x0",
        "input": "0xbb7fde71000000000000000000000000000000000000000000000000000000000000beef00000000000000000000000000000000000000000000000000000012a05f2000000000000000000000000000000000000000000000000000000000006a5dccc800000000000000000000000000000000000000000000000000000000000000800000000000000000000000000000000000000000000000000000000000000011534545442d415050524f5645442d303031000000000000000000000000000000",
        "nonce": "0x1a",
        "chainId": "0xaa36a7"
      },
      "additionalContracts": [],
      "isFixedGasLimit": false
    },
    {
      "hash": "0xa86c1bc21345cffdfd25a045b142d56478b64310e6b8aa8fe358f7449e02c596",
      "transactionType": "CALL",
      "contractName": null,
      "contractAddress": "0xd38319f51b5cff79b5db424aeac4902571aa67e2",
      "function": "mint(address,uint256,uint256,string)",
      "arguments": [
        "0x000000000000000000000000000000000000bEEF",
        "40000000000",
        "1780644168",
        "SEED-REPAID-001"
      ],
      "transaction": {
        "from": "0x4a779fa7d5ea106f1adfb8369e65fcaa465ca7fd",
        "to": "0xd38319f51b5cff79b5db424aeac4902571aa67e2",
        "gas": "0x43cbe",
        "value": "0x0",
        "input": "0xbb7fde71000000000000000000000000000000000000000000000000000000000000beef00000000000000000000000000000000000000000000000000000009502f9000000000000000000000000000000000000000000000000000000000006a2279480000000000000000000000000000000000000000000000000000000000000080000000000000000000000000000000000000000000000000000000000000000f534545442d5245504149442d3030310000000000000000000000000000000000",
        "nonce": "0x1b",
        "chainId": "0xaa36a7"
      },
      "additionalContracts": [],
      "isFixedGasLimit": false
    },
    {
      "hash": "0x78222354074d286b0e908e9b7ed892cd238213896f93eb76538db4b6582fc24b",
      "transactionType": "CALL",
      "contractName": null,
      "contractAddress": "0xc795c562d5e21b1f52ffa19b3f34d7bdb5a27c04",
      "function": "approveReceivable(uint256)",
      "arguments": [
        "0"
      ],
      "transaction": {
        "from": "0x4a779fa7d5ea106f1adfb8369e65fcaa465ca7fd",
        "to": "0xc795c562d5e21b1f52ffa19b3f34d7bdb5a27c04",
        "gas": "0x12e31",
        "value": "0x0",
        "input": "0x6ae51aad0000000000000000000000000000000000000000000000000000000000000000",
        "nonce": "0x1c",
        "chainId": "0xaa36a7"
      },
      "additionalContracts": [],
      "isFixedGasLimit": false
    },
    {
      "hash": "0x98c1c9a719ce8449ea4e4ccc4afe0e67030ce04e626b0eb6980957cdc698e3fb",
      "transactionType": "CALL",
      "contractName": null,
      "contractAddress": "0xc795c562d5e21b1f52ffa19b3f34d7bdb5a27c04",
      "function": "approveReceivable(uint256)",
      "arguments": [
        "1"
      ],
      "transaction": {
        "from": "0x4a779fa7d5ea106f1adfb8369e65fcaa465ca7fd",
        "to": "0xc795c562d5e21b1f52ffa19b3f34d7bdb5a27c04",
        "gas": "0x11d77",
        "value": "0x0",
        "input": "0x6ae51aad0000000000000000000000000000000000000000000000000000000000000001",
        "nonce": "0x1d",
        "chainId": "0xaa36a7"
      },
      "additionalContracts": [],
      "isFixedGasLimit": false
    },
    {
      "hash": "0x9004d72e122044b436a8d0398a192980f475defaf39f92abcf3ea902a24ec39b",
      "transactionType": "CALL",
      "contractName": null,
      "contractAddress": "0xc795c562d5e21b1f52ffa19b3f34d7bdb5a27c04",
      "function": "approveReceivable(uint256)",
      "arguments": [
        "2"
      ],
      "transaction": {
        "from": "0x4a779fa7d5ea106f1adfb8369e65fcaa465ca7fd",
        "to": "0xc795c562d5e21b1f52ffa19b3f34d7bdb5a27c04",
        "gas": "0x11d77",
        "value": "0x0",
        "input": "0x6ae51aad0000000000000000000000000000000000000000000000000000000000000002",
        "nonce": "0x1e",
        "chainId": "0xaa36a7"
      },
      "additionalContracts": [],
      "isFixedGasLimit": false
    },
    {
      "hash": "0x8f77ccf4255b74c3da61eacc4d6053c628cd2fecf941b9c8792ee573d4219856",
      "transactionType": "CALL",
      "contractName": null,
      "contractAddress": "0x12a0b1e30d28aa0a57ac1064321b4f9b12b40f48",
      "function": "applyForCredit(uint256)",
      "arguments": [
        "0"
      ],
      "transaction": {
        "from": "0x4a779fa7d5ea106f1adfb8369e65fcaa465ca7fd",
        "to": "0x12a0b1e30d28aa0a57ac1064321b4f9b12b40f48",
        "gas": "0x5b6cf",
        "value": "0x0",
        "input": "0xd03604cf0000000000000000000000000000000000000000000000000000000000000000",
        "nonce": "0x1f",
        "chainId": "0xaa36a7"
      },
      "additionalContracts": [],
      "isFixedGasLimit": false
    },
    {
      "hash": "0xbd34879e0e91132e265ed61f4f0208ca7c3dadc509c6e1d5af1015749cf64ebd",
      "transactionType": "CALL",
      "contractName": null,
      "contractAddress": "0x12a0b1e30d28aa0a57ac1064321b4f9b12b40f48",
      "function": "applyForCredit(uint256)",
      "arguments": [
        "1"
      ],
      "transaction": {
        "from": "0x4a779fa7d5ea106f1adfb8369e65fcaa465ca7fd",
        "to": "0x12a0b1e30d28aa0a57ac1064321b4f9b12b40f48",
        "gas": "0x61ced",
        "value": "0x0",
        "input": "0xd03604cf0000000000000000000000000000000000000000000000000000000000000001",
        "nonce": "0x20",
        "chainId": "0xaa36a7"
      },
      "additionalContracts": [],
      "isFixedGasLimit": false
    },
    {
      "hash": "0x76341dbfb916763b569788765bc18a6fd23ca54621f23cfd5b8db2329a9b5b39",
      "transactionType": "CALL",
      "contractName": null,
      "contractAddress": "0x12a0b1e30d28aa0a57ac1064321b4f9b12b40f48",
      "function": "applyForCredit(uint256)",
      "arguments": [
        "2"
      ],
      "transaction": {
        "from": "0x4a779fa7d5ea106f1adfb8369e65fcaa465ca7fd",
        "to": "0x12a0b1e30d28aa0a57ac1064321b4f9b12b40f48",
        "gas": "0x61ced",
        "value": "0x0",
        "input": "0xd03604cf0000000000000000000000000000000000000000000000000000000000000002",
        "nonce": "0x21",
        "chainId": "0xaa36a7"
      },
      "additionalContracts": [],
      "isFixedGasLimit": false
    },
    {
      "hash": "0x957de7aadb963c90eafe571b4e252960f7f4faf6d15aea2d548b34449f8bb44e",
      "transactionType": "CALL",
      "contractName": null,
      "contractAddress": "0x12a0b1e30d28aa0a57ac1064321b4f9b12b40f48",
      "function": "drawdown(uint256,uint256)",
      "arguments": [
        "0",
        "60000000000"
      ],
      "transaction": {
        "from": "0x4a779fa7d5ea106f1adfb8369e65fcaa465ca7fd",
        "to": "0x12a0b1e30d28aa0a57ac1064321b4f9b12b40f48",
        "gas": "0x44857",
        "value": "0x0",
        "input": "0x5d7621c700000000000000000000000000000000000000000000000000000000000000000000000000000000000000000000000000000000000000000000000df8475800",
        "nonce": "0x22",
        "chainId": "0xaa36a7"
      },
      "additionalContracts": [],
      "isFixedGasLimit": false
    },
    {
      "hash": "0xc923b3fe204b1186d7c851601e6767bde692f496441542bb5a5e83bb1edad238",
      "transactionType": "CALL",
      "contractName": null,
      "contractAddress": "0x12a0b1e30d28aa0a57ac1064321b4f9b12b40f48",
      "function": "drawdown(uint256,uint256)",
      "arguments": [
        "2",
        "20000000000"
      ],
      "transaction": {
        "from": "0x4a779fa7d5ea106f1adfb8369e65fcaa465ca7fd",
        "to": "0x12a0b1e30d28aa0a57ac1064321b4f9b12b40f48",
        "gas": "0x38fe2",
        "value": "0x0",
        "input": "0x5d7621c7000000000000000000000000000000000000000000000000000000000000000200000000000000000000000000000000000000000000000000000004a817c800",
        "nonce": "0x23",
        "chainId": "0xaa36a7"
      },
      "additionalContracts": [],
      "isFixedGasLimit": false
    },
    {
      "hash": "0xce1944154f2aa0128ce662818a15983a7ffb86354dd3f301f396c06ac6ea2e58",
      "transactionType": "CALL",
      "contractName": null,
      "contractAddress": "0x12a0b1e30d28aa0a57ac1064321b4f9b12b40f48",
      "function": "repay(uint256,uint256)",
      "arguments": [
        "2",
        "20000000000"
      ],
      "transaction": {
        "from": "0x4a779fa7d5ea106f1adfb8369e65fcaa465ca7fd",
        "to": "0x12a0b1e30d28aa0a57ac1064321b4f9b12b40f48",
        "gas": "0x40f3e",
        "value": "0x0",
        "input": "0xd8aed145000000000000000000000000000000000000000000000000000000000000000200000000000000000000000000000000000000000000000000000004a817c800",
        "nonce": "0x24",
        "chainId": "0xaa36a7"
      },
      "additionalContracts": [],
      "isFixedGasLimit": false
    }
  ],
  "receipts": [
    {
      "status": "0x1",
      "cumulativeGasUsed": "0x13935ce",
      "logs": [],
      "logsBloom": "0x00000000000000000000000000000000000000000000000000000000000000000000000000000000000000000000000000000000000000000000000000000000000000000000000000000000000000000000000000000000000000000000000000000000000000000000000000000000000000000000000000000000000000000000000000000000000000000000000000000000000000000000000000000000000000000000000000000000000000000000000000000000000000000000000000000000000000000000000000000000000000000000000000000000000000000000000000000000000000000000000000000000000000000000000000000000",
      "type": "0x2",
      "transactionHash": "0x3ccaaeaa7538e82195add39e4b979e8b8bdfc04a536a40c8094fba50d8b2c4bd",
      "transactionIndex": "0x75",
      "blockHash": "0x110c35809026d1070516fd8dc2ef33d4f86fd185855aae18b66e3f5e16551537",
      "blockNumber": "0xa4cb18",
      "gasUsed": "0x7285",
      "effectiveGasPrice": "0xf4289",
      "from": "0x4a779fa7d5ea106f1adfb8369e65fcaa465ca7fd",
      "to": "0xd38319f51b5cff79b5db424aeac4902571aa67e2",
      "contractAddress": null
    },
    {
      "status": "0x1",
      "cumulativeGasUsed": "0x13c26a8",
      "logs": [],
      "logsBloom": "0x00000000000000000000000000000000000000000000000000000000000000000000000000000000000000000000000000000000000000000000000000000000000000000000000000000000000000000000000000000000000000000000000000000000000000000000000000000000000000000000000000000000000000000000000000000000000000000000000000000000000000000000000000000000000000000000000000000000000000000000000000000000000000000000000000000000000000000000000000000000000000000000000000000000000000000000000000000000000000000000000000000000000000000000000000000000",
      "type": "0x2",
      "transactionHash": "0x6c4b080c71d24284113e6e41d1596a544f045de8a914fce56539f0dd4d031be0",
      "transactionIndex": "0x78",
      "blockHash": "0x110c35809026d1070516fd8dc2ef33d4f86fd185855aae18b66e3f5e16551537",
      "blockNumber": "0xa4cb18",
      "gasUsed": "0x7285",
      "effectiveGasPrice": "0xf4289",
      "from": "0x4a779fa7d5ea106f1adfb8369e65fcaa465ca7fd",
      "to": "0xd38319f51b5cff79b5db424aeac4902571aa67e2",
      "contractAddress": null
    },
    {
      "status": "0x1",
      "cumulativeGasUsed": "0x13d31cf",
      "logs": [
        {
          "address": "0x01eaaa0277501d16b7ae3cfbd3bd6a7f4a8815cc",
          "topics": [
            "0xddf252ad1be2c89b69c2b068fc378daa952ba7f163c4a11628f55a4df523b3ef",
            "0x0000000000000000000000000000000000000000000000000000000000000000",
            "0x0000000000000000000000004a779fa7d5ea106f1adfb8369e65fcaa465ca7fd"
          ],
          "data": "0x0000000000000000000000000000000000000000000000000000003a35294400",
          "blockHash": "0x110c35809026d1070516fd8dc2ef33d4f86fd185855aae18b66e3f5e16551537",
          "blockNumber": "0xa4cb18",
          "blockTimestamp": "0x69faeca8",
          "transactionHash": "0x98c1c9a719ce8449ea4e4ccc4afe0e67030ce04e626b0eb6980957cdc698e3fb",
          "transactionIndex": "0x79",
          "logIndex": "0x2ac",
          "removed": false
        }
      ],
      "logsBloom": "0x00000002000000000000000000000000000000000000000000000002000000000000000000000000000000000000000000800000000000000000000000000000000000000000000000000008000000000000000000000040000000000000000000000000020000000000000000000800000000000000000000000010000000000000000000000000000000000000000000000000000000000000000000000000000000000000000000000000000000000000000000000000000000004000000000000002000000000000000000000000000000000000000000000000000020000000000000000000000100000000000000000000000000000000000000000000",
      "type": "0x2",
      "transactionHash": "0x98c1c9a719ce8449ea4e4ccc4afe0e67030ce04e626b0eb6980957cdc698e3fb",
      "transactionIndex": "0x79",
      "blockHash": "0x110c35809026d1070516fd8dc2ef33d4f86fd185855aae18b66e3f5e16551537",
      "blockNumber": "0xa4cb18",
      "gasUsed": "0x10b27",
      "effectiveGasPrice": "0xf4289",
      "from": "0x4a779fa7d5ea106f1adfb8369e65fcaa465ca7fd",
      "to": "0x01eaaa0277501d16b7ae3cfbd3bd6a7f4a8815cc",
      "contractAddress": null
    },
    {
      "status": "0x1",
      "cumulativeGasUsed": "0x13db75e",
      "logs": [
        {
          "address": "0x01eaaa0277501d16b7ae3cfbd3bd6a7f4a8815cc",
          "topics": [
            "0xddf252ad1be2c89b69c2b068fc378daa952ba7f163c4a11628f55a4df523b3ef",
            "0x0000000000000000000000000000000000000000000000000000000000000000",
            "0x0000000000000000000000004a779fa7d5ea106f1adfb8369e65fcaa465ca7fd"
          ],
          "data": "0x000000000000000000000000000000000000000000000000000000174876e800",
          "blockHash": "0x110c35809026d1070516fd8dc2ef33d4f86fd185855aae18b66e3f5e16551537",
          "blockNumber": "0xa4cb18",
          "blockTimestamp": "0x69faeca8",
          "transactionHash": "0x83c2375e0f45ec73495e3f88163ee38ba34add47414f040452e6b33ae62ff4a6",
          "transactionIndex": "0x7a",
          "logIndex": "0x2ad",
          "removed": false
        }
      ],
      "logsBloom": "0x00000002000000000000000000000000000000000000000000000002000000000000000000000000000000000000000000800000000000000000000000000000000000000000000000000008000000000000000000000040000000000000000000000000020000000000000000000800000000000000000000000010000000000000000000000000000000000000000000000000000000000000000000000000000000000000000000000000000000000000000000000000000000004000000000000002000000000000000000000000000000000000000000000000000020000000000000000000000100000000000000000000000000000000000000000000",
      "type": "0x2",
      "transactionHash": "0x83c2375e0f45ec73495e3f88163ee38ba34add47414f040452e6b33ae62ff4a6",
      "transactionIndex": "0x7a",
      "blockHash": "0x110c35809026d1070516fd8dc2ef33d4f86fd185855aae18b66e3f5e16551537",
      "blockNumber": "0xa4cb18",
      "gasUsed": "0x858f",
      "effectiveGasPrice": "0xf4289",
      "from": "0x4a779fa7d5ea106f1adfb8369e65fcaa465ca7fd",
      "to": "0x01eaaa0277501d16b7ae3cfbd3bd6a7f4a8815cc",
      "contractAddress": null
    },
    {
      "status": "0x1",
      "cumulativeGasUsed": "0x13ecc10",
      "logs": [
        {
          "address": "0xfa0933aa0073ba4230080c819bc7e42e14fca7c1",
          "topics": [
            "0xddf252ad1be2c89b69c2b068fc378daa952ba7f163c4a11628f55a4df523b3ef",
            "0x0000000000000000000000000000000000000000000000000000000000000000",
            "0x0000000000000000000000004a779fa7d5ea106f1adfb8369e65fcaa465ca7fd"
          ],
          "data": "0x00000000000000000000000000000000000000000000006c6b935b8bbd400000",
          "blockHash": "0x110c35809026d1070516fd8dc2ef33d4f86fd185855aae18b66e3f5e16551537",
          "blockNumber": "0xa4cb18",
          "blockTimestamp": "0x69faeca8",
          "transactionHash": "0xfaba2a5fb654ac935e66a1500b1180e7e54089988d1fdf5c3f3e903f1f7e84a3",
          "transactionIndex": "0x7b",
          "logIndex": "0x2ae",
          "removed": false
        }
      ],
      "logsBloom": "0x00000000000000000000000800000000000000000000000000000002000000000000000000000000000000000000000000800000000000000000000000000000000000000000000000000008000000000000000000000040000000000000000000000000020040000000000000000800000000000000000000000010000000000000000000000000000000000000000000000000000000000000000000000000000000000000000000000000000000000000000000000000000000000000000000000002008000000000000000000000000000000000000000000000000020000000000000000000000000000000000000000000000000000000000000000000",
      "type": "0x2",
      "transactionHash": "0xfaba2a5fb654ac935e66a1500b1180e7e54089988d1fdf5c3f3e903f1f7e84a3",
      "transactionIndex": "0x7b",
      "blockHash": "0x110c35809026d1070516fd8dc2ef33d4f86fd185855aae18b66e3f5e16551537",
      "blockNumber": "0xa4cb18",
      "gasUsed": "0x114b2",
      "effectiveGasPrice": "0xf4289",
      "from": "0x4a779fa7d5ea106f1adfb8369e65fcaa465ca7fd",
      "to": "0xfa0933aa0073ba4230080c819bc7e42e14fca7c1",
      "contractAddress": null
    },
    {
      "status": "0x1",
      "cumulativeGasUsed": "0x1416338",
      "logs": [
        {
          "address": "0xc795c562d5e21b1f52ffa19b3f34d7bdb5a27c04",
          "topics": [
            "0x436b2c1d7aab524ba2bbafa3b3a8f36f8e66f22db6d06d62ce288787ce0c3262",
            "0x0000000000000000000000004a779fa7d5ea106f1adfb8369e65fcaa465ca7fd"
          ],
          "data": "0x0000000000000000000000000000000000000000000000000000002e90edd00000000000000000000000000000000000000000000000000000000000000005dc0000000000000000000000000000000000000000000000000000000000001770",
          "blockHash": "0x110c35809026d1070516fd8dc2ef33d4f86fd185855aae18b66e3f5e16551537",
          "blockNumber": "0xa4cb18",
          "blockTimestamp": "0x69faeca8",
          "transactionHash": "0x08e4c748b374e57b642692da0ca1a62bc60da74c18138ab9da15f24f7ac56beb",
          "transactionIndex": "0x7c",
          "logIndex": "0x2af",
          "removed": false
        }
      ],
      "logsBloom": "0x00000000000000000000000000000000000000000000000000000002000000000000000000000000000000000004000000800000000000000000000000000000000000000000000000000000004000000000000000000040000000000000100000000800000000000000002000000000000000000000000000000000000000000000000000000000000000000000000000000000000000000000000000000000000000000100000000000000000000000000000000000000000000000000000000000000000000000000000000000000000000000000000000000000000000000000000000000000000000000000000000000000000000000000000000000000",
      "type": "0x2",
      "transactionHash": "0x08e4c748b374e57b642692da0ca1a62bc60da74c18138ab9da15f24f7ac56beb",
      "transactionIndex": "0x7c",
      "blockHash": "0x110c35809026d1070516fd8dc2ef33d4f86fd185855aae18b66e3f5e16551537",
      "blockNumber": "0xa4cb18",
      "gasUsed": "0x29728",
      "effectiveGasPrice": "0xf4289",
      "from": "0x4a779fa7d5ea106f1adfb8369e65fcaa465ca7fd",
      "to": "0xc795c562d5e21b1f52ffa19b3f34d7bdb5a27c04",
      "contractAddress": null
    },
    {
      "status": "0x1",
      "cumulativeGasUsed": "0x142183e",
      "logs": [
        {
          "address": "0x01eaaa0277501d16b7ae3cfbd3bd6a7f4a8815cc",
          "topics": [
            "0x8c5be1e5ebec7d5bd14f71427d1e84f3dd0314c0f7b2291e5b200ac8c7c3b925",
            "0x0000000000000000000000004a779fa7d5ea106f1adfb8369e65fcaa465ca7fd",
            "0x00000000000000000000000073489286d465bacdc78388a80bdf3a5a68f3560b"
          ],
          "data": "0x0000000000000000000000000000000000000000000000000000002e90edd000",
          "blockHash": "0x110c35809026d1070516fd8dc2ef33d4f86fd185855aae18b66e3f5e16551537",
          "blockNumber": "0xa4cb18",
          "blockTimestamp": "0x69faeca8",
          "transactionHash": "0x330e1bd03df4b8e08216e6b9431b168c2e466e8872fe9c685f3001ac663dbba1",
          "transactionIndex": "0x7d",
          "logIndex": "0x2b0",
          "removed": false
        }
      ],
      "logsBloom": "0x00000002000000000000000000000000000000000000000000000002000000000000000000000000000000000000000000800000000000000000000000200000000000000008000000000000000000000000000000000040000000000000000010000000000000000000000000000000000000000000000000000000000000000000000000000000000000000000000000000000000000000000000000000000020000000000000000000000000000000000000000000000000000004000000000000000000000000000000000000000000000000000000000000000000000000010000000000000000100000000000000000000000000000080000000000000",
      "type": "0x2",
      "transactionHash": "0x330e1bd03df4b8e08216e6b9431b168c2e466e8872fe9c685f3001ac663dbba1",
      "transactionIndex": "0x7d",
      "blockHash": "0x110c35809026d1070516fd8dc2ef33d4f86fd185855aae18b66e3f5e16551537",
      "blockNumber": "0xa4cb18",
      "gasUsed": "0xb506",
      "effectiveGasPrice": "0xf4289",
      "from": "0x4a779fa7d5ea106f1adfb8369e65fcaa465ca7fd",
      "to": "0x01eaaa0277501d16b7ae3cfbd3bd6a7f4a8815cc",
      "contractAddress": null
    },
    {
      "status": "0x1",
      "cumulativeGasUsed": "0x14f04f0",
      "logs": [
        {
          "address": "0x01eaaa0277501d16b7ae3cfbd3bd6a7f4a8815cc",
          "topics": [
            "0xddf252ad1be2c89b69c2b068fc378daa952ba7f163c4a11628f55a4df523b3ef",
            "0x0000000000000000000000004a779fa7d5ea106f1adfb8369e65fcaa465ca7fd",
            "0x00000000000000000000000073489286d465bacdc78388a80bdf3a5a68f3560b"
          ],
          "data": "0x0000000000000000000000000000000000000000000000000000002e90edd000",
          "blockHash": "0x110c35809026d1070516fd8dc2ef33d4f86fd185855aae18b66e3f5e16551537",
          "blockNumber": "0xa4cb18",
          "blockTimestamp": "0x69faeca8",
          "transactionHash": "0xc2ca11ff497829112c03397932637e44b3bef38f3da6441f529860e6dfa9bab0",
          "transactionIndex": "0x82",
          "logIndex": "0x2ca",
          "removed": false
        },
        {
          "address": "0x73489286d465bacdc78388a80bdf3a5a68f3560b",
          "topics": [
            "0xddf252ad1be2c89b69c2b068fc378daa952ba7f163c4a11628f55a4df523b3ef",
            "0x0000000000000000000000000000000000000000000000000000000000000000",
            "0x0000000000000000000000004a779fa7d5ea106f1adfb8369e65fcaa465ca7fd"
          ],
          "data": "0x0000000000000000000000000000000000000000000000000000002e90edd000",
          "blockHash": "0x110c35809026d1070516fd8dc2ef33d4f86fd185855aae18b66e3f5e16551537",
          "blockNumber": "0xa4cb18",
          "blockTimestamp": "0x69faeca8",
          "transactionHash": "0xc2ca11ff497829112c03397932637e44b3bef38f3da6441f529860e6dfa9bab0",
          "transactionIndex": "0x82",
          "logIndex": "0x2cb",
          "removed": false
        },
        {
          "address": "0x73489286d465bacdc78388a80bdf3a5a68f3560b",
          "topics": [
            "0xdcbc1c05240f31ff3ad067ef1ee35ce4997762752e3a095284754544f4c709d7",
            "0x0000000000000000000000004a779fa7d5ea106f1adfb8369e65fcaa465ca7fd",
            "0x0000000000000000000000004a779fa7d5ea106f1adfb8369e65fcaa465ca7fd"
          ],
          "data": "0x0000000000000000000000000000000000000000000000000000002e90edd0000000000000000000000000000000000000000000000000000000002e90edd000",
          "blockHash": "0x110c35809026d1070516fd8dc2ef33d4f86fd185855aae18b66e3f5e16551537",
          "blockNumber": "0xa4cb18",
          "blockTimestamp": "0x69faeca8",
          "transactionHash": "0xc2ca11ff497829112c03397932637e44b3bef38f3da6441f529860e6dfa9bab0",
          "transactionIndex": "0x82",
          "logIndex": "0x2cc",
          "removed": false
        }
      ],
      "logsBloom": "0x00000002000000000000000000000000000000000000000000000002000000000000000000000000100000000000000000800000000000000000000000000000001000400008000000000008000000000000000000000040000000000000000010000000020000000000000000000800000000000004000000000010000000000000000000000000000000000000000000000000000000000000000000000000000000000000000000000000000000000000000200000000000000004000000000000002000000000000000000000000000000000008000000000000000020000000000000000000000100000000000000000000000000000080000000000000",
      "type": "0x2",
      "transactionHash": "0xc2ca11ff497829112c03397932637e44b3bef38f3da6441f529860e6dfa9bab0",
      "transactionIndex": "0x82",
      "blockHash": "0x110c35809026d1070516fd8dc2ef33d4f86fd185855aae18b66e3f5e16551537",
      "blockNumber": "0xa4cb18",
      "gasUsed": "0x1c742",
      "effectiveGasPrice": "0xf4289",
      "from": "0x4a779fa7d5ea106f1adfb8369e65fcaa465ca7fd",
      "to": "0x73489286d465bacdc78388a80bdf3a5a68f3560b",
      "contractAddress": null
    },
    {
      "status": "0x1",
      "cumulativeGasUsed": "0x14fbb46",
      "logs": [
        {
          "address": "0x01eaaa0277501d16b7ae3cfbd3bd6a7f4a8815cc",
          "topics": [
            "0x8c5be1e5ebec7d5bd14f71427d1e84f3dd0314c0f7b2291e5b200ac8c7c3b925",
            "0x0000000000000000000000004a779fa7d5ea106f1adfb8369e65fcaa465ca7fd",
            "0x00000000000000000000000012a0b1e30d28aa0a57ac1064321b4f9b12b40f48"
          ],
          "data": "0xffffffffffffffffffffffffffffffffffffffffffffffffffffffffffffffff",
          "blockHash": "0x110c35809026d1070516fd8dc2ef33d4f86fd185855aae18b66e3f5e16551537",
          "blockNumber": "0xa4cb18",
          "blockTimestamp": "0x69faeca8",
          "transactionHash": "0xa61777631ff2d6376e527eb857ba65bdd3df34469d16af9f3ddfa1a51d09e13e",
          "transactionIndex": "0x83",
          "logIndex": "0x2cd",
          "removed": false
        }
      ],
      "logsBloom": "0x00000002000000000000000000000000000000000000000000000002000000000100000000000000000000000000000000800000000000000000000000200000000000000000000000000000000000000000000000000040000000000000000000000000004000000000000000000000000000000000000000000000000000000000000000000000000008000000000000000000000000000000000000000000020000000000000000000000000000000000000000000000000000004000000000000000000000000000000000000000000000000000000000000000000000000010000000000000000100000000000000000000000000000000000000000000",
      "type": "0x2",
      "transactionHash": "0xa61777631ff2d6376e527eb857ba65bdd3df34469d16af9f3ddfa1a51d09e13e",
      "transactionIndex": "0x83",
      "blockHash": "0x110c35809026d1070516fd8dc2ef33d4f86fd185855aae18b66e3f5e16551537",
      "blockNumber": "0xa4cb18",
      "gasUsed": "0xb656",
      "effectiveGasPrice": "0xf4289",
      "from": "0x4a779fa7d5ea106f1adfb8369e65fcaa465ca7fd",
      "to": "0x01eaaa0277501d16b7ae3cfbd3bd6a7f4a8815cc",
      "contractAddress": null
    },
    {
      "status": "0x1",
      "cumulativeGasUsed": "0x1535234",
      "logs": [
        {
          "address": "0xd38319f51b5cff79b5db424aeac4902571aa67e2",
          "topics": [
            "0xddf252ad1be2c89b69c2b068fc378daa952ba7f163c4a11628f55a4df523b3ef",
            "0x0000000000000000000000000000000000000000000000000000000000000000",
            "0x0000000000000000000000004a779fa7d5ea106f1adfb8369e65fcaa465ca7fd",
            "0x0000000000000000000000000000000000000000000000000000000000000000"
          ],
          "data": "0x",
          "blockHash": "0x110c35809026d1070516fd8dc2ef33d4f86fd185855aae18b66e3f5e16551537",
          "blockNumber": "0xa4cb18",
          "blockTimestamp": "0x69faeca8",
          "transactionHash": "0xa86c1bc21345cffdfd25a045b142d56478b64310e6b8aa8fe358f7449e02c596",
          "transactionIndex": "0x84",
          "logIndex": "0x2ce",
          "removed": false
        },
        {
          "address": "0xd38319f51b5cff79b5db424aeac4902571aa67e2",
          "topics": [
            "0x73eb342d920a61f8fc4f548092bde8a326851e9de56f113fa026460a82493404",
            "0x0000000000000000000000000000000000000000000000000000000000000000",
            "0x0000000000000000000000004a779fa7d5ea106f1adfb8369e65fcaa465ca7fd"
          ],
          "data": "0x000000000000000000000000000000000000000000000000000000174876e800000000000000000000000000000000000000000000000000000000006a4a0648",
          "blockHash": "0x110c35809026d1070516fd8dc2ef33d4f86fd185855aae18b66e3f5e16551537",
          "blockNumber": "0xa4cb18",
          "blockTimestamp": "0x69faeca8",
          "transactionHash": "0xa86c1bc21345cffdfd25a045b142d56478b64310e6b8aa8fe358f7449e02c596",
          "transactionIndex": "0x84",
          "logIndex": "0x2cf",
          "removed": false
        }
      ],
      "logsBloom": "0x0000000004000000000000000000000000000000000000000000000200000000000000000000000000000000000000000080000000000000000000000000000000000000000000000000000800001000000000000000004000000000000000000000000002000000000000000000080000000000000000000000001000000000000000000000000000000000000000000000000000000000000000000000000000000000800000000000000000000000000000000000000000001000000000000000000a000000000000000000000000000000000000000000000000000020000000000000000000000000000000000400000000000000000000000000000000",
      "type": "0x2",
      "transactionHash": "0xa86c1bc21345cffdfd25a045b142d56478b64310e6b8aa8fe358f7449e02c596",
      "transactionIndex": "0x84",
      "blockHash": "0x110c35809026d1070516fd8dc2ef33d4f86fd185855aae18b66e3f5e16551537",
      "blockNumber": "0xa4cb18",
      "gasUsed": "0x396ee",
      "effectiveGasPrice": "0xf4289",
      "from": "0x4a779fa7d5ea106f1adfb8369e65fcaa465ca7fd",
      "to": "0xd38319f51b5cff79b5db424aeac4902571aa67e2",
      "contractAddress": null
    },
    {
      "status": "0x1",
      "cumulativeGasUsed": "0xea044a",
      "logs": [
        {
          "address": "0xd38319f51b5cff79b5db424aeac4902571aa67e2",
          "topics": [
            "0xddf252ad1be2c89b69c2b068fc378daa952ba7f163c4a11628f55a4df523b3ef",
            "0x0000000000000000000000000000000000000000000000000000000000000000",
            "0x0000000000000000000000004a779fa7d5ea106f1adfb8369e65fcaa465ca7fd",
            "0x0000000000000000000000000000000000000000000000000000000000000001"
          ],
          "data": "0x",
          "blockHash": "0x9c3f4b03a3985cdd3ffcff97df1afd52d9bbd85518c0194590a2c33c577a2dac",
          "blockNumber": "0xa4cb19",
          "blockTimestamp": "0x69faecb4",
          "transactionHash": "0x78222354074d286b0e908e9b7ed892cd238213896f93eb76538db4b6582fc24b",
          "transactionIndex": "0x6f",
          "logIndex": "0x23d",
          "removed": false
        },
        {
          "address": "0xd38319f51b5cff79b5db424aeac4902571aa67e2",
          "topics": [
            "0x73eb342d920a61f8fc4f548092bde8a326851e9de56f113fa026460a82493404",
            "0x0000000000000000000000000000000000000000000000000000000000000001",
            "0x0000000000000000000000004a779fa7d5ea106f1adfb8369e65fcaa465ca7fd"
          ],
          "data": "0x00000000000000000000000000000000000000000000000000000012a05f2000000000000000000000000000000000000000000000000000000000006a5dccc8",
          "blockHash": "0x9c3f4b03a3985cdd3ffcff97df1afd52d9bbd85518c0194590a2c33c577a2dac",
          "blockNumber": "0xa4cb19",
          "blockTimestamp": "0x69faecb4",
          "transactionHash": "0x78222354074d286b0e908e9b7ed892cd238213896f93eb76538db4b6582fc24b",
          "transactionIndex": "0x6f",
          "logIndex": "0x23e",
          "removed": false
        }
      ],
      "logsBloom": "0x0000000004000000000000000000000000000000000000000000000200000000000000000000000000000000000000000080000000000000000000000004000000000000000000000000000800001000000000000004004000000000000000000000000002000000000000000000080000000000000000000000001000000000000000000000000000000000000000000000000000000000000000000000000000000000800000000000000000000000000000000000000000001000000000000000000a000000000000000000000000000000000000000000000000000060000000000000000000000000000000000400000000000000000000000000000000",
      "type": "0x2",
      "transactionHash": "0x78222354074d286b0e908e9b7ed892cd238213896f93eb76538db4b6582fc24b",
      "transactionIndex": "0x6f",
      "blockHash": "0x9c3f4b03a3985cdd3ffcff97df1afd52d9bbd85518c0194590a2c33c577a2dac",
      "blockNumber": "0xa4cb19",
      "gasUsed": "0x3116e",
      "effectiveGasPrice": "0xf428a",
      "from": "0x4a779fa7d5ea106f1adfb8369e65fcaa465ca7fd",
      "to": "0xd38319f51b5cff79b5db424aeac4902571aa67e2",
      "contractAddress": null
    },
    {
      "status": "0x1",
      "cumulativeGasUsed": "0x1f80d45",
      "logs": [
        {
          "address": "0xd38319f51b5cff79b5db424aeac4902571aa67e2",
          "topics": [
            "0xddf252ad1be2c89b69c2b068fc378daa952ba7f163c4a11628f55a4df523b3ef",
            "0x0000000000000000000000000000000000000000000000000000000000000000",
            "0x0000000000000000000000004a779fa7d5ea106f1adfb8369e65fcaa465ca7fd",
            "0x0000000000000000000000000000000000000000000000000000000000000002"
          ],
          "data": "0x",
          "blockHash": "0x9c3f4b03a3985cdd3ffcff97df1afd52d9bbd85518c0194590a2c33c577a2dac",
          "blockNumber": "0xa4cb19",
          "blockTimestamp": "0x69faecb4",
          "transactionHash": "0x8f77ccf4255b74c3da61eacc4d6053c628cd2fecf941b9c8792ee573d4219856",
          "transactionIndex": "0x93",
          "logIndex": "0x2d3",
          "removed": false
        },
        {
          "address": "0xd38319f51b5cff79b5db424aeac4902571aa67e2",
          "topics": [
            "0x73eb342d920a61f8fc4f548092bde8a326851e9de56f113fa026460a82493404",
            "0x0000000000000000000000000000000000000000000000000000000000000002",
            "0x0000000000000000000000004a779fa7d5ea106f1adfb8369e65fcaa465ca7fd"
          ],
          "data": "0x00000000000000000000000000000000000000000000000000000009502f9000000000000000000000000000000000000000000000000000000000006a227948",
          "blockHash": "0x9c3f4b03a3985cdd3ffcff97df1afd52d9bbd85518c0194590a2c33c577a2dac",
          "blockNumber": "0xa4cb19",
          "blockTimestamp": "0x69faecb4",
          "transactionHash": "0x8f77ccf4255b74c3da61eacc4d6053c628cd2fecf941b9c8792ee573d4219856",
          "transactionIndex": "0x93",
          "logIndex": "0x2d4",
          "removed": false
        }
      ],
      "logsBloom": "0x0400000004000000000000000000000000000000000000000000000200000000000000000000000000000000000000000080000000000000000000000000000000000000000000000000000800001000000000000000004000000000000000000000000002000000000000000000080000000000000000000000001000000000000000000000000000000000000000000000000000000000000000000000000000000000800000000000010000000000000000000000000000001000000000000000000a000000000000000000000000000000000000000000000000000020000000000000000000000000000000000400000000008000000000000000000000",
      "type": "0x2",
      "transactionHash": "0x8f77ccf4255b74c3da61eacc4d6053c628cd2fecf941b9c8792ee573d4219856",
      "transactionIndex": "0x93",
      "blockHash": "0x9c3f4b03a3985cdd3ffcff97df1afd52d9bbd85518c0194590a2c33c577a2dac",
      "blockNumber": "0xa4cb19",
      "gasUsed": "0x31156",
      "effectiveGasPrice": "0xf428a",
      "from": "0x4a779fa7d5ea106f1adfb8369e65fcaa465ca7fd",
      "to": "0xd38319f51b5cff79b5db424aeac4902571aa67e2",
      "contractAddress": null
    },
    {
      "status": "0x1",
      "cumulativeGasUsed": "0x1fc945d",
      "logs": [
        {
          "address": "0xd38319f51b5cff79b5db424aeac4902571aa67e2",
          "topics": [
            "0x9e95a55e57a81124d2879b79962dae944ee917f98ca302ea9dfe572f12436d14",
            "0x0000000000000000000000000000000000000000000000000000000000000000"
          ],
          "data": "0x",
          "blockHash": "0x9c3f4b03a3985cdd3ffcff97df1afd52d9bbd85518c0194590a2c33c577a2dac",
          "blockNumber": "0xa4cb19",
          "blockTimestamp": "0x69faecb4",
          "transactionHash": "0x64ce1faa63526e46eae03e277597949218825eb79896563fa192363b67007ede",
          "transactionIndex": "0x97",
          "logIndex": "0x2d8",
          "removed": false
        }
      ],
      "logsBloom": "0x00000000040000000000000000000000000000000000000004000000000000000000000000000000000000000000000000000000000000000000000000000000000000000000000000000000000010000000000000000000000000000000000000000000020000000000000000000800000000000000000000000000000000000000000000000000000000000000000000000000000000000000000000000000000000000000000000000000000000000000000000000000000000000000000000000000800000000000000000000000000000000000000002000000000020000000000000000000000000000000000400000000000000000000000000000000",
      "type": "0x2",
      "transactionHash": "0x64ce1faa63526e46eae03e277597949218825eb79896563fa192363b67007ede",
      "transactionIndex": "0x97",
      "blockHash": "0x9c3f4b03a3985cdd3ffcff97df1afd52d9bbd85518c0194590a2c33c577a2dac",
      "blockNumber": "0xa4cb19",
      "gasUsed": "0xcea1",
      "effectiveGasPrice": "0xf428a",
      "from": "0x4a779fa7d5ea106f1adfb8369e65fcaa465ca7fd",
      "to": "0xc795c562d5e21b1f52ffa19b3f34d7bdb5a27c04",
      "contractAddress": null
    },
    {
      "status": "0x1",
      "cumulativeGasUsed": "0x1ff28d4",
      "logs": [
        {
          "address": "0xd38319f51b5cff79b5db424aeac4902571aa67e2",
          "topics": [
            "0x9e95a55e57a81124d2879b79962dae944ee917f98ca302ea9dfe572f12436d14",
            "0x0000000000000000000000000000000000000000000000000000000000000001"
          ],
          "data": "0x",
          "blockHash": "0x9c3f4b03a3985cdd3ffcff97df1afd52d9bbd85518c0194590a2c33c577a2dac",
          "blockNumber": "0xa4cb19",
          "blockTimestamp": "0x69faecb4",
          "transactionHash": "0x51789712641b2f0e34ec4a181697992e997ee8a7cf835e7ad3fb4cc6f186c986",
          "transactionIndex": "0x99",
          "logIndex": "0x2da",
          "removed": false
        }
      ],
      "logsBloom": "0x00000000040000000000000000000000000000000000000004000000000000000000000000000000000000000000000000000000000000000000000000040000000000000000000000000000000010000000000000040000000000000000000000000000000000000000000000000000000000000000000000000000000000000000000000000000000000000000000000000000000000000000000000000000000000000000000000000000000000000000000000000000000000000000000000000000800000000000000000000000000000000000000002000000000040000000000000000000000000000000000400000000000000000000000000000000",
      "type": "0x2",
      "transactionHash": "0x51789712641b2f0e34ec4a181697992e997ee8a7cf835e7ad3fb4cc6f186c986",
      "transactionIndex": "0x99",
      "blockHash": "0x9c3f4b03a3985cdd3ffcff97df1afd52d9bbd85518c0194590a2c33c577a2dac",
      "blockNumber": "0xa4cb19",
      "gasUsed": "0xcead",
      "effectiveGasPrice": "0xf428a",
      "from": "0x4a779fa7d5ea106f1adfb8369e65fcaa465ca7fd",
      "to": "0xc795c562d5e21b1f52ffa19b3f34d7bdb5a27c04",
      "contractAddress": null
    },
    {
      "status": "0x1",
      "cumulativeGasUsed": "0x1fff781",
      "logs": [
        {
          "address": "0xd38319f51b5cff79b5db424aeac4902571aa67e2",
          "topics": [
            "0x9e95a55e57a81124d2879b79962dae944ee917f98ca302ea9dfe572f12436d14",
            "0x0000000000000000000000000000000000000000000000000000000000000002"
          ],
          "data": "0x",
          "blockHash": "0x9c3f4b03a3985cdd3ffcff97df1afd52d9bbd85518c0194590a2c33c577a2dac",
          "blockNumber": "0xa4cb19",
          "blockTimestamp": "0x69faecb4",
          "transactionHash": "0xc923b3fe204b1186d7c851601e6767bde692f496441542bb5a5e83bb1edad238",
          "transactionIndex": "0x9a",
          "logIndex": "0x2db",
          "removed": false
        }
      ],
      "logsBloom": "0x04000000040000000000000000000000000000000000000004000000000000000000000000000000000000000000000000000000000000000000000000000000000000000000000000000000000010000000000000000000000000000000000000000000000000000000000000000000000000000000000000000000000000000000000000000000000000000000000000000000000000000000000000000000000000000000000000000100000000000000000000000000000000000000000000000000800000000000000000000000000000000000000002000000000000000000000000000000000000000000000400000000008000000000000000000000",
      "type": "0x2",
      "transactionHash": "0xc923b3fe204b1186d7c851601e6767bde692f496441542bb5a5e83bb1edad238",
      "transactionIndex": "0x9a",
      "blockHash": "0x9c3f4b03a3985cdd3ffcff97df1afd52d9bbd85518c0194590a2c33c577a2dac",
      "blockNumber": "0xa4cb19",
      "gasUsed": "0xcead",
      "effectiveGasPrice": "0xf428a",
      "from": "0x4a779fa7d5ea106f1adfb8369e65fcaa465ca7fd",
      "to": "0xc795c562d5e21b1f52ffa19b3f34d7bdb5a27c04",
      "contractAddress": null
    },
    {
      "status": "0x1",
      "cumulativeGasUsed": "0x2041a8e",
      "logs": [
        {
          "address": "0x12a0b1e30d28aa0a57ac1064321b4f9b12b40f48",
          "topics": [
            "0xdb4798dd12ae49eda0c23c3086aabb22fb4cfdf25ece86881769b768d3efd32f",
            "0x0000000000000000000000000000000000000000000000000000000000000000",
            "0x0000000000000000000000004a779fa7d5ea106f1adfb8369e65fcaa465ca7fd"
          ],
          "data": "0x00000000000000000000000000000000000000000000000000000000000000000000000000000000000000000000000000000000000000000000000df8475800",
          "blockHash": "0x9c3f4b03a3985cdd3ffcff97df1afd52d9bbd85518c0194590a2c33c577a2dac",
          "blockNumber": "0xa4cb19",
          "blockTimestamp": "0x69faecb4",
          "transactionHash": "0x2f0278e5390a7a8759e6e2dbb0c2369d8137e6d962d4a9efb01dd81ef0ffd245",
          "transactionIndex": "0x9b",
          "logIndex": "0x2dc",
          "removed": false
        },
        {
          "address": "0x12a0b1e30d28aa0a57ac1064321b4f9b12b40f48",
          "topics": [
            "0x0b2ef56770d1730a9de1e5ea6fc5844147fcbf76ffe97aff81e6bd889ec280a7",
            "0x0000000000000000000000000000000000000000000000000000000000000000"
          ],
          "data": "0x",
          "blockHash": "0x9c3f4b03a3985cdd3ffcff97df1afd52d9bbd85518c0194590a2c33c577a2dac",
          "blockNumber": "0xa4cb19",
          "blockTimestamp": "0x69faecb4",
          "transactionHash": "0x2f0278e5390a7a8759e6e2dbb0c2369d8137e6d962d4a9efb01dd81ef0ffd245",
          "transactionIndex": "0x9b",
          "logIndex": "0x2dd",
          "removed": false
        }
      ],
      "logsBloom": "0x00000000000000000000000000000000000000000000000000000002000000000000000000000400000000000000000000800100000000000100000000000000000000000000000000000000000000000000000080000040000000000000000000000000020000000000000000000800000000000000000000000000000000000000000008000000000000000000000000000000000000000000000000000000000000410000000000000000000000000000000000000000000000000000000000000000000000000000000000000000000000000000000000000000000020000000000080000000000000000000001000000000000000000000000000000000",
      "type": "0x2",
      "transactionHash": "0x2f0278e5390a7a8759e6e2dbb0c2369d8137e6d962d4a9efb01dd81ef0ffd245",
      "transactionIndex": "0x9b",
      "blockHash": "0x9c3f4b03a3985cdd3ffcff97df1afd52d9bbd85518c0194590a2c33c577a2dac",
      "blockNumber": "0xa4cb19",
      "gasUsed": "0x4230d",
      "effectiveGasPrice": "0xf428a",
      "from": "0x4a779fa7d5ea106f1adfb8369e65fcaa465ca7fd",
      "to": "0x12a0b1e30d28aa0a57ac1064321b4f9b12b40f48",
      "contractAddress": null
    },
    {
      "status": "0x1",
      "cumulativeGasUsed": "0x2084897",
      "logs": [
        {
          "address": "0x12a0b1e30d28aa0a57ac1064321b4f9b12b40f48",
          "topics": [
            "0xdb4798dd12ae49eda0c23c3086aabb22fb4cfdf25ece86881769b768d3efd32f",
            "0x0000000000000000000000000000000000000000000000000000000000000001",
            "0x0000000000000000000000004a779fa7d5ea106f1adfb8369e65fcaa465ca7fd"
          ],
          "data": "0x00000000000000000000000000000000000000000000000000000000000000010000000000000000000000000000000000000000000000000000000b2d05e000",
          "blockHash": "0x9c3f4b03a3985cdd3ffcff97df1afd52d9bbd85518c0194590a2c33c577a2dac",
          "blockNumber": "0xa4cb19",
          "blockTimestamp": "0x69faecb4",
          "transactionHash": "0xbd34879e0e91132e265ed61f4f0208ca7c3dadc509c6e1d5af1015749cf64ebd",
          "transactionIndex": "0x9c",
          "logIndex": "0x2de",
          "removed": false
        },
        {
          "address": "0x12a0b1e30d28aa0a57ac1064321b4f9b12b40f48",
          "topics": [
            "0x0b2ef56770d1730a9de1e5ea6fc5844147fcbf76ffe97aff81e6bd889ec280a7",
            "0x0000000000000000000000000000000000000000000000000000000000000001"
          ],
          "data": "0x",
          "blockHash": "0x9c3f4b03a3985cdd3ffcff97df1afd52d9bbd85518c0194590a2c33c577a2dac",
          "blockNumber": "0xa4cb19",
          "blockTimestamp": "0x69faecb4",
          "transactionHash": "0xbd34879e0e91132e265ed61f4f0208ca7c3dadc509c6e1d5af1015749cf64ebd",
          "transactionIndex": "0x9c",
          "logIndex": "0x2df",
          "removed": false
        }
      ],
      "logsBloom": "0x00000000000000000000000000000000000000000000000000000002000000000000000000000400000000000000000000800100000000000100000000040000000000000000000000000000000000000000000080040040000000000000000000000000000000000000000000000000000000000000000000000000000000000000000008000000000000000000000000000000000000000000000000000000000000410000000000000000000000000000000000000000000000000000000000000000000000000000000000000000000000000000000000000000000040000000000080000000000000000000001000000000000000000000000000000000",
      "type": "0x2",
      "transactionHash": "0xbd34879e0e91132e265ed61f4f0208ca7c3dadc509c6e1d5af1015749cf64ebd",
      "transactionIndex": "0x9c",
      "blockHash": "0x9c3f4b03a3985cdd3ffcff97df1afd52d9bbd85518c0194590a2c33c577a2dac",
      "blockNumber": "0xa4cb19",
      "gasUsed": "0x42e09",
      "effectiveGasPrice": "0xf428a",
      "from": "0x4a779fa7d5ea106f1adfb8369e65fcaa465ca7fd",
      "to": "0x12a0b1e30d28aa0a57ac1064321b4f9b12b40f48",
      "contractAddress": null
    },
    {
      "status": "0x1",
      "cumulativeGasUsed": "0x20c76a0",
      "logs": [
        {
          "address": "0x12a0b1e30d28aa0a57ac1064321b4f9b12b40f48",
          "topics": [
            "0xdb4798dd12ae49eda0c23c3086aabb22fb4cfdf25ece86881769b768d3efd32f",
            "0x0000000000000000000000000000000000000000000000000000000000000002",
            "0x0000000000000000000000004a779fa7d5ea106f1adfb8369e65fcaa465ca7fd"
          ],
          "data": "0x0000000000000000000000000000000000000000000000000000000000000002000000000000000000000000000000000000000000000000000000059682f000",
          "blockHash": "0x9c3f4b03a3985cdd3ffcff97df1afd52d9bbd85518c0194590a2c33c577a2dac",
          "blockNumber": "0xa4cb19",
          "blockTimestamp": "0x69faecb4",
          "transactionHash": "0x957de7aadb963c90eafe571b4e252960f7f4faf6d15aea2d548b34449f8bb44e",
          "transactionIndex": "0x9d",
          "logIndex": "0x2e0",
          "removed": false
        },
        {
          "address": "0x12a0b1e30d28aa0a57ac1064321b4f9b12b40f48",
          "topics": [
            "0x0b2ef56770d1730a9de1e5ea6fc5844147fcbf76ffe97aff81e6bd889ec280a7",
            "0x0000000000000000000000000000000000000000000000000000000000000002"
          ],
          "data": "0x",
          "blockHash": "0x9c3f4b03a3985cdd3ffcff97df1afd52d9bbd85518c0194590a2c33c577a2dac",
          "blockNumber": "0xa4cb19",
          "blockTimestamp": "0x69faecb4",
          "transactionHash": "0x957de7aadb963c90eafe571b4e252960f7f4faf6d15aea2d548b34449f8bb44e",
          "transactionIndex": "0x9d",
          "logIndex": "0x2e1",
          "removed": false
        }
      ],
      "logsBloom": "0x04000000000000000000000000000000000000000000000000000002000000000000000000000400000000000000000000800100000000000100000000000000000000000000000000000000000000000000000080000040000000000000000000000000000000000000000000000000000000000000000000000000000000000000000008000000000000000000000000000000000000000000000000000000000000410000000000000100000000000000000000000000000000000000000000000000000000000000000000000000000000000000000000000000000000000000000080000000000000000000001000000000008000000000000000000000",
      "type": "0x2",
      "transactionHash": "0x957de7aadb963c90eafe571b4e252960f7f4faf6d15aea2d548b34449f8bb44e",
      "transactionIndex": "0x9d",
      "blockHash": "0x9c3f4b03a3985cdd3ffcff97df1afd52d9bbd85518c0194590a2c33c577a2dac",
      "blockNumber": "0xa4cb19",
      "gasUsed": "0x42e09",
      "effectiveGasPrice": "0xf428a",
      "from": "0x4a779fa7d5ea106f1adfb8369e65fcaa465ca7fd",
      "to": "0x12a0b1e30d28aa0a57ac1064321b4f9b12b40f48",
      "contractAddress": null
    },
    {
      "status": "0x1",
      "cumulativeGasUsed": "0x20f905c",
      "logs": [
        {
          "address": "0x12a0b1e30d28aa0a57ac1064321b4f9b12b40f48",
          "topics": [
            "0xe30bd6dd5caf46905d03db87e64fcb79980cf5f0bac328ac1aa8edc66a02411a",
            "0x0000000000000000000000000000000000000000000000000000000000000000",
            "0x0000000000000000000000004a779fa7d5ea106f1adfb8369e65fcaa465ca7fd"
          ],
          "data": "0x00000000000000000000000000000000000000000000000000000000000005dc00000000000000000000000000000000000000000000000000000000000004b0",
          "blockHash": "0x9c3f4b03a3985cdd3ffcff97df1afd52d9bbd85518c0194590a2c33c577a2dac",
          "blockNumber": "0xa4cb19",
          "blockTimestamp": "0x69faecb4",
          "transactionHash": "0x9004d72e122044b436a8d0398a192980f475defaf39f92abcf3ea902a24ec39b",
          "transactionIndex": "0x9e",
          "logIndex": "0x2e2",
          "removed": false
        },
        {
          "address": "0xd38319f51b5cff79b5db424aeac4902571aa67e2",
          "topics": [
            "0xf2c7af4e27ab183637f98860df4cdd0b40c78470109111288c0cd05f1894fd66",
            "0x0000000000000000000000000000000000000000000000000000000000000000"
          ],
          "data": "0x",
          "blockHash": "0x9c3f4b03a3985cdd3ffcff97df1afd52d9bbd85518c0194590a2c33c577a2dac",
          "blockNumber": "0xa4cb19",
          "blockTimestamp": "0x69faecb4",
          "transactionHash": "0x9004d72e122044b436a8d0398a192980f475defaf39f92abcf3ea902a24ec39b",
          "transactionIndex": "0x9e",
          "logIndex": "0x2e3",
          "removed": false
        },
        {
          "address": "0x01eaaa0277501d16b7ae3cfbd3bd6a7f4a8815cc",
          "topics": [
            "0xddf252ad1be2c89b69c2b068fc378daa952ba7f163c4a11628f55a4df523b3ef",
            "0x0000000000000000000000004a779fa7d5ea106f1adfb8369e65fcaa465ca7fd",
            "0x00000000000000000000000012a0b1e30d28aa0a57ac1064321b4f9b12b40f48"
          ],
          "data": "0x00000000000000000000000000000000000000000000000000000004a817c800",
          "blockHash": "0x9c3f4b03a3985cdd3ffcff97df1afd52d9bbd85518c0194590a2c33c577a2dac",
          "blockNumber": "0xa4cb19",
          "blockTimestamp": "0x69faecb4",
          "transactionHash": "0x9004d72e122044b436a8d0398a192980f475defaf39f92abcf3ea902a24ec39b",
          "transactionIndex": "0x9e",
          "logIndex": "0x2e4",
          "removed": false
        },
        {
          "address": "0x12a0b1e30d28aa0a57ac1064321b4f9b12b40f48",
          "topics": [
            "0x4297eb34ce0f5cba5434e9e5bc90ff09dc76e8c53521965282b3b31bc2dcc4bc",
            "0x0000000000000000000000000000000000000000000000000000000000000000",
            "0x0000000000000000000000004a779fa7d5ea106f1adfb8369e65fcaa465ca7fd"
          ],
          "data": "0x00000000000000000000000000000000000000000000000000000004a817c800",
          "blockHash": "0x9c3f4b03a3985cdd3ffcff97df1afd52d9bbd85518c0194590a2c33c577a2dac",
          "blockNumber": "0xa4cb19",
          "blockTimestamp": "0x69faecb4",
          "transactionHash": "0x9004d72e122044b436a8d0398a192980f475defaf39f92abcf3ea902a24ec39b",
          "transactionIndex": "0x9e",
          "logIndex": "0x2e5",
          "removed": false
        },
        {
          "address": "0x01eaaa0277501d16b7ae3cfbd3bd6a7f4a8815cc",
          "topics": [
            "0xddf252ad1be2c89b69c2b068fc378daa952ba7f163c4a11628f55a4df523b3ef",
            "0x00000000000000000000000073489286d465bacdc78388a80bdf3a5a68f3560b",
            "0x0000000000000000000000004a779fa7d5ea106f1adfb8369e65fcaa465ca7fd"
          ],
          "data": "0x0000000000000000000000000000000000000000000000000000000df8475800",
          "blockHash": "0x9c3f4b03a3985cdd3ffcff97df1afd52d9bbd85518c0194590a2c33c577a2dac",
          "blockNumber": "0xa4cb19",
          "blockTimestamp": "0x69faecb4",
          "transactionHash": "0x9004d72e122044b436a8d0398a192980f475defaf39f92abcf3ea902a24ec39b",
          "transactionIndex": "0x9e",
          "logIndex": "0x2e6",
          "removed": false
        },
        {
          "address": "0x73489286d465bacdc78388a80bdf3a5a68f3560b",
          "topics": [
            "0xc4c84823a324d0b8981b8d101133d3a6c8016438b9de23219733db972f5ca90e",
            "0x0000000000000000000000004a779fa7d5ea106f1adfb8369e65fcaa465ca7fd"
          ],
          "data": "0x0000000000000000000000000000000000000000000000000000000df8475800",
          "blockHash": "0x9c3f4b03a3985cdd3ffcff97df1afd52d9bbd85518c0194590a2c33c577a2dac",
          "blockNumber": "0xa4cb19",
          "blockTimestamp": "0x69faecb4",
          "transactionHash": "0x9004d72e122044b436a8d0398a192980f475defaf39f92abcf3ea902a24ec39b",
          "transactionIndex": "0x9e",
          "logIndex": "0x2e7",
          "removed": false
        },
        {
          "address": "0x12a0b1e30d28aa0a57ac1064321b4f9b12b40f48",
          "topics": [
            "0xc3dcf8c44c73d275429bc69c4609ff1700936a2ea70bf11a98335c4e470b412c",
            "0x0000000000000000000000000000000000000000000000000000000000000000"
          ],
          "data": "0x0000000000000000000000000000000000000000000000000000000df8475800",
          "blockHash": "0x9c3f4b03a3985cdd3ffcff97df1afd52d9bbd85518c0194590a2c33c577a2dac",
          "blockNumber": "0xa4cb19",
          "blockTimestamp": "0x69faecb4",
          "transactionHash": "0x9004d72e122044b436a8d0398a192980f475defaf39f92abcf3ea902a24ec39b",
          "transactionIndex": "0x9e",
          "logIndex": "0x2e8",
          "removed": false
        }
      ],
      "logsBloom": "0x00000002040000000000000000000000000000000000000000000002000000000100000000000000100000000000000000800000000000000100000000000000001200010008000000000008100010000040080000000040000400000000000010080000024000000000000010000800000000800000000000000010000000000000000000000000000008000000000000000000000000000000000000000000000000410000000000000000000000000000000200000008000000004010000000000002000000000000000000000000000001000000000000020000000020000000000000000000000300000000008400000000000000000080000000000000",
      "type": "0x2",
      "transactionHash": "0x9004d72e122044b436a8d0398a192980f475defaf39f92abcf3ea902a24ec39b",
      "transactionIndex": "0x9e",
      "blockHash": "0x9c3f4b03a3985cdd3ffcff97df1afd52d9bbd85518c0194590a2c33c577a2dac",
      "blockNumber": "0xa4cb19",
      "gasUsed": "0x319bc",
      "effectiveGasPrice": "0xf428a",
      "from": "0x4a779fa7d5ea106f1adfb8369e65fcaa465ca7fd",
      "to": "0x12a0b1e30d28aa0a57ac1064321b4f9b12b40f48",
      "contractAddress": null
    },
    {
      "status": "0x1",
      "cumulativeGasUsed": "0x212248c",
      "logs": [
        {
          "address": "0x12a0b1e30d28aa0a57ac1064321b4f9b12b40f48",
          "topics": [
            "0xe30bd6dd5caf46905d03db87e64fcb79980cf5f0bac328ac1aa8edc66a02411a",
            "0x0000000000000000000000000000000000000000000000000000000000000002",
            "0x0000000000000000000000004a779fa7d5ea106f1adfb8369e65fcaa465ca7fd"
          ],
          "data": "0x00000000000000000000000000000000000000000000000000000000000005dc00000000000000000000000000000000000000000000000000000000000004b0",
          "blockHash": "0x9c3f4b03a3985cdd3ffcff97df1afd52d9bbd85518c0194590a2c33c577a2dac",
          "blockNumber": "0xa4cb19",
          "blockTimestamp": "0x69faecb4",
          "transactionHash": "0x76341dbfb916763b569788765bc18a6fd23ca54621f23cfd5b8db2329a9b5b39",
          "transactionIndex": "0x9f",
          "logIndex": "0x2e9",
          "removed": false
        },
        {
          "address": "0xd38319f51b5cff79b5db424aeac4902571aa67e2",
          "topics": [
            "0xf2c7af4e27ab183637f98860df4cdd0b40c78470109111288c0cd05f1894fd66",
            "0x0000000000000000000000000000000000000000000000000000000000000002"
          ],
          "data": "0x",
          "blockHash": "0x9c3f4b03a3985cdd3ffcff97df1afd52d9bbd85518c0194590a2c33c577a2dac",
          "blockNumber": "0xa4cb19",
          "blockTimestamp": "0x69faecb4",
          "transactionHash": "0x76341dbfb916763b569788765bc18a6fd23ca54621f23cfd5b8db2329a9b5b39",
          "transactionIndex": "0x9f",
          "logIndex": "0x2ea",
          "removed": false
        },
        {
          "address": "0x01eaaa0277501d16b7ae3cfbd3bd6a7f4a8815cc",
          "topics": [
            "0xddf252ad1be2c89b69c2b068fc378daa952ba7f163c4a11628f55a4df523b3ef",
            "0x0000000000000000000000004a779fa7d5ea106f1adfb8369e65fcaa465ca7fd",
            "0x00000000000000000000000012a0b1e30d28aa0a57ac1064321b4f9b12b40f48"
          ],
          "data": "0x00000000000000000000000000000000000000000000000000000001dcd65000",
          "blockHash": "0x9c3f4b03a3985cdd3ffcff97df1afd52d9bbd85518c0194590a2c33c577a2dac",
          "blockNumber": "0xa4cb19",
          "blockTimestamp": "0x69faecb4",
          "transactionHash": "0x76341dbfb916763b569788765bc18a6fd23ca54621f23cfd5b8db2329a9b5b39",
          "transactionIndex": "0x9f",
          "logIndex": "0x2eb",
          "removed": false
        },
        {
          "address": "0x12a0b1e30d28aa0a57ac1064321b4f9b12b40f48",
          "topics": [
            "0x4297eb34ce0f5cba5434e9e5bc90ff09dc76e8c53521965282b3b31bc2dcc4bc",
            "0x0000000000000000000000000000000000000000000000000000000000000002",
            "0x0000000000000000000000004a779fa7d5ea106f1adfb8369e65fcaa465ca7fd"
          ],
          "data": "0x00000000000000000000000000000000000000000000000000000001dcd65000",
          "blockHash": "0x9c3f4b03a3985cdd3ffcff97df1afd52d9bbd85518c0194590a2c33c577a2dac",
          "blockNumber": "0xa4cb19",
          "blockTimestamp": "0x69faecb4",
          "transactionHash": "0x76341dbfb916763b569788765bc18a6fd23ca54621f23cfd5b8db2329a9b5b39",
          "transactionIndex": "0x9f",
          "logIndex": "0x2ec",
          "removed": false
        },
        {
          "address": "0x01eaaa0277501d16b7ae3cfbd3bd6a7f4a8815cc",
          "topics": [
            "0xddf252ad1be2c89b69c2b068fc378daa952ba7f163c4a11628f55a4df523b3ef",
            "0x00000000000000000000000073489286d465bacdc78388a80bdf3a5a68f3560b",
            "0x0000000000000000000000004a779fa7d5ea106f1adfb8369e65fcaa465ca7fd"
          ],
          "data": "0x00000000000000000000000000000000000000000000000000000004a817c800",
          "blockHash": "0x9c3f4b03a3985cdd3ffcff97df1afd52d9bbd85518c0194590a2c33c577a2dac",
          "blockNumber": "0xa4cb19",
          "blockTimestamp": "0x69faecb4",
          "transactionHash": "0x76341dbfb916763b569788765bc18a6fd23ca54621f23cfd5b8db2329a9b5b39",
          "transactionIndex": "0x9f",
          "logIndex": "0x2ed",
          "removed": false
        },
        {
          "address": "0x73489286d465bacdc78388a80bdf3a5a68f3560b",
          "topics": [
            "0xc4c84823a324d0b8981b8d101133d3a6c8016438b9de23219733db972f5ca90e",
            "0x0000000000000000000000004a779fa7d5ea106f1adfb8369e65fcaa465ca7fd"
          ],
          "data": "0x00000000000000000000000000000000000000000000000000000004a817c800",
          "blockHash": "0x9c3f4b03a3985cdd3ffcff97df1afd52d9bbd85518c0194590a2c33c577a2dac",
          "blockNumber": "0xa4cb19",
          "blockTimestamp": "0x69faecb4",
          "transactionHash": "0x76341dbfb916763b569788765bc18a6fd23ca54621f23cfd5b8db2329a9b5b39",
          "transactionIndex": "0x9f",
          "logIndex": "0x2ee",
          "removed": false
        },
        {
          "address": "0x12a0b1e30d28aa0a57ac1064321b4f9b12b40f48",
          "topics": [
            "0xc3dcf8c44c73d275429bc69c4609ff1700936a2ea70bf11a98335c4e470b412c",
            "0x0000000000000000000000000000000000000000000000000000000000000002"
          ],
          "data": "0x00000000000000000000000000000000000000000000000000000004a817c800",
          "blockHash": "0x9c3f4b03a3985cdd3ffcff97df1afd52d9bbd85518c0194590a2c33c577a2dac",
          "blockNumber": "0xa4cb19",
          "blockTimestamp": "0x69faecb4",
          "transactionHash": "0x76341dbfb916763b569788765bc18a6fd23ca54621f23cfd5b8db2329a9b5b39",
          "transactionIndex": "0x9f",
          "logIndex": "0x2ef",
          "removed": false
        }
      ],
      "logsBloom": "0x04000002040000000000000000000000000000000000000000000002000000000100000000000000100000000000000000800000000000000100000000000000001200010008000000000008100010000040080000000040000400000000000010080000004000000000000010000000000000800000000000000010000000000000000000000000000008000000000000000000000000000000000000000000000000410000000000000100000000000000000200000008000000004010000000000002000000000000000000000000000001000000000000020000000000000000000000000000000300000000008400000000008000000080000000000000",
      "type": "0x2",
      "transactionHash": "0x76341dbfb916763b569788765bc18a6fd23ca54621f23cfd5b8db2329a9b5b39",
      "transactionIndex": "0x9f",
      "blockHash": "0x9c3f4b03a3985cdd3ffcff97df1afd52d9bbd85518c0194590a2c33c577a2dac",
      "blockNumber": "0xa4cb19",
      "gasUsed": "0x29430",
      "effectiveGasPrice": "0xf428a",
      "from": "0x4a779fa7d5ea106f1adfb8369e65fcaa465ca7fd",
      "to": "0x12a0b1e30d28aa0a57ac1064321b4f9b12b40f48",
      "contractAddress": null
    },
    {
      "status": "0x1",
      "cumulativeGasUsed": "0x21514f1",
      "logs": [
        {
          "address": "0x01eaaa0277501d16b7ae3cfbd3bd6a7f4a8815cc",
          "topics": [
            "0xddf252ad1be2c89b69c2b068fc378daa952ba7f163c4a11628f55a4df523b3ef",
            "0x0000000000000000000000004a779fa7d5ea106f1adfb8369e65fcaa465ca7fd",
            "0x00000000000000000000000073489286d465bacdc78388a80bdf3a5a68f3560b"
          ],
          "data": "0x00000000000000000000000000000000000000000000000000000004a817c800",
          "blockHash": "0x9c3f4b03a3985cdd3ffcff97df1afd52d9bbd85518c0194590a2c33c577a2dac",
          "blockNumber": "0xa4cb19",
          "blockTimestamp": "0x69faecb4",
          "transactionHash": "0xce1944154f2aa0128ce662818a15983a7ffb86354dd3f301f396c06ac6ea2e58",
          "transactionIndex": "0xa0",
          "logIndex": "0x2f0",
          "removed": false
        },
        {
          "address": "0x73489286d465bacdc78388a80bdf3a5a68f3560b",
          "topics": [
            "0xaf28ef548a3e357577842b9bd2e33678ce378c87837d3df6cb9592975552624d"
          ],
          "data": "0x00000000000000000000000000000000000000000000000000000004a817c80000000000000000000000000000000000000000000000000000000000000000000000000000000000000000000000000000000000000000000000000000000000",
          "blockHash": "0x9c3f4b03a3985cdd3ffcff97df1afd52d9bbd85518c0194590a2c33c577a2dac",
          "blockNumber": "0xa4cb19",
          "blockTimestamp": "0x69faecb4",
          "transactionHash": "0xce1944154f2aa0128ce662818a15983a7ffb86354dd3f301f396c06ac6ea2e58",
          "transactionIndex": "0xa0",
          "logIndex": "0x2f1",
          "removed": false
        },
        {
          "address": "0xd38319f51b5cff79b5db424aeac4902571aa67e2",
          "topics": [
            "0xda7faef8e1e5dd313a1ecf7db57c82633b52c42b3b3f333d9eb278fe2a42bb1e",
            "0x0000000000000000000000000000000000000000000000000000000000000002"
          ],
          "data": "0x",
          "blockHash": "0x9c3f4b03a3985cdd3ffcff97df1afd52d9bbd85518c0194590a2c33c577a2dac",
          "blockNumber": "0xa4cb19",
          "blockTimestamp": "0x69faecb4",
          "transactionHash": "0xce1944154f2aa0128ce662818a15983a7ffb86354dd3f301f396c06ac6ea2e58",
          "transactionIndex": "0xa0",
          "logIndex": "0x2f2",
          "removed": false
        },
        {
          "address": "0xc795c562d5e21b1f52ffa19b3f34d7bdb5a27c04",
          "topics": [
            "0x79c012a0cfae660e09134956bc432c8497ec80e86a3a108d130e8b3fca52b3ad",
            "0x0000000000000000000000004a779fa7d5ea106f1adfb8369e65fcaa465ca7fd"
          ],
          "data": "0x000000000000000000000000000000000000000000000000000000000000003c",
          "blockHash": "0x9c3f4b03a3985cdd3ffcff97df1afd52d9bbd85518c0194590a2c33c577a2dac",
          "blockNumber": "0xa4cb19",
          "blockTimestamp": "0x69faecb4",
          "transactionHash": "0xce1944154f2aa0128ce662818a15983a7ffb86354dd3f301f396c06ac6ea2e58",
          "transactionIndex": "0xa0",
          "logIndex": "0x2f3",
          "removed": false
        },
        {
          "address": "0xc795c562d5e21b1f52ffa19b3f34d7bdb5a27c04",
          "topics": [
            "0xa311e991c0130cedecfd9e2b818f117fc1375711bc5e20c3a4eeed7a27952ff4",
            "0x0000000000000000000000004a779fa7d5ea106f1adfb8369e65fcaa465ca7fd"
          ],
          "data": "0x0000000000000000000000000000000000000000000000000000000000000001",
          "blockHash": "0x9c3f4b03a3985cdd3ffcff97df1afd52d9bbd85518c0194590a2c33c577a2dac",
          "blockNumber": "0xa4cb19",
          "blockTimestamp": "0x69faecb4",
          "transactionHash": "0xce1944154f2aa0128ce662818a15983a7ffb86354dd3f301f396c06ac6ea2e58",
          "transactionIndex": "0xa0",
          "logIndex": "0x2f4",
          "removed": false
        },
        {
          "address": "0x01eaaa0277501d16b7ae3cfbd3bd6a7f4a8815cc",
          "topics": [
            "0xddf252ad1be2c89b69c2b068fc378daa952ba7f163c4a11628f55a4df523b3ef",
            "0x00000000000000000000000012a0b1e30d28aa0a57ac1064321b4f9b12b40f48",
            "0x0000000000000000000000004a779fa7d5ea106f1adfb8369e65fcaa465ca7fd"
          ],
          "data": "0x00000000000000000000000000000000000000000000000000000001dcd65000",
          "blockHash": "0x9c3f4b03a3985cdd3ffcff97df1afd52d9bbd85518c0194590a2c33c577a2dac",
          "blockNumber": "0xa4cb19",
          "blockTimestamp": "0x69faecb4",
          "transactionHash": "0xce1944154f2aa0128ce662818a15983a7ffb86354dd3f301f396c06ac6ea2e58",
          "transactionIndex": "0xa0",
          "logIndex": "0x2f5",
          "removed": false
        },
        {
          "address": "0x12a0b1e30d28aa0a57ac1064321b4f9b12b40f48",
          "topics": [
            "0x0d736493ece6b7d52e34dd028d3d9d0aa75de37339f3da6b3514e70e231ed2a5",
            "0x0000000000000000000000000000000000000000000000000000000000000002",
            "0x0000000000000000000000004a779fa7d5ea106f1adfb8369e65fcaa465ca7fd"
          ],
          "data": "0x00000000000000000000000000000000000000000000000000000001dcd65000",
          "blockHash": "0x9c3f4b03a3985cdd3ffcff97df1afd52d9bbd85518c0194590a2c33c577a2dac",
          "blockNumber": "0xa4cb19",
          "blockTimestamp": "0x69faecb4",
          "transactionHash": "0xce1944154f2aa0128ce662818a15983a7ffb86354dd3f301f396c06ac6ea2e58",
          "transactionIndex": "0xa0",
          "logIndex": "0x2f6",
          "removed": false
        },
        {
          "address": "0x12a0b1e30d28aa0a57ac1064321b4f9b12b40f48",
          "topics": [
            "0xa5d45484ad1ca2d150048172b10271197e495527669e57411c837f51a47a7ff5",
            "0x0000000000000000000000000000000000000000000000000000000000000002"
          ],
          "data": "0x",
          "blockHash": "0x9c3f4b03a3985cdd3ffcff97df1afd52d9bbd85518c0194590a2c33c577a2dac",
          "blockNumber": "0xa4cb19",
          "blockTimestamp": "0x69faecb4",
          "transactionHash": "0xce1944154f2aa0128ce662818a15983a7ffb86354dd3f301f396c06ac6ea2e58",
          "transactionIndex": "0xa0",
          "logIndex": "0x2f7",
          "removed": false
        },
        {
          "address": "0x12a0b1e30d28aa0a57ac1064321b4f9b12b40f48",
          "topics": [
            "0x1ad611755e340443b2da9ad4b0ba6431ca00c2f6bbda5b5bdf5c7306f9ffb84a",
            "0x0000000000000000000000000000000000000000000000000000000000000002"
          ],
          "data": "0x00000000000000000000000000000000000000000000000000000004a817c8000000000000000000000000000000000000000000000000000000000000000000",
          "blockHash": "0x9c3f4b03a3985cdd3ffcff97df1afd52d9bbd85518c0194590a2c33c577a2dac",
          "blockNumber": "0xa4cb19",
          "blockTimestamp": "0x69faecb4",
          "transactionHash": "0xce1944154f2aa0128ce662818a15983a7ffb86354dd3f301f396c06ac6ea2e58",
          "transactionIndex": "0xa0",
          "logIndex": "0x2f8",
          "removed": false
        }
      ],
      "logsBloom": "0x04000012040000000000000000000000000000000000000000000002000000000100000000000000100000000000000000800000000000400100000000000000801800024008000000000008004010800000000020000040000000000000100010000800004000000800020000000000000000000000000000100010000000000000008000000000000008000000004000000000000000000100000000000000000000410000000000000100000000800000000202000000000000004000000000000002000000400000000000000000000000000000000000000000000000000000000000000000000100000000000400000000008400000080002000000000",
      "type": "0x2",
      "transactionHash": "0xce1944154f2aa0128ce662818a15983a7ffb86354dd3f301f396c06ac6ea2e58",
      "transactionIndex": "0xa0",
      "blockHash": "0x9c3f4b03a3985cdd3ffcff97df1afd52d9bbd85518c0194590a2c33c577a2dac",
      "blockNumber": "0xa4cb19",
      "gasUsed": "0x2f065",
      "effectiveGasPrice": "0xf428a",
      "from": "0x4a779fa7d5ea106f1adfb8369e65fcaa465ca7fd",
      "to": "0x12a0b1e30d28aa0a57ac1064321b4f9b12b40f48",
      "contractAddress": null
    }
  ],
  "libraries": [],
  "pending": [],
  "returns": {
    "result": {
      "internal_type": "struct SeedHKPayFi.SeedResult",
      "value": "(0x4A779fA7d5eA106f1aDFB8369e65fCAA465ca7Fd, 0x4A779fA7d5eA106f1aDFB8369e65fCAA465ca7Fd, 0x4A779fA7d5eA106f1aDFB8369e65fCAA465ca7Fd, 0x4A779fA7d5eA106f1aDFB8369e65fCAA465ca7Fd, 0x000000000000000000000000000000000000bEEF, 0, 1, 2, 0, 1, 2)"
    }
  },
  "timestamp": 1778052277735,
  "chain": 11155111,
  "commit": "81ae9fc"
}